{
  "transactions": [
    {
      "hash": "0x30c089b70648960947f77bda3bd1469ee4b8b9d4045a47ca7062370881f890bf",
      "transactionType": "CALL",
      "contractName": null,
      "contractAddress": "0xaa4958efa0cf6ddd87e354a90785f1d7291a82c7",
      "function": "depositForBurn((uint32,uint32,bytes32,uint256,bytes32,bytes32,uint256,uint32,bytes32,uint256,uint256,uint256,bytes32,bytes32,uint8,bytes),bytes)",
      "arguments": [
        "(3, 0, 0x0000000000000000000000005616194d65638086a3191b1fef436f503ff329ec, 5000000, 0x000000000000000000000000af88d065e77c8cc2239327c5edb3a432268e5831, 0x0000000000000000000000005616194d65638086a3191b1fef436f503ff329ec, 1002500, 1000, 0x83cd4ba979412b6868d69f77d0cd9e256a8856cf34832c451e6efab73329e333, 1765856725, 0, 0, 0x0000000000000000000000009a8f92a830a5cb89a3816e3d267cb7791c16b04d, 0x000000000000000000000000a0b86991c6218b36c1d19d4a2e9eb0ce3606eb48, 2, 0x00000000000000000000000000000000000000000000000000000000000000200000000000000000000000000000000000000000000000000000000000000001000000000000000000000000000000000000000000000000000000000000002000000000000000000000000064a43393866dba0044879979faa7ad3d000622e9000000000000000000000000000000000000000000000000000000000000004000000000000000000000000000000000000000000000000000000000000001a4c41e82950000000000000000000000003b4d794a66304f130a4db8f2551b0070dfcf5ca700000000000000000000000000000000000000000000000000000000000000800000000000000000000000000000000000000000000000000000000000000000000000000000000000000000000000000000000000000000000000000000014000000000000000000000000000000000000000000000000000000000000000848a8570830000000000000000000000009a8f92a830a5cb89a3816e3d267cb7791c16b04d000000000000000000000000000000000000000000000000000000000000000300000000000000000000000000000000000000000000000000000000000000000000000000000000000000000000000000000000000000000000000000000000000000000000000000000000000000000000000000000000000000000000000000000000000000000000000000000000000000000000000000000001000000000000000000000000a0b86991c6218b36c1d19d4a2e9eb0ce3606eb48000000000000000000000000000000000000000000000000000000000000006400000000000000000000000000000000000000000000000000000000)",
        "0xaf41bde416cb59d16c70264fad0af44709850e8372554ca286ff55d3ccd29233458c452c8fde3bba5b7dbf17090ebe499c24b90dcbaf1e718df2220691a49c771c"
      ],
      "transaction": {
        "from": "0x9a8f92a830a5cb89a3816e3d267cb7791c16b04d",
        "to": "0xaa4958efa0cf6ddd87e354a90785f1d7291a82c7",
        "gas": "0x53208",
        "value": "0x0",
        "input": "0x63cd663b000000000000000000000000000000000000000000000000000000000000004000000000000000000000000000000000000000000000000000000000000004e0000000000000000000000000000000000000000000000000000000000000000300000000000000000000000000000000000000000000000000000000000000000000000000000000000000005616194d65638086a3191b1fef436f503ff329ec00000000000000000000000000000000000000000000000000000000004c4b40000000000000000000000000af88d065e77c8cc2239327c5edb3a432268e58310000000000000000000000005616194d65638086a3191b1fef436f503ff329ec00000000000000000000000000000000000000000000000000000000000f4c0400000000000000000000000000000000000000000000000000000000000003e883cd4ba979412b6868d69f77d0cd9e256a8856cf34832c451e6efab73329e333000000000000000000000000000000000000000000000000000000006940d5d5000000000000000000000000000000000000000000000000000000000000000000000000000000000000000000000000000000000000000000000000000000000000000000000000000000009a8f92a830a5cb89a3816e3d267cb7791c16b04d000000000000000000000000a0b86991c6218b36c1d19d4a2e9eb0ce3606eb4800000000000000000000000000000000000000000000000000000000000000020000000000000000000000000000000000000000000000000000000000000200000000000000000000000000000000000000000000000000000000000000028000000000000000000000000000000000000000000000000000000000000000200000000000000000000000000000000000000000000000000000000000000001000000000000000000000000000000000000000000000000000000000000002000000000000000000000000064a43393866dba0044879979faa7ad3d000622e9000000000000000000000000000000000000000000000000000000000000004000000000000000000000000000000000000000000000000000000000000001a4c41e82950000000000000000000000003b4d794a66304f130a4db8f2551b0070dfcf5ca700000000000000000000000000000000000000000000000000000000000000800000000000000000000000000000000000000000000000000000000000000000000000000000000000000000000000000000000000000000000000000000014000000000000000000000000000000000000000000000000000000000000000848a8570830000000000000000000000009a8f92a830a5cb89a3816e3d267cb7791c16b04d000000000000000000000000000000000000000000000000000000000000000300000000000000000000000000000000000000000000000000000000000000000000000000000000000000000000000000000000000000000000000000000000000000000000000000000000000000000000000000000000000000000000000000000000000000000000000000000000000000000000000000000001000000000000000000000000a0b86991c6218b36c1d19d4a2e9eb0ce3606eb480000000000000000000000000000000000000000000000000000000000000064000000000000000000000000000000000000000000000000000000000000000000000000000000000000000000000000000000000000000000000041af41bde416cb59d16c70264fad0af44709850e8372554ca286ff55d3ccd29233458c452c8fde3bba5b7dbf17090ebe499c24b90dcbaf1e718df2220691a49c771c00000000000000000000000000000000000000000000000000000000000000",
        "nonce": "0x175a",
        "chainId": "0xa4b1"
      },
      "additionalContracts": [],
      "isFixedGasLimit": true
    }
  ],
  "receipts": [
    {
      "status": "0x1",
      "cumulativeGasUsed": "0x1567d1",
      "logs": [
        {
          "address": "0xaf88d065e77c8cc2239327c5edb3a432268e5831",
          "topics": [
            "0xddf252ad1be2c89b69c2b068fc378daa952ba7f163c4a11628f55a4df523b3ef",
            "0x0000000000000000000000009a8f92a830a5cb89a3816e3d267cb7791c16b04d",
            "0x000000000000000000000000aa4958efa0cf6ddd87e354a90785f1d7291a82c7"
          ],
          "data": "0x00000000000000000000000000000000000000000000000000000000004c4b40",
          "blockHash": "0x5c7392582909f1147b68c2cbf117d204aca38344c701c4f804b9d7867e0c7aff",
          "blockNumber": "0x18806d1c",
          "blockTimestamp": "0x6940abb2",
          "transactionHash": "0x30c089b70648960947f77bda3bd1469ee4b8b9d4045a47ca7062370881f890bf",
          "transactionIndex": "0xc",
          "logIndex": "0x1c",
          "removed": false
        },
        {
          "address": "0xaf88d065e77c8cc2239327c5edb3a432268e5831",
          "topics": [
            "0x8c5be1e5ebec7d5bd14f71427d1e84f3dd0314c0f7b2291e5b200ac8c7c3b925",
            "0x000000000000000000000000aa4958efa0cf6ddd87e354a90785f1d7291a82c7",
            "0x00000000000000000000000028b5a0e9c621a5badaa536219b3a228c8168cf5d"
          ],
          "data": "0x00000000000000000000000000000000000000000000000000000000004c4b40",
          "blockHash": "0x5c7392582909f1147b68c2cbf117d204aca38344c701c4f804b9d7867e0c7aff",
          "blockNumber": "0x18806d1c",
          "blockTimestamp": "0x6940abb2",
          "transactionHash": "0x30c089b70648960947f77bda3bd1469ee4b8b9d4045a47ca7062370881f890bf",
          "transactionIndex": "0xc",
          "logIndex": "0x1d",
          "removed": false
        },
        {
          "address": "0xaf88d065e77c8cc2239327c5edb3a432268e5831",
          "topics": [
            "0xddf252ad1be2c89b69c2b068fc378daa952ba7f163c4a11628f55a4df523b3ef",
            "0x000000000000000000000000aa4958efa0cf6ddd87e354a90785f1d7291a82c7",
            "0x000000000000000000000000fd78ee919681417d192449715b2594ab58f5d002"
          ],
          "data": "0x00000000000000000000000000000000000000000000000000000000004c4b40",
          "blockHash": "0x5c7392582909f1147b68c2cbf117d204aca38344c701c4f804b9d7867e0c7aff",
          "blockNumber": "0x18806d1c",
          "blockTimestamp": "0x6940abb2",
          "transactionHash": "0x30c089b70648960947f77bda3bd1469ee4b8b9d4045a47ca7062370881f890bf",
          "transactionIndex": "0xc",
          "logIndex": "0x1e",
          "removed": false
        },
        {
          "address": "0xaf88d065e77c8cc2239327c5edb3a432268e5831",
          "topics": [
            "0xcc16f5dbb4873280815c1ee09dbd06736cffcc184412cf7a71a0fdb75d397ca5",
            "0x000000000000000000000000fd78ee919681417d192449715b2594ab58f5d002"
          ],
          "data": "0x00000000000000000000000000000000000000000000000000000000004c4b40",
          "blockHash": "0x5c7392582909f1147b68c2cbf117d204aca38344c701c4f804b9d7867e0c7aff",
          "blockNumber": "0x18806d1c",
          "blockTimestamp": "0x6940abb2",
          "transactionHash": "0x30c089b70648960947f77bda3bd1469ee4b8b9d4045a47ca7062370881f890bf",
          "transactionIndex": "0xc",
          "logIndex": "0x1f",
          "removed": false
        },
        {
          "address": "0xaf88d065e77c8cc2239327c5edb3a432268e5831",
          "topics": [
            "0xddf252ad1be2c89b69c2b068fc378daa952ba7f163c4a11628f55a4df523b3ef",
            "0x000000000000000000000000fd78ee919681417d192449715b2594ab58f5d002",
            "0x0000000000000000000000000000000000000000000000000000000000000000"
          ],
          "data": "0x00000000000000000000000000000000000000000000000000000000004c4b40",
          "blockHash": "0x5c7392582909f1147b68c2cbf117d204aca38344c701c4f804b9d7867e0c7aff",
          "blockNumber": "0x18806d1c",
          "blockTimestamp": "0x6940abb2",
          "transactionHash": "0x30c089b70648960947f77bda3bd1469ee4b8b9d4045a47ca7062370881f890bf",
          "transactionIndex": "0xc",
          "logIndex": "0x20",
          "removed": false
        },
        {
          "address": "0x81d40f21f12a8f0e3252bccb954d722d4c464b64",
          "topics": ["0x8c5261668696ce22758910d05bab8f186d6eb247ceac2af2e82c7dc17669b036"],
          "data": "0x00000000000000000000000000000000000000000000000000000000000000200000000000000000000000000000000000000000000000000000000000000518000000010000000300000000000000000000000000000000000000000000000000000000000000000000000000000000000000000000000028b5a0e9c621a5badaa536219b3a228c8168cf5d00000000000000000000000028b5a0e9c621a5badaa536219b3a228c8168cf5d0000000000000000000000005616194d65638086a3191b1fef436f503ff329ec000003e80000000000000001000000000000000000000000af88d065e77c8cc2239327c5edb3a432268e58310000000000000000000000005616194d65638086a3191b1fef436f503ff329ec00000000000000000000000000000000000000000000000000000000004c4b40000000000000000000000000aa4958efa0cf6ddd87e354a90785f1d7291a82c700000000000000000000000000000000000000000000000000000000000f4c040000000000000000000000000000000000000000000000000000000000000000000000000000000000000000000000000000000000000000000000000000000083cd4ba979412b6868d69f77d0cd9e256a8856cf34832c451e6efab73329e333000000000000000000000000000000000000000000000000000000006940d5d5000000000000000000000000000000000000000000000000000000000000000000000000000000000000000000000000000000000000000000000000000000000000000000000000000000009a8f92a830a5cb89a3816e3d267cb7791c16b04d000000000000000000000000a0b86991c6218b36c1d19d4a2e9eb0ce3606eb4800000000000000000000000000000000000000000000000000000000000000020000000000000000000000000000000000000000000000000000000000000100000000000000000000000000000000000000000000000000000000000000028000000000000000000000000000000000000000000000000000000000000000200000000000000000000000000000000000000000000000000000000000000001000000000000000000000000000000000000000000000000000000000000002000000000000000000000000064a43393866dba0044879979faa7ad3d000622e9000000000000000000000000000000000000000000000000000000000000004000000000000000000000000000000000000000000000000000000000000001a4c41e82950000000000000000000000003b4d794a66304f130a4db8f2551b0070dfcf5ca700000000000000000000000000000000000000000000000000000000000000800000000000000000000000000000000000000000000000000000000000000000000000000000000000000000000000000000000000000000000000000000014000000000000000000000000000000000000000000000000000000000000000848a8570830000000000000000000000009a8f92a830a5cb89a3816e3d267cb7791c16b04d000000000000000000000000000000000000000000000000000000000000000300000000000000000000000000000000000000000000000000000000000000000000000000000000000000000000000000000000000000000000000000000000000000000000000000000000000000000000000000000000000000000000000000000000000000000000000000000000000000000000000000000001000000000000000000000000a0b86991c6218b36c1d19d4a2e9eb0ce3606eb480000000000000000000000000000000000000000000000000000000000000064000000000000000000000000000000000000000000000000000000000000000000000000",
          "blockHash": "0x5c7392582909f1147b68c2cbf117d204aca38344c701c4f804b9d7867e0c7aff",
          "blockNumber": "0x18806d1c",
          "blockTimestamp": "0x6940abb2",
          "transactionHash": "0x30c089b70648960947f77bda3bd1469ee4b8b9d4045a47ca7062370881f890bf",
          "transactionIndex": "0xc",
          "logIndex": "0x21",
          "removed": false
        },
        {
          "address": "0x28b5a0e9c621a5badaa536219b3a228c8168cf5d",
          "topics": [
            "0x0c8c1cbdc5190613ebd485511d4e2812cfa45eecb79d845893331fedad5130a5",
            "0x000000000000000000000000af88d065e77c8cc2239327c5edb3a432268e5831",
            "0x000000000000000000000000aa4958efa0cf6ddd87e354a90785f1d7291a82c7",
            "0x00000000000000000000000000000000000000000000000000000000000003e8"
          ],
          "data": "0x00000000000000000000000000000000000000000000000000000000004c4b400000000000000000000000005616194d65638086a3191b1fef436f503ff329ec000000000000000000000000000000000000000000000000000000000000000000000000000000000000000028b5a0e9c621a5badaa536219b3a228c8168cf5d0000000000000000000000005616194d65638086a3191b1fef436f503ff329ec00000000000000000000000000000000000000000000000000000000000f4c0400000000000000000000000000000000000000000000000000000000000000e000000000000000000000000000000000000000000000000000000000000003a083cd4ba979412b6868d69f77d0cd9e256a8856cf34832c451e6efab73329e333000000000000000000000000000000000000000000000000000000006940d5d5000000000000000000000000000000000000000000000000000000000000000000000000000000000000000000000000000000000000000000000000000000000000000000000000000000009a8f92a830a5cb89a3816e3d267cb7791c16b04d000000000000000000000000a0b86991c6218b36c1d19d4a2e9eb0ce3606eb4800000000000000000000000000000000000000000000000000000000000000020000000000000000000000000000000000000000000000000000000000000100000000000000000000000000000000000000000000000000000000000000028000000000000000000000000000000000000000000000000000000000000000200000000000000000000000000000000000000000000000000000000000000001000000000000000000000000000000000000000000000000000000000000002000000000000000000000000064a43393866dba0044879979faa7ad3d000622e9000000000000000000000000000000000000000000000000000000000000004000000000000000000000000000000000000000000000000000000000000001a4c41e82950000000000000000000000003b4d794a66304f130a4db8f2551b0070dfcf5ca700000000000000000000000000000000000000000000000000000000000000800000000000000000000000000000000000000000000000000000000000000000000000000000000000000000000000000000000000000000000000000000014000000000000000000000000000000000000000000000000000000000000000848a8570830000000000000000000000009a8f92a830a5cb89a3816e3d267cb7791c16b04d000000000000000000000000000000000000000000000000000000000000000300000000000000000000000000000000000000000000000000000000000000000000000000000000000000000000000000000000000000000000000000000000000000000000000000000000000000000000000000000000000000000000000000000000000000000000000000000000000000000000000000000001000000000000000000000000a0b86991c6218b36c1d19d4a2e9eb0ce3606eb48000000000000000000000000000000000000000000000000000000000000006400000000000000000000000000000000000000000000000000000000",
          "blockHash": "0x5c7392582909f1147b68c2cbf117d204aca38344c701c4f804b9d7867e0c7aff",
          "blockNumber": "0x18806d1c",
          "blockTimestamp": "0x6940abb2",
          "transactionHash": "0x30c089b70648960947f77bda3bd1469ee4b8b9d4045a47ca7062370881f890bf",
          "transactionIndex": "0xc",
          "logIndex": "0x22",
          "removed": false
        },
        {
          "address": "0xaa4958efa0cf6ddd87e354a90785f1d7291a82c7",
          "topics": [
            "0x42d1b5f3692944aee65b659fda3e120f817f17d8f2ac9a256f6fc5d642a591fe",
            "0x83cd4ba979412b6868d69f77d0cd9e256a8856cf34832c451e6efab73329e333",
            "0x0000000000000000000000009a8f92a830a5cb89a3816e3d267cb7791c16b04d",
            "0x0000000000000000000000009a8f92a830a5cb89a3816e3d267cb7791c16b04d"
          ],
          "data": "0x000000000000000000000000000000000000000000000000000000006940d5d500000000000000000000000000000000000000000000000000000000000000000000000000000000000000000000000000000000000000000000000000000000000000000000000000000000a0b86991c6218b36c1d19d4a2e9eb0ce3606eb4800000000000000000000000000000000000000000000000000000000000000a00000000000000000000000000000000000000000000000000000000000000041af41bde416cb59d16c70264fad0af44709850e8372554ca286ff55d3ccd29233458c452c8fde3bba5b7dbf17090ebe499c24b90dcbaf1e718df2220691a49c771c00000000000000000000000000000000000000000000000000000000000000",
          "blockHash": "0x5c7392582909f1147b68c2cbf117d204aca38344c701c4f804b9d7867e0c7aff",
          "blockNumber": "0x18806d1c",
          "blockTimestamp": "0x6940abb2",
          "transactionHash": "0x30c089b70648960947f77bda3bd1469ee4b8b9d4045a47ca7062370881f890bf",
          "transactionIndex": "0xc",
          "logIndex": "0x23",
          "removed": false
        }
      ],
      "logsBloom": "0x00000000002000000000000020000000000000000000001000000000000000000000000000000204100000000000000000000001400000000000000000200000000000080000000000800008000000000000000000800000000008100000000000000000020000001040000002000800080000000040000000000010040000000010000200000000000000000000400000000000000040000000000000200000020020000800000000000000022004000001000000000008000002000400010000002002081000800400000000000000000000010000000000000100000020000011000000000000000000000000200000000000002000000000000002000000",
      "type": "0x2",
      "transactionHash": "0x30c089b70648960947f77bda3bd1469ee4b8b9d4045a47ca7062370881f890bf",
      "transactionIndex": "0xc",
      "blockHash": "0x5c7392582909f1147b68c2cbf117d204aca38344c701c4f804b9d7867e0c7aff",
      "blockNumber": "0x18806d1c",
      "gasUsed": "0x329b6",
      "effectiveGasPrice": "0x989680",
      "from": "0x9a8f92a830a5cb89a3816e3d267cb7791c16b04d",
      "to": "0xaa4958efa0cf6ddd87e354a90785f1d7291a82c7",
      "contractAddress": null,
      "gasUsedForL1": "0x0",
      "l1BlockNumber": "0x16e8aa3",
      "timeboosted": false
    }
  ],
  "libraries": [],
  "pending": [],
  "returns": {},
  "timestamp": 1765845939077,
  "chain": 42161,
  "commit": "ab30a198"
}
