{
  "transactions": [
    {
      "hash": "0x485eb562a6299d0e7a69c6e6bcec17f095868385fd90e4137d078b621455b702",
      "transactionType": "CALL",
      "contractName": null,
      "contractAddress": "0xfd086bc7cd5c481dcc9c85ebe478a1c0b69fcbb9",
      "function": "approve(address,uint256)",
      "arguments": ["0x1235Ac1010FeeC8ae22744f323416cBBE37feDbE", "1006000"],
      "transaction": {
        "from": "0x9a8f92a830a5cb89a3816e3d267cb7791c16b04d",
        "to": "0xfd086bc7cd5c481dcc9c85ebe478a1c0b69fcbb9",
        "gas": "0x115b9",
        "value": "0x0",
        "input": "0x095ea7b30000000000000000000000001235ac1010feec8ae22744f323416cbbe37fedbe00000000000000000000000000000000000000000000000000000000000f59b0",
        "nonce": "0x117d",
        "chainId": "0xa4b1"
      },
      "additionalContracts": [],
      "isFixedGasLimit": false
    },
    {
      "hash": "0xf7df0639e9fdb09860d457a3a267c1fffbb247d44bae45008b589e27b54805fc",
      "transactionType": "CALL",
      "contractName": "SponsoredOFTSrcPeriphery",
      "contractAddress": "0x1235ac1010feec8ae22744f323416cbbe37fedbe",
      "function": "deposit(((uint32,uint32,bytes32,uint256,bytes32,uint256,uint256,bytes32,bytes32,uint256,uint256,uint8,bytes),(address,uint256)),bytes)",
      "arguments": [
        "((30110, 30367, 0x0000000000000000000000002bef20d17a17f6903017d27d1a35cc9dc72b0888, 1006000, 0x00000000000000000000000000000000000000000000000000000000690422f2, 1761882370, 100, 0x0000000000000000000000009a8f92a830a5cb89a3816e3d267cb7791c16b04d, 0x000000000000000000000000b8ce59fc3717ada4c02eadf9682a9e934f625ebb, 200000, 300000, 0, 0x), (0x9A8f92a830A5cB89a3816e3D267CB7791c16b04D, 50))",
        "0x0ebe8b1c5d85cd01fbe557f153c6e319bc431b50d76ace8d456fa30414a5b2ab5d5be8c3e775f1e130249f172db892ed17a0dff7e149f5f89f4ad4238a4847c81b"
      ],
      "transaction": {
        "from": "0x9a8f92a830a5cb89a3816e3d267cb7791c16b04d",
        "to": "0x1235ac1010feec8ae22744f323416cbbe37fedbe",
        "gas": "0x985ee",
        "value": "0x5f5ff6501cb",
        "input": "0xfcc5b1e30000000000000000000000000000000000000000000000000000000000000040000000000000000000000000000000000000000000000000000000000000026000000000000000000000000000000000000000000000000000000000000000600000000000000000000000009a8f92a830a5cb89a3816e3d267cb7791c16b04d0000000000000000000000000000000000000000000000000000000000000032000000000000000000000000000000000000000000000000000000000000759e000000000000000000000000000000000000000000000000000000000000769f0000000000000000000000002bef20d17a17f6903017d27d1a35cc9dc72b088800000000000000000000000000000000000000000000000000000000000f59b000000000000000000000000000000000000000000000000000000000690422f2000000000000000000000000000000000000000000000000000000006904310200000000000000000000000000000000000000000000000000000000000000640000000000000000000000009a8f92a830a5cb89a3816e3d267cb7791c16b04d000000000000000000000000b8ce59fc3717ada4c02eadf9682a9e934f625ebb0000000000000000000000000000000000000000000000000000000000030d4000000000000000000000000000000000000000000000000000000000000493e0000000000000000000000000000000000000000000000000000000000000000000000000000000000000000000000000000000000000000000000000000001a0000000000000000000000000000000000000000000000000000000000000000000000000000000000000000000000000000000000000000000000000000000410ebe8b1c5d85cd01fbe557f153c6e319bc431b50d76ace8d456fa30414a5b2ab5d5be8c3e775f1e130249f172db892ed17a0dff7e149f5f89f4ad4238a4847c81b00000000000000000000000000000000000000000000000000000000000000",
        "nonce": "0x117e",
        "chainId": "0xa4b1"
      },
      "additionalContracts": [],
      "isFixedGasLimit": false
    }
  ],
  "receipts": [
    {
      "status": "0x1",
      "cumulativeGasUsed": "0xd246",
      "logs": [
        {
          "address": "0xfd086bc7cd5c481dcc9c85ebe478a1c0b69fcbb9",
          "topics": [
            "0x8c5be1e5ebec7d5bd14f71427d1e84f3dd0314c0f7b2291e5b200ac8c7c3b925",
            "0x0000000000000000000000009a8f92a830a5cb89a3816e3d267cb7791c16b04d",
            "0x0000000000000000000000001235ac1010feec8ae22744f323416cbbe37fedbe"
          ],
          "data": "0x00000000000000000000000000000000000000000000000000000000000f59b0",
          "blockHash": "0xbd981ccbcb9fe644310f1a7600ec9d2dc44e47a69a4752df243f523fc18c8c13",
          "blockNumber": "0x178e0070",
          "transactionHash": "0x485eb562a6299d0e7a69c6e6bcec17f095868385fd90e4137d078b621455b702",
          "transactionIndex": "0x1",
          "logIndex": "0x0",
          "removed": false
        }
      ],
      "logsBloom": "0x00000000000000000000000000000000000000000000000000000000000000000000000000000000000000000000000000000000000000000000000000210000000010000000000000000000000000000000000000000000000000000000000000000000000000000000000000000000000000000000000000000000040000000000000000000000000000000000000000000000000000800000000000002000020000000000000000000000000000000000000000000000000000000000000000008000000000800000000000000000000000000000000000000000000000000011000000000000000000000000000010000000000000000000000000000000",
      "type": "0x2",
      "transactionHash": "0x485eb562a6299d0e7a69c6e6bcec17f095868385fd90e4137d078b621455b702",
      "transactionIndex": "0x1",
      "blockHash": "0xbd981ccbcb9fe644310f1a7600ec9d2dc44e47a69a4752df243f523fc18c8c13",
      "blockNumber": "0x178e0070",
      "gasUsed": "0xd246",
      "effectiveGasPrice": "0x989680",
      "from": "0x9a8f92a830a5cb89a3816e3d267cb7791c16b04d",
      "to": "0xfd086bc7cd5c481dcc9c85ebe478a1c0b69fcbb9",
      "contractAddress": null,
      "gasUsedForL1": "0x104",
      "l1BlockNumber": "0x1698c74",
      "timeboosted": false
    },
    {
      "status": "0x1",
      "cumulativeGasUsed": "0x6e78d",
      "logs": [
        {
          "address": "0xfd086bc7cd5c481dcc9c85ebe478a1c0b69fcbb9",
          "topics": [
            "0xddf252ad1be2c89b69c2b068fc378daa952ba7f163c4a11628f55a4df523b3ef",
            "0x0000000000000000000000009a8f92a830a5cb89a3816e3d267cb7791c16b04d",
            "0x0000000000000000000000001235ac1010feec8ae22744f323416cbbe37fedbe"
          ],
          "data": "0x00000000000000000000000000000000000000000000000000000000000f59b0",
          "blockHash": "0x6c698aad9f6a14d7b92a075dd980a8db8b12017d2a35946fe56db52ef6a9b4ed",
          "blockNumber": "0x178e0075",
          "transactionHash": "0xf7df0639e9fdb09860d457a3a267c1fffbb247d44bae45008b589e27b54805fc",
          "transactionIndex": "0x1",
          "logIndex": "0x0",
          "removed": false
        },
        {
          "address": "0xfd086bc7cd5c481dcc9c85ebe478a1c0b69fcbb9",
          "topics": [
            "0x8c5be1e5ebec7d5bd14f71427d1e84f3dd0314c0f7b2291e5b200ac8c7c3b925",
            "0x0000000000000000000000009a8f92a830a5cb89a3816e3d267cb7791c16b04d",
            "0x0000000000000000000000001235ac1010feec8ae22744f323416cbbe37fedbe"
          ],
          "data": "0x0000000000000000000000000000000000000000000000000000000000000000",
          "blockHash": "0x6c698aad9f6a14d7b92a075dd980a8db8b12017d2a35946fe56db52ef6a9b4ed",
          "blockNumber": "0x178e0075",
          "transactionHash": "0xf7df0639e9fdb09860d457a3a267c1fffbb247d44bae45008b589e27b54805fc",
          "transactionIndex": "0x1",
          "logIndex": "0x1",
          "removed": false
        },
        {
          "address": "0xfd086bc7cd5c481dcc9c85ebe478a1c0b69fcbb9",
          "topics": [
            "0x8c5be1e5ebec7d5bd14f71427d1e84f3dd0314c0f7b2291e5b200ac8c7c3b925",
            "0x0000000000000000000000001235ac1010feec8ae22744f323416cbbe37fedbe",
            "0x00000000000000000000000014e4a1b13bf7f943c8ff7c51fb60fa964a298d92"
          ],
          "data": "0x00000000000000000000000000000000000000000000000000000000000f59b0",
          "blockHash": "0x6c698aad9f6a14d7b92a075dd980a8db8b12017d2a35946fe56db52ef6a9b4ed",
          "blockNumber": "0x178e0075",
          "transactionHash": "0xf7df0639e9fdb09860d457a3a267c1fffbb247d44bae45008b589e27b54805fc",
          "transactionIndex": "0x1",
          "logIndex": "0x2",
          "removed": false
        },
        {
          "address": "0xfd086bc7cd5c481dcc9c85ebe478a1c0b69fcbb9",
          "topics": [
            "0xddf252ad1be2c89b69c2b068fc378daa952ba7f163c4a11628f55a4df523b3ef",
            "0x0000000000000000000000001235ac1010feec8ae22744f323416cbbe37fedbe",
            "0x0000000000000000000000000000000000000000000000000000000000000000"
          ],
          "data": "0x00000000000000000000000000000000000000000000000000000000000f59b0",
          "blockHash": "0x6c698aad9f6a14d7b92a075dd980a8db8b12017d2a35946fe56db52ef6a9b4ed",
          "blockNumber": "0x178e0075",
          "transactionHash": "0xf7df0639e9fdb09860d457a3a267c1fffbb247d44bae45008b589e27b54805fc",
          "transactionIndex": "0x1",
          "logIndex": "0x3",
          "removed": false
        },
        {
          "address": "0xfd086bc7cd5c481dcc9c85ebe478a1c0b69fcbb9",
          "topics": [
            "0xcc16f5dbb4873280815c1ee09dbd06736cffcc184412cf7a71a0fdb75d397ca5",
            "0x0000000000000000000000001235ac1010feec8ae22744f323416cbbe37fedbe"
          ],
          "data": "0x00000000000000000000000000000000000000000000000000000000000f59b0",
          "blockHash": "0x6c698aad9f6a14d7b92a075dd980a8db8b12017d2a35946fe56db52ef6a9b4ed",
          "blockNumber": "0x178e0075",
          "transactionHash": "0xf7df0639e9fdb09860d457a3a267c1fffbb247d44bae45008b589e27b54805fc",
          "transactionIndex": "0x1",
          "logIndex": "0x4",
          "removed": false
        },
        {
          "address": "0x975bcd720be66659e3eb3c0e4f1866a3020e493a",
          "topics": ["0x61ed099e74a97a1d7f8bb0952a88ca8b7b8ebd00c126ea04671f92a81213318a"],
          "data": "0x00000000000000000000000031cae3b7fb82d847621859fb1585353c5720660d000000000000000000000000000000000000000000000000000005bb4db8590d",
          "blockHash": "0x6c698aad9f6a14d7b92a075dd980a8db8b12017d2a35946fe56db52ef6a9b4ed",
          "blockNumber": "0x178e0075",
          "transactionHash": "0xf7df0639e9fdb09860d457a3a267c1fffbb247d44bae45008b589e27b54805fc",
          "transactionIndex": "0x1",
          "logIndex": "0x5",
          "removed": false
        },
        {
          "address": "0x975bcd720be66659e3eb3c0e4f1866a3020e493a",
          "topics": ["0x07ea52d82345d6e838192107d8fd7123d9c2ec8e916cd0aad13fd2b60db24644"],
          "data": "0x000000000000000000000000000000000000000000000000000000000000006000000000000000000000000000000000000000000000000000000000000000c000000000000000000000000000000000000000000000000000000000000000e000000000000000000000000000000000000000000000000000000000000000020000000000000000000000002f55c492897526677c5b68fb199ea31e2c126416000000000000000000000000a8b8575fa41c305953f519c7d288cd7741727c7b000000000000000000000000000000000000000000000000000000000000000000000000000000000000000000000000000000000000000000000000000000020000000000000000000000000000000000000000000000000000001ce9b5fa840000000000000000000000000000000000000000000000000000001dc7f6ae3a",
          "blockHash": "0x6c698aad9f6a14d7b92a075dd980a8db8b12017d2a35946fe56db52ef6a9b4ed",
          "blockNumber": "0x178e0075",
          "transactionHash": "0xf7df0639e9fdb09860d457a3a267c1fffbb247d44bae45008b589e27b54805fc",
          "transactionIndex": "0x1",
          "logIndex": "0x6",
          "removed": false
        },
        {
          "address": "0x1a44076050125825900e736c501f859c50fe728c",
          "topics": ["0x1ab700d4ced0c005b164c0f789fd09fcbb0156d4c2041b8a3bfbcd961cd1567f"],
          "data": "0x00000000000000000000000000000000000000000000000000000000000000600000000000000000000000000000000000000000000000000000000000000260000000000000000000000000975bcd720be66659e3eb3c0e4f1866a3020e493a00000000000000000000000000000000000000000000000000000000000001d90100000000000058be0000759e00000000000000000000000014e4a1b13bf7f943c8ff7c51fb60fa964a298d920000769f000000000000000000000000904861a24f30ec96ea7cfc3be9ea4b476d237e9892ed3b3d6f20fc1d18f4e2f5115a96207ad5c3f011ec5750c2d95596d82383a40000000000000000000000002bef20d17a17f6903017d27d1a35cc9dc72b088800000000000f59b00000000000000000000000001235ac1010feec8ae22744f323416cbbe37fedbe00000000000000000000000000000000000000000000000000000000690422f20000000000000000000000000000000000000000000000000000000069043102000000000000000000000000000000000000000000000000000000000000006400000000000000000000000000000000000000000000000000000000000000320000000000000000000000009a8f92a830a5cb89a3816e3d267cb7791c16b04d000000000000000000000000b8ce59fc3717ada4c02eadf9682a9e934f625ebb000000000000000000000000000000000000000000000000000000000000000000000000000000000000000000000000000000000000000000000000000001000000000000000000000000000000000000000000000000000000000000000000000000000000000000000000000000000000000000000000000000000000000000000000000056000301001101000000000000000000000000000186a0010013030000000000000000000000000000000186a00100110100000000000000000000000000030d40010013030000000000000000000000000000000493e000000000000000000000",
          "blockHash": "0x6c698aad9f6a14d7b92a075dd980a8db8b12017d2a35946fe56db52ef6a9b4ed",
          "blockNumber": "0x178e0075",
          "transactionHash": "0xf7df0639e9fdb09860d457a3a267c1fffbb247d44bae45008b589e27b54805fc",
          "transactionIndex": "0x1",
          "logIndex": "0x7",
          "removed": false
        },
        {
          "address": "0x14e4a1b13bf7f943c8ff7c51fb60fa964a298d92",
          "topics": [
            "0x85496b760a4b7f8d66384b9df21b381f5d1b1e79f229a47aaf4c232edc2fe59a",
            "0x92ed3b3d6f20fc1d18f4e2f5115a96207ad5c3f011ec5750c2d95596d82383a4",
            "0x0000000000000000000000001235ac1010feec8ae22744f323416cbbe37fedbe"
          ],
          "data": "0x000000000000000000000000000000000000000000000000000000000000769f00000000000000000000000000000000000000000000000000000000000f59b000000000000000000000000000000000000000000000000000000000000f59b0",
          "blockHash": "0x6c698aad9f6a14d7b92a075dd980a8db8b12017d2a35946fe56db52ef6a9b4ed",
          "blockNumber": "0x178e0075",
          "transactionHash": "0xf7df0639e9fdb09860d457a3a267c1fffbb247d44bae45008b589e27b54805fc",
          "transactionIndex": "0x1",
          "logIndex": "0x8",
          "removed": false
        },
        {
          "address": "0x1235ac1010feec8ae22744f323416cbbe37fedbe",
          "topics": [
            "0x8fb515a2e89f5acfca1124e69e331c2cded0ca216b578ba531720f6841139dbf",
            "0x00000000000000000000000000000000000000000000000000000000690422f2",
            "0x0000000000000000000000009a8f92a830a5cb89a3816e3d267cb7791c16b04d",
            "0x0000000000000000000000009a8f92a830a5cb89a3816e3d267cb7791c16b04d"
          ],
          "data": "0x0000000000000000000000002bef20d17a17f6903017d27d1a35cc9dc72b0888000000000000000000000000000000000000000000000000000000006904310200000000000000000000000000000000000000000000000000000000000000640000000000000000000000000000000000000000000000000000000000000032000000000000000000000000b8ce59fc3717ada4c02eadf9682a9e934f625ebb00000000000000000000000000000000000000000000000000000000000000c000000000000000000000000000000000000000000000000000000000000000410ebe8b1c5d85cd01fbe557f153c6e319bc431b50d76ace8d456fa30414a5b2ab5d5be8c3e775f1e130249f172db892ed17a0dff7e149f5f89f4ad4238a4847c81b00000000000000000000000000000000000000000000000000000000000000",
          "blockHash": "0x6c698aad9f6a14d7b92a075dd980a8db8b12017d2a35946fe56db52ef6a9b4ed",
          "blockNumber": "0x178e0075",
          "transactionHash": "0xf7df0639e9fdb09860d457a3a267c1fffbb247d44bae45008b589e27b54805fc",
          "transactionIndex": "0x1",
          "logIndex": "0x9",
          "removed": false
        }
      ],
      "logsBloom": "0x00000000000000000000000000000000008000000000001000000000001040000000000000000000000000000200000000000000000440000000000000210400000012000000100000000018000000000000000000000000000000000000000000000000020810008000000000000800080000000010000000000010040000000000000000000000000000080000000000000000000010800000000000202000020000008400000000100000000000020000000000400000420440000000008000008002000000800000000080000000000000000000000000002000000220000011040100000000000000000000002010000000018200000000000080000000",
      "type": "0x2",
      "transactionHash": "0xf7df0639e9fdb09860d457a3a267c1fffbb247d44bae45008b589e27b54805fc",
      "transactionIndex": "0x1",
      "blockHash": "0x6c698aad9f6a14d7b92a075dd980a8db8b12017d2a35946fe56db52ef6a9b4ed",
      "blockNumber": "0x178e0075",
      "gasUsed": "0x6e78d",
      "effectiveGasPrice": "0x989680",
      "from": "0x9a8f92a830a5cb89a3816e3d267cb7791c16b04d",
      "to": "0x1235ac1010feec8ae22744f323416cbbe37fedbe",
      "contractAddress": null,
      "gasUsedForL1": "0x288",
      "l1BlockNumber": "0x1698c74",
      "timeboosted": false
    }
  ],
  "libraries": [],
  "pending": [],
  "returns": {},
  "timestamp": 1761878793732,
  "chain": 42161,
  "commit": "df88fb4f"
}
