{
  "transactions": [
    {
      "hash": "0x727ba90684db5bf8034bf6d8fd2aefae7856cb177e049905e3394606d8641cfe",
      "transactionType": "CALL",
      "contractName": null,
      "contractAddress": "0xfd086bc7cd5c481dcc9c85ebe478a1c0b69fcbb9",
      "function": "approve(address,uint256)",
      "arguments": ["0x2ac5Ee3796E027dA274fbDe84c82173a65868940", "1000000"],
      "transaction": {
        "from": "0x9a8f92a830a5cb89a3816e3d267cb7791c16b04d",
        "to": "0xfd086bc7cd5c481dcc9c85ebe478a1c0b69fcbb9",
        "gas": "0x1141e",
        "value": "0x0",
        "input": "0x095ea7b30000000000000000000000002ac5ee3796e027da274fbde84c82173a6586894000000000000000000000000000000000000000000000000000000000000f4240",
        "nonce": "0x1570",
        "chainId": "0xa4b1"
      },
      "additionalContracts": [],
      "isFixedGasLimit": false
    },
    {
      "hash": "0x3821ab22e999bc5c916ad9e335d03f9844cd02247fe3eeb1a08c686552f54f19",
      "transactionType": "CALL",
      "contractName": "SponsoredOFTSrcPeriphery",
      "contractAddress": "0x2ac5ee3796e027da274fbde84c82173a65868940",
      "function": "deposit(((uint32,uint32,bytes32,uint256,bytes32,uint256,uint256,bytes32,bytes32,uint256,uint256,uint8,bytes),(address,uint256)),bytes)",
      "arguments": [
        "((30110, 30367, 0x00000000000000000000000040153ddfad90c49dbe3f5c9f96f2a5b25ec67461, 1000000, 0x00000000000000000000000000000000000000000000000000000000692f9f74, 1764732292, 100, 0x0000000000000000000000009a8f92a830a5cb89a3816e3d267cb7791c16b04d, 0x000000000000000000000000b8ce59fc3717ada4c02eadf9682a9e934f625ebb, 200000, 300000, 0, 0x), (0x9A8f92a830A5cB89a3816e3D267CB7791c16b04D, 200))",
        "0x564eeb372a7e7e0ddba42927a0c34f2138658d5fb71f8d4752dedf14ab6a406e2230bfbf5054030e3b4af512f29f70d7e92300eb24b17f3f75b8835d0706a9171b"
      ],
      "transaction": {
        "from": "0x9a8f92a830a5cb89a3816e3d267cb7791c16b04d",
        "to": "0x2ac5ee3796e027da274fbde84c82173a65868940",
        "gas": "0xa777f",
        "value": "0x914a7d9d2ca",
        "input": "0xfcc5b1e30000000000000000000000000000000000000000000000000000000000000040000000000000000000000000000000000000000000000000000000000000026000000000000000000000000000000000000000000000000000000000000000600000000000000000000000009a8f92a830a5cb89a3816e3d267cb7791c16b04d00000000000000000000000000000000000000000000000000000000000000c8000000000000000000000000000000000000000000000000000000000000759e000000000000000000000000000000000000000000000000000000000000769f00000000000000000000000040153ddfad90c49dbe3f5c9f96f2a5b25ec6746100000000000000000000000000000000000000000000000000000000000f424000000000000000000000000000000000000000000000000000000000692f9f7400000000000000000000000000000000000000000000000000000000692fad8400000000000000000000000000000000000000000000000000000000000000640000000000000000000000009a8f92a830a5cb89a3816e3d267cb7791c16b04d000000000000000000000000b8ce59fc3717ada4c02eadf9682a9e934f625ebb0000000000000000000000000000000000000000000000000000000000030d4000000000000000000000000000000000000000000000000000000000000493e0000000000000000000000000000000000000000000000000000000000000000000000000000000000000000000000000000000000000000000000000000001a000000000000000000000000000000000000000000000000000000000000000000000000000000000000000000000000000000000000000000000000000000041564eeb372a7e7e0ddba42927a0c34f2138658d5fb71f8d4752dedf14ab6a406e2230bfbf5054030e3b4af512f29f70d7e92300eb24b17f3f75b8835d0706a9171b00000000000000000000000000000000000000000000000000000000000000",
        "nonce": "0x1571",
        "chainId": "0xa4b1"
      },
      "additionalContracts": [],
      "isFixedGasLimit": false
    }
  ],
  "receipts": [
    {
      "status": "0x1",
      "cumulativeGasUsed": "0x9a1069",
      "logs": [
        {
          "address": "0xfd086bc7cd5c481dcc9c85ebe478a1c0b69fcbb9",
          "topics": [
            "0x8c5be1e5ebec7d5bd14f71427d1e84f3dd0314c0f7b2291e5b200ac8c7c3b925",
            "0x0000000000000000000000009a8f92a830a5cb89a3816e3d267cb7791c16b04d",
            "0x0000000000000000000000002ac5ee3796e027da274fbde84c82173a65868940"
          ],
          "data": "0x00000000000000000000000000000000000000000000000000000000000f4240",
          "blockHash": "0x16950265e3ff885b1bd95a316681c3149258e795c5f25ce7775dfadd3156ccaa",
          "blockNumber": "0x183c19cb",
          "blockTimestamp": "0x692f9f7f",
          "transactionHash": "0x727ba90684db5bf8034bf6d8fd2aefae7856cb177e049905e3394606d8641cfe",
          "transactionIndex": "0xa",
          "logIndex": "0x9a",
          "removed": false
        }
      ],
      "logsBloom": "0x00000000000000000000000000000000000000000000800000000000000000000000000000000000000000000000000000000000000400000000000000200000000010000000000000000000000000000000000000000000000040000000000000000000000000000000000000000000000000000000000000000000040000000000000000000000000000000000000000000000000000000000000000000000020000000000000000000000000000000000000000000000000000000000000000008000000000800000000000000000000000000000000000000000000000000011000000000000000000000000000010000000000000000000000000000000",
      "type": "0x2",
      "transactionHash": "0x727ba90684db5bf8034bf6d8fd2aefae7856cb177e049905e3394606d8641cfe",
      "transactionIndex": "0xa",
      "blockHash": "0x16950265e3ff885b1bd95a316681c3149258e795c5f25ce7775dfadd3156ccaa",
      "blockNumber": "0x183c19cb",
      "gasUsed": "0xd148",
      "effectiveGasPrice": "0x10eef60",
      "from": "0x9a8f92a830a5cb89a3816e3d267cb7791c16b04d",
      "to": "0xfd086bc7cd5c481dcc9c85ebe478a1c0b69fcbb9",
      "contractAddress": null,
      "gasUsedForL1": "0x6",
      "l1BlockNumber": "0x16d2449",
      "timeboosted": false
    },
    {
      "status": "0x1",
      "cumulativeGasUsed": "0x7a4bb",
      "logs": [
        {
          "address": "0xfd086bc7cd5c481dcc9c85ebe478a1c0b69fcbb9",
          "topics": [
            "0xddf252ad1be2c89b69c2b068fc378daa952ba7f163c4a11628f55a4df523b3ef",
            "0x0000000000000000000000009a8f92a830a5cb89a3816e3d267cb7791c16b04d",
            "0x0000000000000000000000002ac5ee3796e027da274fbde84c82173a65868940"
          ],
          "data": "0x00000000000000000000000000000000000000000000000000000000000f4240",
          "blockHash": "0x1f757ef809f329acc38148659c99068e7e740de2efde03ee66740667edd394c4",
          "blockNumber": "0x183c19d5",
          "blockTimestamp": "0x692f9f82",
          "transactionHash": "0x3821ab22e999bc5c916ad9e335d03f9844cd02247fe3eeb1a08c686552f54f19",
          "transactionIndex": "0x2",
          "logIndex": "0x1",
          "removed": false
        },
        {
          "address": "0xfd086bc7cd5c481dcc9c85ebe478a1c0b69fcbb9",
          "topics": [
            "0x8c5be1e5ebec7d5bd14f71427d1e84f3dd0314c0f7b2291e5b200ac8c7c3b925",
            "0x0000000000000000000000009a8f92a830a5cb89a3816e3d267cb7791c16b04d",
            "0x0000000000000000000000002ac5ee3796e027da274fbde84c82173a65868940"
          ],
          "data": "0x0000000000000000000000000000000000000000000000000000000000000000",
          "blockHash": "0x1f757ef809f329acc38148659c99068e7e740de2efde03ee66740667edd394c4",
          "blockNumber": "0x183c19d5",
          "blockTimestamp": "0x692f9f82",
          "transactionHash": "0x3821ab22e999bc5c916ad9e335d03f9844cd02247fe3eeb1a08c686552f54f19",
          "transactionIndex": "0x2",
          "logIndex": "0x2",
          "removed": false
        },
        {
          "address": "0xfd086bc7cd5c481dcc9c85ebe478a1c0b69fcbb9",
          "topics": [
            "0x8c5be1e5ebec7d5bd14f71427d1e84f3dd0314c0f7b2291e5b200ac8c7c3b925",
            "0x0000000000000000000000002ac5ee3796e027da274fbde84c82173a65868940",
            "0x00000000000000000000000014e4a1b13bf7f943c8ff7c51fb60fa964a298d92"
          ],
          "data": "0x00000000000000000000000000000000000000000000000000000000000f4240",
          "blockHash": "0x1f757ef809f329acc38148659c99068e7e740de2efde03ee66740667edd394c4",
          "blockNumber": "0x183c19d5",
          "blockTimestamp": "0x692f9f82",
          "transactionHash": "0x3821ab22e999bc5c916ad9e335d03f9844cd02247fe3eeb1a08c686552f54f19",
          "transactionIndex": "0x2",
          "logIndex": "0x3",
          "removed": false
        },
        {
          "address": "0xfd086bc7cd5c481dcc9c85ebe478a1c0b69fcbb9",
          "topics": [
            "0xddf252ad1be2c89b69c2b068fc378daa952ba7f163c4a11628f55a4df523b3ef",
            "0x0000000000000000000000002ac5ee3796e027da274fbde84c82173a65868940",
            "0x0000000000000000000000000000000000000000000000000000000000000000"
          ],
          "data": "0x00000000000000000000000000000000000000000000000000000000000f4240",
          "blockHash": "0x1f757ef809f329acc38148659c99068e7e740de2efde03ee66740667edd394c4",
          "blockNumber": "0x183c19d5",
          "blockTimestamp": "0x692f9f82",
          "transactionHash": "0x3821ab22e999bc5c916ad9e335d03f9844cd02247fe3eeb1a08c686552f54f19",
          "transactionIndex": "0x2",
          "logIndex": "0x4",
          "removed": false
        },
        {
          "address": "0xfd086bc7cd5c481dcc9c85ebe478a1c0b69fcbb9",
          "topics": [
            "0xcc16f5dbb4873280815c1ee09dbd06736cffcc184412cf7a71a0fdb75d397ca5",
            "0x0000000000000000000000002ac5ee3796e027da274fbde84c82173a65868940"
          ],
          "data": "0x00000000000000000000000000000000000000000000000000000000000f4240",
          "blockHash": "0x1f757ef809f329acc38148659c99068e7e740de2efde03ee66740667edd394c4",
          "blockNumber": "0x183c19d5",
          "blockTimestamp": "0x692f9f82",
          "transactionHash": "0x3821ab22e999bc5c916ad9e335d03f9844cd02247fe3eeb1a08c686552f54f19",
          "transactionIndex": "0x2",
          "logIndex": "0x5",
          "removed": false
        },
        {
          "address": "0x975bcd720be66659e3eb3c0e4f1866a3020e493a",
          "topics": ["0x61ed099e74a97a1d7f8bb0952a88ca8b7b8ebd00c126ea04671f92a81213318a"],
          "data": "0x00000000000000000000000031cae3b7fb82d847621859fb1585353c5720660d00000000000000000000000000000000000000000000000000000899318ca136",
          "blockHash": "0x1f757ef809f329acc38148659c99068e7e740de2efde03ee66740667edd394c4",
          "blockNumber": "0x183c19d5",
          "blockTimestamp": "0x692f9f82",
          "transactionHash": "0x3821ab22e999bc5c916ad9e335d03f9844cd02247fe3eeb1a08c686552f54f19",
          "transactionIndex": "0x2",
          "logIndex": "0x6",
          "removed": false
        },
        {
          "address": "0x975bcd720be66659e3eb3c0e4f1866a3020e493a",
          "topics": ["0x07ea52d82345d6e838192107d8fd7123d9c2ec8e916cd0aad13fd2b60db24644"],
          "data": "0x000000000000000000000000000000000000000000000000000000000000006000000000000000000000000000000000000000000000000000000000000000c000000000000000000000000000000000000000000000000000000000000000e000000000000000000000000000000000000000000000000000000000000000020000000000000000000000002f55c492897526677c5b68fb199ea31e2c126416000000000000000000000000a8b8575fa41c305953f519c7d288cd7741727c7b000000000000000000000000000000000000000000000000000000000000000000000000000000000000000000000000000000000000000000000000000000020000000000000000000000000000000000000000000000000000003cd165e0c60000000000000000000000000000000000000000000000000000003ea4e750ce",
          "blockHash": "0x1f757ef809f329acc38148659c99068e7e740de2efde03ee66740667edd394c4",
          "blockNumber": "0x183c19d5",
          "blockTimestamp": "0x692f9f82",
          "transactionHash": "0x3821ab22e999bc5c916ad9e335d03f9844cd02247fe3eeb1a08c686552f54f19",
          "transactionIndex": "0x2",
          "logIndex": "0x7",
          "removed": false
        },
        {
          "address": "0x1a44076050125825900e736c501f859c50fe728c",
          "topics": ["0x1ab700d4ced0c005b164c0f789fd09fcbb0156d4c2041b8a3bfbcd961cd1567f"],
          "data": "0x00000000000000000000000000000000000000000000000000000000000000600000000000000000000000000000000000000000000000000000000000000260000000000000000000000000975bcd720be66659e3eb3c0e4f1866a3020e493a00000000000000000000000000000000000000000000000000000000000001d90100000000000062b40000759e00000000000000000000000014e4a1b13bf7f943c8ff7c51fb60fa964a298d920000769f000000000000000000000000904861a24f30ec96ea7cfc3be9ea4b476d237e989333579858e48aaa72df628652842a36f63b52733211b4d79dcad038b676454600000000000000000000000040153ddfad90c49dbe3f5c9f96f2a5b25ec6746100000000000f42400000000000000000000000002ac5ee3796e027da274fbde84c82173a6586894000000000000000000000000000000000000000000000000000000000692f9f7400000000000000000000000000000000000000000000000000000000692fad84000000000000000000000000000000000000000000000000000000000000006400000000000000000000000000000000000000000000000000000000000000c80000000000000000000000009a8f92a830a5cb89a3816e3d267cb7791c16b04d000000000000000000000000b8ce59fc3717ada4c02eadf9682a9e934f625ebb000000000000000000000000000000000000000000000000000000000000000000000000000000000000000000000000000000000000000000000000000001000000000000000000000000000000000000000000000000000000000000000000000000000000000000000000000000000000000000000000000000000000000000000000000056000301001101000000000000000000000000000186a0010013030000000000000000000000000000000186a00100110100000000000000000000000000030d40010013030000000000000000000000000000000493e000000000000000000000",
          "blockHash": "0x1f757ef809f329acc38148659c99068e7e740de2efde03ee66740667edd394c4",
          "blockNumber": "0x183c19d5",
          "blockTimestamp": "0x692f9f82",
          "transactionHash": "0x3821ab22e999bc5c916ad9e335d03f9844cd02247fe3eeb1a08c686552f54f19",
          "transactionIndex": "0x2",
          "logIndex": "0x8",
          "removed": false
        },
        {
          "address": "0x14e4a1b13bf7f943c8ff7c51fb60fa964a298d92",
          "topics": [
            "0x85496b760a4b7f8d66384b9df21b381f5d1b1e79f229a47aaf4c232edc2fe59a",
            "0x9333579858e48aaa72df628652842a36f63b52733211b4d79dcad038b6764546",
            "0x0000000000000000000000002ac5ee3796e027da274fbde84c82173a65868940"
          ],
          "data": "0x000000000000000000000000000000000000000000000000000000000000769f00000000000000000000000000000000000000000000000000000000000f424000000000000000000000000000000000000000000000000000000000000f4240",
          "blockHash": "0x1f757ef809f329acc38148659c99068e7e740de2efde03ee66740667edd394c4",
          "blockNumber": "0x183c19d5",
          "blockTimestamp": "0x692f9f82",
          "transactionHash": "0x3821ab22e999bc5c916ad9e335d03f9844cd02247fe3eeb1a08c686552f54f19",
          "transactionIndex": "0x2",
          "logIndex": "0x9",
          "removed": false
        },
        {
          "address": "0x2ac5ee3796e027da274fbde84c82173a65868940",
          "topics": [
            "0x8fb515a2e89f5acfca1124e69e331c2cded0ca216b578ba531720f6841139dbf",
            "0x00000000000000000000000000000000000000000000000000000000692f9f74",
            "0x0000000000000000000000009a8f92a830a5cb89a3816e3d267cb7791c16b04d",
            "0x0000000000000000000000009a8f92a830a5cb89a3816e3d267cb7791c16b04d"
          ],
          "data": "0x00000000000000000000000040153ddfad90c49dbe3f5c9f96f2a5b25ec6746100000000000000000000000000000000000000000000000000000000692fad84000000000000000000000000000000000000000000000000000000000000006400000000000000000000000000000000000000000000000000000000000000c8000000000000000000000000b8ce59fc3717ada4c02eadf9682a9e934f625ebb00000000000000000000000000000000000000000000000000000000000000c00000000000000000000000000000000000000000000000000000000000000041564eeb372a7e7e0ddba42927a0c34f2138658d5fb71f8d4752dedf14ab6a406e2230bfbf5054030e3b4af512f29f70d7e92300eb24b17f3f75b8835d0706a9171b00000000000000000000000000000000000000000000000000000000000000",
          "blockHash": "0x1f757ef809f329acc38148659c99068e7e740de2efde03ee66740667edd394c4",
          "blockNumber": "0x183c19d5",
          "blockTimestamp": "0x692f9f82",
          "transactionHash": "0x3821ab22e999bc5c916ad9e335d03f9844cd02247fe3eeb1a08c686552f54f19",
          "transactionIndex": "0x2",
          "logIndex": "0xa",
          "removed": false
        }
      ],
      "logsBloom": "0x000000000000000000000000000000000080000000008010000000000010000000000000000000000000000002000000000000000004400000000000002004000000120000001000000000180048000000000000000000000000400000000000000000000208000080000000000008000820000000100000000000100400000000000000000000000000000a00000000000000000000000000000000002000000a0000008000000000100000100000020000000000400000400440000000008000008002000000800000000080000000000000000000000000001000000020000011040000010000000000000000002010000000018000000080000080000000",
      "type": "0x2",
      "transactionHash": "0x3821ab22e999bc5c916ad9e335d03f9844cd02247fe3eeb1a08c686552f54f19",
      "transactionIndex": "0x2",
      "blockHash": "0x1f757ef809f329acc38148659c99068e7e740de2efde03ee66740667edd394c4",
      "blockNumber": "0x183c19d5",
      "gasUsed": "0x72833",
      "effectiveGasPrice": "0x113ecb8",
      "from": "0x9a8f92a830a5cb89a3816e3d267cb7791c16b04d",
      "to": "0x2ac5ee3796e027da274fbde84c82173a65868940",
      "contractAddress": null,
      "gasUsedForL1": "0x10",
      "l1BlockNumber": "0x16d2449",
      "timeboosted": false
    }
  ],
  "libraries": [],
  "pending": [],
  "returns": {},
  "timestamp": 1764728706358,
  "chain": 42161,
  "commit": "5d9f89e2"
}
