{
  "transactions": [
    {
      "hash": "0xd8e82e97487ef03f024e9caf438a01c228532329972698869a8d22086db8faba",
      "transactionType": "CALL",
      "contractName": null,
      "contractAddress": "0xfd086bc7cd5c481dcc9c85ebe478a1c0b69fcbb9",
      "function": "approve(address,uint256)",
      "arguments": ["0x1235Ac1010FeeC8ae22744f323416cBBE37feDbE", "1005000"],
      "transaction": {
        "from": "0x9a8f92a830a5cb89a3816e3d267cb7791c16b04d",
        "to": "0xfd086bc7cd5c481dcc9c85ebe478a1c0b69fcbb9",
        "gas": "0x1163b",
        "value": "0x0",
        "input": "0x095ea7b30000000000000000000000001235ac1010feec8ae22744f323416cbbe37fedbe00000000000000000000000000000000000000000000000000000000000f55c8",
        "nonce": "0x117b",
        "chainId": "0xa4b1"
      },
      "additionalContracts": [],
      "isFixedGasLimit": false
    },
    {
      "hash": "0xda65b0096a4478fab54e18850059e27bd4b9a21c918f2660af1e29e5f3e04663",
      "transactionType": "CALL",
      "contractName": "SponsoredOFTSrcPeriphery",
      "contractAddress": "0x1235ac1010feec8ae22744f323416cbbe37fedbe",
      "function": "deposit(((uint32,uint32,bytes32,uint256,bytes32,uint256,uint256,bytes32,bytes32,uint256,uint256,uint8,bytes),(address,uint256)),bytes)",
      "arguments": [
        "((30110, 30367, 0x0000000000000000000000002bef20d17a17f6903017d27d1a35cc9dc72b0888, 1005000, 0x0000000000000000000000000000000000000000000000000000000069041bd4, 1761880548, 100, 0x0000000000000000000000009a8f92a830a5cb89a3816e3d267cb7791c16b04d, 0x000000000000000000000000b8ce59fc3717ada4c02eadf9682a9e934f625ebb, 200000, 300000, 0, 0x), (0x9A8f92a830A5cB89a3816e3D267CB7791c16b04D, 50))",
        "0x7032152570116c683127d523839a2df043aad0b8df7fa0716f74d45ad31b1f8f51aa85057013b3ab32af5a2d74083f320bc29a3a50341a6a74a57c6e18a8cda71b"
      ],
      "transaction": {
        "from": "0x9a8f92a830a5cb89a3816e3d267cb7791c16b04d",
        "to": "0x1235ac1010feec8ae22744f323416cbbe37fedbe",
        "gas": "0x985ee",
        "value": "0x6137d8be3ed",
        "input": "0xfcc5b1e30000000000000000000000000000000000000000000000000000000000000040000000000000000000000000000000000000000000000000000000000000026000000000000000000000000000000000000000000000000000000000000000600000000000000000000000009a8f92a830a5cb89a3816e3d267cb7791c16b04d0000000000000000000000000000000000000000000000000000000000000032000000000000000000000000000000000000000000000000000000000000759e000000000000000000000000000000000000000000000000000000000000769f0000000000000000000000002bef20d17a17f6903017d27d1a35cc9dc72b088800000000000000000000000000000000000000000000000000000000000f55c80000000000000000000000000000000000000000000000000000000069041bd400000000000000000000000000000000000000000000000000000000690429e400000000000000000000000000000000000000000000000000000000000000640000000000000000000000009a8f92a830a5cb89a3816e3d267cb7791c16b04d000000000000000000000000b8ce59fc3717ada4c02eadf9682a9e934f625ebb0000000000000000000000000000000000000000000000000000000000030d4000000000000000000000000000000000000000000000000000000000000493e0000000000000000000000000000000000000000000000000000000000000000000000000000000000000000000000000000000000000000000000000000001a0000000000000000000000000000000000000000000000000000000000000000000000000000000000000000000000000000000000000000000000000000000417032152570116c683127d523839a2df043aad0b8df7fa0716f74d45ad31b1f8f51aa85057013b3ab32af5a2d74083f320bc29a3a50341a6a74a57c6e18a8cda71b00000000000000000000000000000000000000000000000000000000000000",
        "nonce": "0x117c",
        "chainId": "0xa4b1"
      },
      "additionalContracts": [],
      "isFixedGasLimit": false
    }
  ],
  "receipts": [
    {
      "status": "0x1",
      "cumulativeGasUsed": "0x322ef",
      "logs": [
        {
          "address": "0xfd086bc7cd5c481dcc9c85ebe478a1c0b69fcbb9",
          "topics": [
            "0x8c5be1e5ebec7d5bd14f71427d1e84f3dd0314c0f7b2291e5b200ac8c7c3b925",
            "0x0000000000000000000000009a8f92a830a5cb89a3816e3d267cb7791c16b04d",
            "0x0000000000000000000000001235ac1010feec8ae22744f323416cbbe37fedbe"
          ],
          "data": "0x00000000000000000000000000000000000000000000000000000000000f55c8",
          "blockHash": "0x0f2fe5645d49ebb953edd53b498e9c472f62a93587eec035041fc01d697e5a7f",
          "blockNumber": "0x178de441",
          "transactionHash": "0xd8e82e97487ef03f024e9caf438a01c228532329972698869a8d22086db8faba",
          "transactionIndex": "0x4",
          "logIndex": "0x2",
          "removed": false
        }
      ],
      "logsBloom": "0x00000000000000000000000000000000000000000000000000000000000000000000000000000000000000000000000000000000000000000000000000210000000010000000000000000000000000000000000000000000000000000000000000000000000000000000000000000000000000000000000000000000040000000000000000000000000000000000000000000000000000800000000000002000020000000000000000000000000000000000000000000000000000000000000000008000000000800000000000000000000000000000000000000000000000000011000000000000000000000000000010000000000000000000000000000000",
      "type": "0x2",
      "transactionHash": "0xd8e82e97487ef03f024e9caf438a01c228532329972698869a8d22086db8faba",
      "transactionIndex": "0x4",
      "blockHash": "0x0f2fe5645d49ebb953edd53b498e9c472f62a93587eec035041fc01d697e5a7f",
      "blockNumber": "0x178de441",
      "gasUsed": "0xd268",
      "effectiveGasPrice": "0xe22e58",
      "from": "0x9a8f92a830a5cb89a3816e3d267cb7791c16b04d",
      "to": "0xfd086bc7cd5c481dcc9c85ebe478a1c0b69fcbb9",
      "contractAddress": null,
      "gasUsedForL1": "0x126",
      "l1BlockNumber": "0x1698bdf",
      "timeboosted": false
    },
    {
      "status": "0x1",
      "cumulativeGasUsed": "0x5cb5f3",
      "logs": [
        {
          "address": "0xfd086bc7cd5c481dcc9c85ebe478a1c0b69fcbb9",
          "topics": [
            "0xddf252ad1be2c89b69c2b068fc378daa952ba7f163c4a11628f55a4df523b3ef",
            "0x0000000000000000000000009a8f92a830a5cb89a3816e3d267cb7791c16b04d",
            "0x0000000000000000000000001235ac1010feec8ae22744f323416cbbe37fedbe"
          ],
          "data": "0x00000000000000000000000000000000000000000000000000000000000f55c8",
          "blockHash": "0xca97e6a2e52159920884190a2aceb9874f4cb70d36dc040c75ef07765ed22e22",
          "blockNumber": "0x178de446",
          "transactionHash": "0xda65b0096a4478fab54e18850059e27bd4b9a21c918f2660af1e29e5f3e04663",
          "transactionIndex": "0xc",
          "logIndex": "0x2c",
          "removed": false
        },
        {
          "address": "0xfd086bc7cd5c481dcc9c85ebe478a1c0b69fcbb9",
          "topics": [
            "0x8c5be1e5ebec7d5bd14f71427d1e84f3dd0314c0f7b2291e5b200ac8c7c3b925",
            "0x0000000000000000000000009a8f92a830a5cb89a3816e3d267cb7791c16b04d",
            "0x0000000000000000000000001235ac1010feec8ae22744f323416cbbe37fedbe"
          ],
          "data": "0x0000000000000000000000000000000000000000000000000000000000000000",
          "blockHash": "0xca97e6a2e52159920884190a2aceb9874f4cb70d36dc040c75ef07765ed22e22",
          "blockNumber": "0x178de446",
          "transactionHash": "0xda65b0096a4478fab54e18850059e27bd4b9a21c918f2660af1e29e5f3e04663",
          "transactionIndex": "0xc",
          "logIndex": "0x2d",
          "removed": false
        },
        {
          "address": "0xfd086bc7cd5c481dcc9c85ebe478a1c0b69fcbb9",
          "topics": [
            "0x8c5be1e5ebec7d5bd14f71427d1e84f3dd0314c0f7b2291e5b200ac8c7c3b925",
            "0x0000000000000000000000001235ac1010feec8ae22744f323416cbbe37fedbe",
            "0x00000000000000000000000014e4a1b13bf7f943c8ff7c51fb60fa964a298d92"
          ],
          "data": "0x00000000000000000000000000000000000000000000000000000000000f55c8",
          "blockHash": "0xca97e6a2e52159920884190a2aceb9874f4cb70d36dc040c75ef07765ed22e22",
          "blockNumber": "0x178de446",
          "transactionHash": "0xda65b0096a4478fab54e18850059e27bd4b9a21c918f2660af1e29e5f3e04663",
          "transactionIndex": "0xc",
          "logIndex": "0x2e",
          "removed": false
        },
        {
          "address": "0xfd086bc7cd5c481dcc9c85ebe478a1c0b69fcbb9",
          "topics": [
            "0xddf252ad1be2c89b69c2b068fc378daa952ba7f163c4a11628f55a4df523b3ef",
            "0x0000000000000000000000001235ac1010feec8ae22744f323416cbbe37fedbe",
            "0x0000000000000000000000000000000000000000000000000000000000000000"
          ],
          "data": "0x00000000000000000000000000000000000000000000000000000000000f55c8",
          "blockHash": "0xca97e6a2e52159920884190a2aceb9874f4cb70d36dc040c75ef07765ed22e22",
          "blockNumber": "0x178de446",
          "transactionHash": "0xda65b0096a4478fab54e18850059e27bd4b9a21c918f2660af1e29e5f3e04663",
          "transactionIndex": "0xc",
          "logIndex": "0x2f",
          "removed": false
        },
        {
          "address": "0xfd086bc7cd5c481dcc9c85ebe478a1c0b69fcbb9",
          "topics": [
            "0xcc16f5dbb4873280815c1ee09dbd06736cffcc184412cf7a71a0fdb75d397ca5",
            "0x0000000000000000000000001235ac1010feec8ae22744f323416cbbe37fedbe"
          ],
          "data": "0x00000000000000000000000000000000000000000000000000000000000f55c8",
          "blockHash": "0xca97e6a2e52159920884190a2aceb9874f4cb70d36dc040c75ef07765ed22e22",
          "blockNumber": "0x178de446",
          "transactionHash": "0xda65b0096a4478fab54e18850059e27bd4b9a21c918f2660af1e29e5f3e04663",
          "transactionIndex": "0xc",
          "logIndex": "0x30",
          "removed": false
        },
        {
          "address": "0x975bcd720be66659e3eb3c0e4f1866a3020e493a",
          "topics": ["0x61ed099e74a97a1d7f8bb0952a88ca8b7b8ebd00c126ea04671f92a81213318a"],
          "data": "0x00000000000000000000000031cae3b7fb82d847621859fb1585353c5720660d000000000000000000000000000000000000000000000000000005d38ddd4dd0",
          "blockHash": "0xca97e6a2e52159920884190a2aceb9874f4cb70d36dc040c75ef07765ed22e22",
          "blockNumber": "0x178de446",
          "transactionHash": "0xda65b0096a4478fab54e18850059e27bd4b9a21c918f2660af1e29e5f3e04663",
          "transactionIndex": "0xc",
          "logIndex": "0x31",
          "removed": false
        },
        {
          "address": "0x975bcd720be66659e3eb3c0e4f1866a3020e493a",
          "topics": ["0x07ea52d82345d6e838192107d8fd7123d9c2ec8e916cd0aad13fd2b60db24644"],
          "data": "0x000000000000000000000000000000000000000000000000000000000000006000000000000000000000000000000000000000000000000000000000000000c000000000000000000000000000000000000000000000000000000000000000e000000000000000000000000000000000000000000000000000000000000000020000000000000000000000002f55c492897526677c5b68fb199ea31e2c126416000000000000000000000000a8b8575fa41c305953f519c7d288cd7741727c7b000000000000000000000000000000000000000000000000000000000000000000000000000000000000000000000000000000000000000000000000000000020000000000000000000000000000000000000000000000000000001f7eca19070000000000000000000000000000000000000000000000000000002070e47d16",
          "blockHash": "0xca97e6a2e52159920884190a2aceb9874f4cb70d36dc040c75ef07765ed22e22",
          "blockNumber": "0x178de446",
          "transactionHash": "0xda65b0096a4478fab54e18850059e27bd4b9a21c918f2660af1e29e5f3e04663",
          "transactionIndex": "0xc",
          "logIndex": "0x32",
          "removed": false
        },
        {
          "address": "0x1a44076050125825900e736c501f859c50fe728c",
          "topics": ["0x1ab700d4ced0c005b164c0f789fd09fcbb0156d4c2041b8a3bfbcd961cd1567f"],
          "data": "0x00000000000000000000000000000000000000000000000000000000000000600000000000000000000000000000000000000000000000000000000000000260000000000000000000000000975bcd720be66659e3eb3c0e4f1866a3020e493a00000000000000000000000000000000000000000000000000000000000001d90100000000000058bb0000759e00000000000000000000000014e4a1b13bf7f943c8ff7c51fb60fa964a298d920000769f000000000000000000000000904861a24f30ec96ea7cfc3be9ea4b476d237e985d7b95d88ca3760c8e18b897a16e34a52544087f04956a7f73dd56eccb92ce210000000000000000000000002bef20d17a17f6903017d27d1a35cc9dc72b088800000000000f55c80000000000000000000000001235ac1010feec8ae22744f323416cbbe37fedbe0000000000000000000000000000000000000000000000000000000069041bd400000000000000000000000000000000000000000000000000000000690429e4000000000000000000000000000000000000000000000000000000000000006400000000000000000000000000000000000000000000000000000000000000320000000000000000000000009a8f92a830a5cb89a3816e3d267cb7791c16b04d000000000000000000000000b8ce59fc3717ada4c02eadf9682a9e934f625ebb000000000000000000000000000000000000000000000000000000000000000000000000000000000000000000000000000000000000000000000000000001000000000000000000000000000000000000000000000000000000000000000000000000000000000000000000000000000000000000000000000000000000000000000000000056000301001101000000000000000000000000000186a0010013030000000000000000000000000000000186a00100110100000000000000000000000000030d40010013030000000000000000000000000000000493e000000000000000000000",
          "blockHash": "0xca97e6a2e52159920884190a2aceb9874f4cb70d36dc040c75ef07765ed22e22",
          "blockNumber": "0x178de446",
          "transactionHash": "0xda65b0096a4478fab54e18850059e27bd4b9a21c918f2660af1e29e5f3e04663",
          "transactionIndex": "0xc",
          "logIndex": "0x33",
          "removed": false
        },
        {
          "address": "0x14e4a1b13bf7f943c8ff7c51fb60fa964a298d92",
          "topics": [
            "0x85496b760a4b7f8d66384b9df21b381f5d1b1e79f229a47aaf4c232edc2fe59a",
            "0x5d7b95d88ca3760c8e18b897a16e34a52544087f04956a7f73dd56eccb92ce21",
            "0x0000000000000000000000001235ac1010feec8ae22744f323416cbbe37fedbe"
          ],
          "data": "0x000000000000000000000000000000000000000000000000000000000000769f00000000000000000000000000000000000000000000000000000000000f55c800000000000000000000000000000000000000000000000000000000000f55c8",
          "blockHash": "0xca97e6a2e52159920884190a2aceb9874f4cb70d36dc040c75ef07765ed22e22",
          "blockNumber": "0x178de446",
          "transactionHash": "0xda65b0096a4478fab54e18850059e27bd4b9a21c918f2660af1e29e5f3e04663",
          "transactionIndex": "0xc",
          "logIndex": "0x34",
          "removed": false
        },
        {
          "address": "0x1235ac1010feec8ae22744f323416cbbe37fedbe",
          "topics": [
            "0x8fb515a2e89f5acfca1124e69e331c2cded0ca216b578ba531720f6841139dbf",
            "0x0000000000000000000000000000000000000000000000000000000069041bd4",
            "0x0000000000000000000000009a8f92a830a5cb89a3816e3d267cb7791c16b04d",
            "0x0000000000000000000000009a8f92a830a5cb89a3816e3d267cb7791c16b04d"
          ],
          "data": "0x0000000000000000000000002bef20d17a17f6903017d27d1a35cc9dc72b088800000000000000000000000000000000000000000000000000000000690429e400000000000000000000000000000000000000000000000000000000000000640000000000000000000000000000000000000000000000000000000000000032000000000000000000000000b8ce59fc3717ada4c02eadf9682a9e934f625ebb00000000000000000000000000000000000000000000000000000000000000c000000000000000000000000000000000000000000000000000000000000000417032152570116c683127d523839a2df043aad0b8df7fa0716f74d45ad31b1f8f51aa85057013b3ab32af5a2d74083f320bc29a3a50341a6a74a57c6e18a8cda71b00000000000000000000000000000000000000000000000000000000000000",
          "blockHash": "0xca97e6a2e52159920884190a2aceb9874f4cb70d36dc040c75ef07765ed22e22",
          "blockNumber": "0x178de446",
          "transactionHash": "0xda65b0096a4478fab54e18850059e27bd4b9a21c918f2660af1e29e5f3e04663",
          "transactionIndex": "0xc",
          "logIndex": "0x35",
          "removed": false
        }
      ],
      "logsBloom": "0x00000000000100000000000000000000008000000000001000000000001048000000000000000000000000000200000000000000000440000000000000210400000012000000100000000018000000000000000000000000000000000800000000000000020810008000000000000800080000000010000000000010040000040000000000000000000000080020000000000000000000800000000000202000020000008000000000100000000000020000000000400000400440000000008000008002000000800000000080000000000000000000000000002000000020000011040000000000000000000000202010000000018000000000000080000000",
      "type": "0x2",
      "transactionHash": "0xda65b0096a4478fab54e18850059e27bd4b9a21c918f2660af1e29e5f3e04663",
      "transactionIndex": "0xc",
      "blockHash": "0xca97e6a2e52159920884190a2aceb9874f4cb70d36dc040c75ef07765ed22e22",
      "blockNumber": "0x178de446",
      "gasUsed": "0x6e7db",
      "effectiveGasPrice": "0xe28c18",
      "from": "0x9a8f92a830a5cb89a3816e3d267cb7791c16b04d",
      "to": "0x1235ac1010feec8ae22744f323416cbbe37fedbe",
      "contractAddress": null,
      "gasUsedForL1": "0x2d6",
      "l1BlockNumber": "0x1698bdf",
      "timeboosted": false
    }
  ],
  "libraries": [],
  "pending": [],
  "returns": {},
  "timestamp": 1761876992312,
  "chain": 42161,
  "commit": "7d9b7f5a"
}
