{
  "transactions": [
    {
      "hash": "0xa7648589f7ae58167bd8af976a9906631bbe32593d81f2dc64f815f69ebaefc9",
      "transactionType": "CALL",
      "contractName": null,
      "contractAddress": "0xfd086bc7cd5c481dcc9c85ebe478a1c0b69fcbb9",
      "function": "approve(address,uint256)",
      "arguments": ["0x2ac5Ee3796E027dA274fbDe84c82173a65868940", "1002340"],
      "transaction": {
        "from": "0x9a8f92a830a5cb89a3816e3d267cb7791c16b04d",
        "to": "0xfd086bc7cd5c481dcc9c85ebe478a1c0b69fcbb9",
        "gas": "0x11412",
        "value": "0x0",
        "input": "0x095ea7b30000000000000000000000002ac5ee3796e027da274fbde84c82173a6586894000000000000000000000000000000000000000000000000000000000000f4b64",
        "nonce": "0x16c5",
        "chainId": "0xa4b1"
      },
      "additionalContracts": [],
      "isFixedGasLimit": false
    },
    {
      "hash": "0x6f3410b76c0e8d59d722cb7b60ec5ac54a4b1a1e17058486471a9fc187b36a1b",
      "transactionType": "CALL",
      "contractName": "SponsoredOFTSrcPeriphery",
      "contractAddress": "0x2ac5ee3796e027da274fbde84c82173a65868940",
      "function": "deposit(((uint32,uint32,bytes32,uint256,bytes32,uint256,uint256,bytes32,bytes32,uint256,uint256,uint8,bytes),(address,uint256)),bytes)",
      "arguments": [
        "((30110, 30367, 0x000000000000000000000000c8786d517b4e224bb43985a38dbef8588d7354cd, 1002340, 0x000000000000000000000000000000000000000000000000000000006938943a, 1765319242, 0, 0x0000000000000000000000009a8f92a830a5cb89a3816e3d267cb7791c16b04d, 0x000000000000000000000000b8ce59fc3717ada4c02eadf9682a9e934f625ebb, 200000, 300000, 0, 0x), (0x9A8f92a830A5cB89a3816e3D267CB7791c16b04D, 200))",
        "0x632b37d27f7c52864e52a1276ceaba0b9611f59bb6461338956ea52e70fa637a149e0ee87366f0c8bbcb945df48133afb028009c3b1ffb894c51d16f32ed05d01c"
      ],
      "transaction": {
        "from": "0x9a8f92a830a5cb89a3816e3d267cb7791c16b04d",
        "to": "0x2ac5ee3796e027da274fbde84c82173a65868940",
        "gas": "0xa15bd",
        "value": "0x68ec76633b8",
        "input": "0xfcc5b1e30000000000000000000000000000000000000000000000000000000000000040000000000000000000000000000000000000000000000000000000000000026000000000000000000000000000000000000000000000000000000000000000600000000000000000000000009a8f92a830a5cb89a3816e3d267cb7791c16b04d00000000000000000000000000000000000000000000000000000000000000c8000000000000000000000000000000000000000000000000000000000000759e000000000000000000000000000000000000000000000000000000000000769f000000000000000000000000c8786d517b4e224bb43985a38dbef8588d7354cd00000000000000000000000000000000000000000000000000000000000f4b64000000000000000000000000000000000000000000000000000000006938943a000000000000000000000000000000000000000000000000000000006938a24a00000000000000000000000000000000000000000000000000000000000000000000000000000000000000009a8f92a830a5cb89a3816e3d267cb7791c16b04d000000000000000000000000b8ce59fc3717ada4c02eadf9682a9e934f625ebb0000000000000000000000000000000000000000000000000000000000030d4000000000000000000000000000000000000000000000000000000000000493e0000000000000000000000000000000000000000000000000000000000000000000000000000000000000000000000000000000000000000000000000000001a000000000000000000000000000000000000000000000000000000000000000000000000000000000000000000000000000000000000000000000000000000041632b37d27f7c52864e52a1276ceaba0b9611f59bb6461338956ea52e70fa637a149e0ee87366f0c8bbcb945df48133afb028009c3b1ffb894c51d16f32ed05d01c00000000000000000000000000000000000000000000000000000000000000",
        "nonce": "0x16c6",
        "chainId": "0xa4b1"
      },
      "additionalContracts": [],
      "isFixedGasLimit": false
    }
  ],
  "receipts": [
    {
      "status": "0x1",
      "cumulativeGasUsed": "0xb038a",
      "logs": [
        {
          "address": "0xfd086bc7cd5c481dcc9c85ebe478a1c0b69fcbb9",
          "topics": [
            "0x8c5be1e5ebec7d5bd14f71427d1e84f3dd0314c0f7b2291e5b200ac8c7c3b925",
            "0x0000000000000000000000009a8f92a830a5cb89a3816e3d267cb7791c16b04d",
            "0x0000000000000000000000002ac5ee3796e027da274fbde84c82173a65868940"
          ],
          "data": "0x00000000000000000000000000000000000000000000000000000000000f4b64",
          "blockHash": "0xf7a098978d45bef44d0a6c43c2e03633a3244bcf00c1f7e56c7d5f3bd66d1a8d",
          "blockNumber": "0x18600340",
          "blockTimestamp": "0x69389441",
          "transactionHash": "0xa7648589f7ae58167bd8af976a9906631bbe32593d81f2dc64f815f69ebaefc9",
          "transactionIndex": "0x3",
          "logIndex": "0xd",
          "removed": false
        }
      ],
      "logsBloom": "0x00000000000000000000000000000000000000000000800000000000000000000000000000000000000000000000000000000000000400000000000000200000000010000000000000000000000000000000000000000000000040000000000000000000000000000000000000000000000000000000000000000000040000000000000000000000000000000000000000000000000000000000000000000000020000000000000000000000000000000000000000000000000000000000000000008000000000800000000000000000000000000000000000000000000000000011000000000000000000000000000010000000000000000000000000000000",
      "type": "0x2",
      "transactionHash": "0xa7648589f7ae58167bd8af976a9906631bbe32593d81f2dc64f815f69ebaefc9",
      "transactionIndex": "0x3",
      "blockHash": "0xf7a098978d45bef44d0a6c43c2e03633a3244bcf00c1f7e56c7d5f3bd66d1a8d",
      "blockNumber": "0x18600340",
      "gasUsed": "0xd142",
      "effectiveGasPrice": "0x989680",
      "from": "0x9a8f92a830a5cb89a3816e3d267cb7791c16b04d",
      "to": "0xfd086bc7cd5c481dcc9c85ebe478a1c0b69fcbb9",
      "contractAddress": null,
      "gasUsedForL1": "0x0",
      "l1BlockNumber": "0x16ddf9a",
      "timeboosted": false
    },
    {
      "status": "0x1",
      "cumulativeGasUsed": "0x82148",
      "logs": [
        {
          "address": "0xfd086bc7cd5c481dcc9c85ebe478a1c0b69fcbb9",
          "topics": [
            "0xddf252ad1be2c89b69c2b068fc378daa952ba7f163c4a11628f55a4df523b3ef",
            "0x0000000000000000000000009a8f92a830a5cb89a3816e3d267cb7791c16b04d",
            "0x0000000000000000000000002ac5ee3796e027da274fbde84c82173a65868940"
          ],
          "data": "0x00000000000000000000000000000000000000000000000000000000000f4b64",
          "blockHash": "0xd62677f1fb1e0605e2da68cf835b85c8bf5b3fef1c5f2f03caa74ddb666b681c",
          "blockNumber": "0x18600342",
          "blockTimestamp": "0x69389442",
          "transactionHash": "0x6f3410b76c0e8d59d722cb7b60ec5ac54a4b1a1e17058486471a9fc187b36a1b",
          "transactionIndex": "0x2",
          "logIndex": "0x0",
          "removed": false
        },
        {
          "address": "0xfd086bc7cd5c481dcc9c85ebe478a1c0b69fcbb9",
          "topics": [
            "0x8c5be1e5ebec7d5bd14f71427d1e84f3dd0314c0f7b2291e5b200ac8c7c3b925",
            "0x0000000000000000000000009a8f92a830a5cb89a3816e3d267cb7791c16b04d",
            "0x0000000000000000000000002ac5ee3796e027da274fbde84c82173a65868940"
          ],
          "data": "0x0000000000000000000000000000000000000000000000000000000000000000",
          "blockHash": "0xd62677f1fb1e0605e2da68cf835b85c8bf5b3fef1c5f2f03caa74ddb666b681c",
          "blockNumber": "0x18600342",
          "blockTimestamp": "0x69389442",
          "transactionHash": "0x6f3410b76c0e8d59d722cb7b60ec5ac54a4b1a1e17058486471a9fc187b36a1b",
          "transactionIndex": "0x2",
          "logIndex": "0x1",
          "removed": false
        },
        {
          "address": "0xfd086bc7cd5c481dcc9c85ebe478a1c0b69fcbb9",
          "topics": [
            "0x8c5be1e5ebec7d5bd14f71427d1e84f3dd0314c0f7b2291e5b200ac8c7c3b925",
            "0x0000000000000000000000002ac5ee3796e027da274fbde84c82173a65868940",
            "0x00000000000000000000000014e4a1b13bf7f943c8ff7c51fb60fa964a298d92"
          ],
          "data": "0x00000000000000000000000000000000000000000000000000000000000f4b64",
          "blockHash": "0xd62677f1fb1e0605e2da68cf835b85c8bf5b3fef1c5f2f03caa74ddb666b681c",
          "blockNumber": "0x18600342",
          "blockTimestamp": "0x69389442",
          "transactionHash": "0x6f3410b76c0e8d59d722cb7b60ec5ac54a4b1a1e17058486471a9fc187b36a1b",
          "transactionIndex": "0x2",
          "logIndex": "0x2",
          "removed": false
        },
        {
          "address": "0xfd086bc7cd5c481dcc9c85ebe478a1c0b69fcbb9",
          "topics": [
            "0xddf252ad1be2c89b69c2b068fc378daa952ba7f163c4a11628f55a4df523b3ef",
            "0x0000000000000000000000002ac5ee3796e027da274fbde84c82173a65868940",
            "0x0000000000000000000000000000000000000000000000000000000000000000"
          ],
          "data": "0x00000000000000000000000000000000000000000000000000000000000f4b64",
          "blockHash": "0xd62677f1fb1e0605e2da68cf835b85c8bf5b3fef1c5f2f03caa74ddb666b681c",
          "blockNumber": "0x18600342",
          "blockTimestamp": "0x69389442",
          "transactionHash": "0x6f3410b76c0e8d59d722cb7b60ec5ac54a4b1a1e17058486471a9fc187b36a1b",
          "transactionIndex": "0x2",
          "logIndex": "0x3",
          "removed": false
        },
        {
          "address": "0xfd086bc7cd5c481dcc9c85ebe478a1c0b69fcbb9",
          "topics": [
            "0xcc16f5dbb4873280815c1ee09dbd06736cffcc184412cf7a71a0fdb75d397ca5",
            "0x0000000000000000000000002ac5ee3796e027da274fbde84c82173a65868940"
          ],
          "data": "0x00000000000000000000000000000000000000000000000000000000000f4b64",
          "blockHash": "0xd62677f1fb1e0605e2da68cf835b85c8bf5b3fef1c5f2f03caa74ddb666b681c",
          "blockNumber": "0x18600342",
          "blockTimestamp": "0x69389442",
          "transactionHash": "0x6f3410b76c0e8d59d722cb7b60ec5ac54a4b1a1e17058486471a9fc187b36a1b",
          "transactionIndex": "0x2",
          "logIndex": "0x4",
          "removed": false
        },
        {
          "address": "0x975bcd720be66659e3eb3c0e4f1866a3020e493a",
          "topics": ["0x61ed099e74a97a1d7f8bb0952a88ca8b7b8ebd00c126ea04671f92a81213318a"],
          "data": "0x00000000000000000000000031cae3b7fb82d847621859fb1585353c5720660d000000000000000000000000000000000000000000000000000006635755d292",
          "blockHash": "0xd62677f1fb1e0605e2da68cf835b85c8bf5b3fef1c5f2f03caa74ddb666b681c",
          "blockNumber": "0x18600342",
          "blockTimestamp": "0x69389442",
          "transactionHash": "0x6f3410b76c0e8d59d722cb7b60ec5ac54a4b1a1e17058486471a9fc187b36a1b",
          "transactionIndex": "0x2",
          "logIndex": "0x5",
          "removed": false
        },
        {
          "address": "0x975bcd720be66659e3eb3c0e4f1866a3020e493a",
          "topics": ["0x07ea52d82345d6e838192107d8fd7123d9c2ec8e916cd0aad13fd2b60db24644"],
          "data": "0x000000000000000000000000000000000000000000000000000000000000006000000000000000000000000000000000000000000000000000000000000000c000000000000000000000000000000000000000000000000000000000000000e000000000000000000000000000000000000000000000000000000000000000020000000000000000000000002f55c492897526677c5b68fb199ea31e2c126416000000000000000000000000a8b8575fa41c305953f519c7d288cd7741727c7b000000000000000000000000000000000000000000000000000000000000000000000000000000000000000000000000000000000000000000000000000000020000000000000000000000000000000000000000000000000000001565ca64d2000000000000000000000000000000000000000000000000000000160a45fc54",
          "blockHash": "0xd62677f1fb1e0605e2da68cf835b85c8bf5b3fef1c5f2f03caa74ddb666b681c",
          "blockNumber": "0x18600342",
          "blockTimestamp": "0x69389442",
          "transactionHash": "0x6f3410b76c0e8d59d722cb7b60ec5ac54a4b1a1e17058486471a9fc187b36a1b",
          "transactionIndex": "0x2",
          "logIndex": "0x6",
          "removed": false
        },
        {
          "address": "0x1a44076050125825900e736c501f859c50fe728c",
          "topics": ["0x1ab700d4ced0c005b164c0f789fd09fcbb0156d4c2041b8a3bfbcd961cd1567f"],
          "data": "0x00000000000000000000000000000000000000000000000000000000000000600000000000000000000000000000000000000000000000000000000000000260000000000000000000000000975bcd720be66659e3eb3c0e4f1866a3020e493a00000000000000000000000000000000000000000000000000000000000001d90100000000000063f30000759e00000000000000000000000014e4a1b13bf7f943c8ff7c51fb60fa964a298d920000769f000000000000000000000000904861a24f30ec96ea7cfc3be9ea4b476d237e982c0ed0bf29aaef3c907b78d19b6a41ba38743973d3d7f9598c28ad6abccafed5000000000000000000000000c8786d517b4e224bb43985a38dbef8588d7354cd00000000000f4b640000000000000000000000002ac5ee3796e027da274fbde84c82173a65868940000000000000000000000000000000000000000000000000000000006938943a000000000000000000000000000000000000000000000000000000006938a24a000000000000000000000000000000000000000000000000000000000000000000000000000000000000000000000000000000000000000000000000000000c80000000000000000000000009a8f92a830a5cb89a3816e3d267cb7791c16b04d000000000000000000000000b8ce59fc3717ada4c02eadf9682a9e934f625ebb000000000000000000000000000000000000000000000000000000000000000000000000000000000000000000000000000000000000000000000000000001000000000000000000000000000000000000000000000000000000000000000000000000000000000000000000000000000000000000000000000000000000000000000000000056000301001101000000000000000000000000000186a0010013030000000000000000000000000000000186a00100110100000000000000000000000000030d40010013030000000000000000000000000000000493e000000000000000000000",
          "blockHash": "0xd62677f1fb1e0605e2da68cf835b85c8bf5b3fef1c5f2f03caa74ddb666b681c",
          "blockNumber": "0x18600342",
          "blockTimestamp": "0x69389442",
          "transactionHash": "0x6f3410b76c0e8d59d722cb7b60ec5ac54a4b1a1e17058486471a9fc187b36a1b",
          "transactionIndex": "0x2",
          "logIndex": "0x7",
          "removed": false
        },
        {
          "address": "0x14e4a1b13bf7f943c8ff7c51fb60fa964a298d92",
          "topics": [
            "0x85496b760a4b7f8d66384b9df21b381f5d1b1e79f229a47aaf4c232edc2fe59a",
            "0x2c0ed0bf29aaef3c907b78d19b6a41ba38743973d3d7f9598c28ad6abccafed5",
            "0x0000000000000000000000002ac5ee3796e027da274fbde84c82173a65868940"
          ],
          "data": "0x000000000000000000000000000000000000000000000000000000000000769f00000000000000000000000000000000000000000000000000000000000f4b6400000000000000000000000000000000000000000000000000000000000f4b64",
          "blockHash": "0xd62677f1fb1e0605e2da68cf835b85c8bf5b3fef1c5f2f03caa74ddb666b681c",
          "blockNumber": "0x18600342",
          "blockTimestamp": "0x69389442",
          "transactionHash": "0x6f3410b76c0e8d59d722cb7b60ec5ac54a4b1a1e17058486471a9fc187b36a1b",
          "transactionIndex": "0x2",
          "logIndex": "0x8",
          "removed": false
        },
        {
          "address": "0x2ac5ee3796e027da274fbde84c82173a65868940",
          "topics": [
            "0x8fb515a2e89f5acfca1124e69e331c2cded0ca216b578ba531720f6841139dbf",
            "0x000000000000000000000000000000000000000000000000000000006938943a",
            "0x0000000000000000000000009a8f92a830a5cb89a3816e3d267cb7791c16b04d",
            "0x0000000000000000000000009a8f92a830a5cb89a3816e3d267cb7791c16b04d"
          ],
          "data": "0x000000000000000000000000c8786d517b4e224bb43985a38dbef8588d7354cd000000000000000000000000000000000000000000000000000000006938a24a000000000000000000000000000000000000000000000000000000000000000000000000000000000000000000000000000000000000000000000000000000c8000000000000000000000000b8ce59fc3717ada4c02eadf9682a9e934f625ebb00000000000000000000000000000000000000000000000000000000000000c00000000000000000000000000000000000000000000000000000000000000041632b37d27f7c52864e52a1276ceaba0b9611f59bb6461338956ea52e70fa637a149e0ee87366f0c8bbcb945df48133afb028009c3b1ffb894c51d16f32ed05d01c00000000000000000000000000000000000000000000000000000000000000",
          "blockHash": "0xd62677f1fb1e0605e2da68cf835b85c8bf5b3fef1c5f2f03caa74ddb666b681c",
          "blockNumber": "0x18600342",
          "blockTimestamp": "0x69389442",
          "transactionHash": "0x6f3410b76c0e8d59d722cb7b60ec5ac54a4b1a1e17058486471a9fc187b36a1b",
          "transactionIndex": "0x2",
          "logIndex": "0x9",
          "removed": false
        }
      ],
      "logsBloom": "0x00000000000000000000000000000000008000000000801000800000001000000000000000000000000000000200000000000000000440000000020000200400000012000000100000000018004000000000000000000000000040000000000000000000020800008000100000000800082000000010000000000010040000000000000080000000000400080000000000000000000000000000000000200000020000008000000000100000000000020000000000400000400440000000008000008002000000800000010080000000000000000000000000000000000020000011040000000000000000000000002010000000018000000080000080000000",
      "type": "0x2",
      "transactionHash": "0x6f3410b76c0e8d59d722cb7b60ec5ac54a4b1a1e17058486471a9fc187b36a1b",
      "transactionIndex": "0x2",
      "blockHash": "0xd62677f1fb1e0605e2da68cf835b85c8bf5b3fef1c5f2f03caa74ddb666b681c",
      "blockNumber": "0x18600342",
      "gasUsed": "0x6e54b",
      "effectiveGasPrice": "0x989680",
      "from": "0x9a8f92a830a5cb89a3816e3d267cb7791c16b04d",
      "to": "0x2ac5ee3796e027da274fbde84c82173a65868940",
      "contractAddress": null,
      "gasUsedForL1": "0x0",
      "l1BlockNumber": "0x16ddf9a",
      "timeboosted": false
    }
  ],
  "libraries": [],
  "pending": [],
  "returns": {},
  "timestamp": 1765315650422,
  "chain": 42161,
  "commit": "0f146995"
}
