{
  "transactions": [
    {
      "hash": "0x8aa7afa71987c7a1fce0d4869ba5fb23b7f14d3dfc5b113bbad878e33d7b8e47",
      "transactionType": "CALL",
      "contractName": null,
      "contractAddress": "0xfd086bc7cd5c481dcc9c85ebe478a1c0b69fcbb9",
      "function": "approve(address,uint256)",
      "arguments": ["0x2ac5Ee3796E027dA274fbDe84c82173a65868940", "11005000"],
      "transaction": {
        "from": "0x9a8f92a830a5cb89a3816e3d267cb7791c16b04d",
        "to": "0xfd086bc7cd5c481dcc9c85ebe478a1c0b69fcbb9",
        "gas": "0x11412",
        "value": "0x0",
        "input": "0x095ea7b30000000000000000000000002ac5ee3796e027da274fbde84c82173a658689400000000000000000000000000000000000000000000000000000000000a7ec48",
        "nonce": "0x1685",
        "chainId": "0xa4b1"
      },
      "additionalContracts": [],
      "isFixedGasLimit": false
    },
    {
      "hash": "0x263d5232850582e69d79345e55bfeff082409c67e9f7f48af5b88794379b1f20",
      "transactionType": "CALL",
      "contractName": "SponsoredOFTSrcPeriphery",
      "contractAddress": "0x2ac5ee3796e027da274fbde84c82173a65868940",
      "function": "deposit(((uint32,uint32,bytes32,uint256,bytes32,uint256,uint256,bytes32,bytes32,uint256,uint256,uint8,bytes),(address,uint256)),bytes)",
      "arguments": [
        "((30110, 30367, 0x000000000000000000000000c8786d517b4e224bb43985a38dbef8588d7354cd, 11005000, 0x000000000000000000000000000000000000000000000000000000006937938d, 1765253533, 0, 0x0000000000000000000000009a8f92a830a5cb89a3816e3d267cb7791c16b04d, 0x000000000000000000000000b88339cb7199b77e23db6e890353e22632ba630f, 200000, 300000, 0, 0x), (0x9A8f92a830A5cB89a3816e3D267CB7791c16b04D, 200))",
        "0xf12effc6fb6b75d9118ef48e1d55c970c66420acde80689ae87e2c1e3c630a5a7b8aa6823890f2452fd81797695570618b19fc966b77452aeb918359a651a4211c"
      ],
      "transaction": {
        "from": "0x9a8f92a830a5cb89a3816e3d267cb7791c16b04d",
        "to": "0x2ac5ee3796e027da274fbde84c82173a65868940",
        "gas": "0x9865f",
        "value": "0x6f9729603be",
        "input": "0xfcc5b1e30000000000000000000000000000000000000000000000000000000000000040000000000000000000000000000000000000000000000000000000000000026000000000000000000000000000000000000000000000000000000000000000600000000000000000000000009a8f92a830a5cb89a3816e3d267cb7791c16b04d00000000000000000000000000000000000000000000000000000000000000c8000000000000000000000000000000000000000000000000000000000000759e000000000000000000000000000000000000000000000000000000000000769f000000000000000000000000c8786d517b4e224bb43985a38dbef8588d7354cd0000000000000000000000000000000000000000000000000000000000a7ec48000000000000000000000000000000000000000000000000000000006937938d000000000000000000000000000000000000000000000000000000006937a19d00000000000000000000000000000000000000000000000000000000000000000000000000000000000000009a8f92a830a5cb89a3816e3d267cb7791c16b04d000000000000000000000000b88339cb7199b77e23db6e890353e22632ba630f0000000000000000000000000000000000000000000000000000000000030d4000000000000000000000000000000000000000000000000000000000000493e0000000000000000000000000000000000000000000000000000000000000000000000000000000000000000000000000000000000000000000000000000001a000000000000000000000000000000000000000000000000000000000000000000000000000000000000000000000000000000000000000000000000000000041f12effc6fb6b75d9118ef48e1d55c970c66420acde80689ae87e2c1e3c630a5a7b8aa6823890f2452fd81797695570618b19fc966b77452aeb918359a651a4211c00000000000000000000000000000000000000000000000000000000000000",
        "nonce": "0x1686",
        "chainId": "0xa4b1"
      },
      "additionalContracts": [],
      "isFixedGasLimit": false
    }
  ],
  "receipts": [
    {
      "status": "0x1",
      "cumulativeGasUsed": "0x479d1",
      "logs": [
        {
          "address": "0xfd086bc7cd5c481dcc9c85ebe478a1c0b69fcbb9",
          "topics": [
            "0x8c5be1e5ebec7d5bd14f71427d1e84f3dd0314c0f7b2291e5b200ac8c7c3b925",
            "0x0000000000000000000000009a8f92a830a5cb89a3816e3d267cb7791c16b04d",
            "0x0000000000000000000000002ac5ee3796e027da274fbde84c82173a65868940"
          ],
          "data": "0x0000000000000000000000000000000000000000000000000000000000a7ec48",
          "blockHash": "0x6a90ceffb34354155306c8ae87000b6234253b87f38b7529363eda188e984c80",
          "blockNumber": "0x185bfdef",
          "blockTimestamp": "0x69379393",
          "transactionHash": "0x8aa7afa71987c7a1fce0d4869ba5fb23b7f14d3dfc5b113bbad878e33d7b8e47",
          "transactionIndex": "0x3",
          "logIndex": "0x0",
          "removed": false
        }
      ],
      "logsBloom": "0x00000000000000000000000000000000000000000000800000000000000000000000000000000000000000000000000000000000000400000000000000200000000010000000000000000000000000000000000000000000000040000000000000000000000000000000000000000000000000000000000000000000040000000000000000000000000000000000000000000000000000000000000000000000020000000000000000000000000000000000000000000000000000000000000000008000000000800000000000000000000000000000000000000000000000000011000000000000000000000000000010000000000000000000000000000000",
      "type": "0x2",
      "transactionHash": "0x8aa7afa71987c7a1fce0d4869ba5fb23b7f14d3dfc5b113bbad878e33d7b8e47",
      "transactionIndex": "0x3",
      "blockHash": "0x6a90ceffb34354155306c8ae87000b6234253b87f38b7529363eda188e984c80",
      "blockNumber": "0x185bfdef",
      "gasUsed": "0xd142",
      "effectiveGasPrice": "0x989680",
      "from": "0x9a8f92a830a5cb89a3816e3d267cb7791c16b04d",
      "to": "0xfd086bc7cd5c481dcc9c85ebe478a1c0b69fcbb9",
      "contractAddress": null,
      "gasUsedForL1": "0x0",
      "l1BlockNumber": "0x16dca72",
      "timeboosted": false
    },
    {
      "status": "0x1",
      "cumulativeGasUsed": "0x16027c",
      "logs": [
        {
          "address": "0xfd086bc7cd5c481dcc9c85ebe478a1c0b69fcbb9",
          "topics": [
            "0xddf252ad1be2c89b69c2b068fc378daa952ba7f163c4a11628f55a4df523b3ef",
            "0x0000000000000000000000009a8f92a830a5cb89a3816e3d267cb7791c16b04d",
            "0x0000000000000000000000002ac5ee3796e027da274fbde84c82173a65868940"
          ],
          "data": "0x0000000000000000000000000000000000000000000000000000000000a7ec48",
          "blockHash": "0xf71b0f39133698da2042eb834204b9da9feb3db4dadf191ec5e19b398d39addd",
          "blockNumber": "0x185bfdf1",
          "blockTimestamp": "0x69379394",
          "transactionHash": "0x263d5232850582e69d79345e55bfeff082409c67e9f7f48af5b88794379b1f20",
          "transactionIndex": "0x9",
          "logIndex": "0xe",
          "removed": false
        },
        {
          "address": "0xfd086bc7cd5c481dcc9c85ebe478a1c0b69fcbb9",
          "topics": [
            "0x8c5be1e5ebec7d5bd14f71427d1e84f3dd0314c0f7b2291e5b200ac8c7c3b925",
            "0x0000000000000000000000009a8f92a830a5cb89a3816e3d267cb7791c16b04d",
            "0x0000000000000000000000002ac5ee3796e027da274fbde84c82173a65868940"
          ],
          "data": "0x0000000000000000000000000000000000000000000000000000000000000000",
          "blockHash": "0xf71b0f39133698da2042eb834204b9da9feb3db4dadf191ec5e19b398d39addd",
          "blockNumber": "0x185bfdf1",
          "blockTimestamp": "0x69379394",
          "transactionHash": "0x263d5232850582e69d79345e55bfeff082409c67e9f7f48af5b88794379b1f20",
          "transactionIndex": "0x9",
          "logIndex": "0xf",
          "removed": false
        },
        {
          "address": "0xfd086bc7cd5c481dcc9c85ebe478a1c0b69fcbb9",
          "topics": [
            "0x8c5be1e5ebec7d5bd14f71427d1e84f3dd0314c0f7b2291e5b200ac8c7c3b925",
            "0x0000000000000000000000002ac5ee3796e027da274fbde84c82173a65868940",
            "0x00000000000000000000000014e4a1b13bf7f943c8ff7c51fb60fa964a298d92"
          ],
          "data": "0x0000000000000000000000000000000000000000000000000000000000a7ec48",
          "blockHash": "0xf71b0f39133698da2042eb834204b9da9feb3db4dadf191ec5e19b398d39addd",
          "blockNumber": "0x185bfdf1",
          "blockTimestamp": "0x69379394",
          "transactionHash": "0x263d5232850582e69d79345e55bfeff082409c67e9f7f48af5b88794379b1f20",
          "transactionIndex": "0x9",
          "logIndex": "0x10",
          "removed": false
        },
        {
          "address": "0xfd086bc7cd5c481dcc9c85ebe478a1c0b69fcbb9",
          "topics": [
            "0xddf252ad1be2c89b69c2b068fc378daa952ba7f163c4a11628f55a4df523b3ef",
            "0x0000000000000000000000002ac5ee3796e027da274fbde84c82173a65868940",
            "0x0000000000000000000000000000000000000000000000000000000000000000"
          ],
          "data": "0x0000000000000000000000000000000000000000000000000000000000a7ec48",
          "blockHash": "0xf71b0f39133698da2042eb834204b9da9feb3db4dadf191ec5e19b398d39addd",
          "blockNumber": "0x185bfdf1",
          "blockTimestamp": "0x69379394",
          "transactionHash": "0x263d5232850582e69d79345e55bfeff082409c67e9f7f48af5b88794379b1f20",
          "transactionIndex": "0x9",
          "logIndex": "0x11",
          "removed": false
        },
        {
          "address": "0xfd086bc7cd5c481dcc9c85ebe478a1c0b69fcbb9",
          "topics": [
            "0xcc16f5dbb4873280815c1ee09dbd06736cffcc184412cf7a71a0fdb75d397ca5",
            "0x0000000000000000000000002ac5ee3796e027da274fbde84c82173a65868940"
          ],
          "data": "0x0000000000000000000000000000000000000000000000000000000000a7ec48",
          "blockHash": "0xf71b0f39133698da2042eb834204b9da9feb3db4dadf191ec5e19b398d39addd",
          "blockNumber": "0x185bfdf1",
          "blockTimestamp": "0x69379394",
          "transactionHash": "0x263d5232850582e69d79345e55bfeff082409c67e9f7f48af5b88794379b1f20",
          "transactionIndex": "0x9",
          "logIndex": "0x12",
          "removed": false
        },
        {
          "address": "0x975bcd720be66659e3eb3c0e4f1866a3020e493a",
          "topics": ["0x61ed099e74a97a1d7f8bb0952a88ca8b7b8ebd00c126ea04671f92a81213318a"],
          "data": "0x00000000000000000000000031cae3b7fb82d847621859fb1585353c5720660d000000000000000000000000000000000000000000000000000006cc3f20c795",
          "blockHash": "0xf71b0f39133698da2042eb834204b9da9feb3db4dadf191ec5e19b398d39addd",
          "blockNumber": "0x185bfdf1",
          "blockTimestamp": "0x69379394",
          "transactionHash": "0x263d5232850582e69d79345e55bfeff082409c67e9f7f48af5b88794379b1f20",
          "transactionIndex": "0x9",
          "logIndex": "0x13",
          "removed": false
        },
        {
          "address": "0x975bcd720be66659e3eb3c0e4f1866a3020e493a",
          "topics": ["0x07ea52d82345d6e838192107d8fd7123d9c2ec8e916cd0aad13fd2b60db24644"],
          "data": "0x000000000000000000000000000000000000000000000000000000000000006000000000000000000000000000000000000000000000000000000000000000c000000000000000000000000000000000000000000000000000000000000000e000000000000000000000000000000000000000000000000000000000000000020000000000000000000000002f55c492897526677c5b68fb199ea31e2c126416000000000000000000000000a8b8575fa41c305953f519c7d288cd7741727c7b0000000000000000000000000000000000000000000000000000000000000000000000000000000000000000000000000000000000000000000000000000000200000000000000000000000000000000000000000000000000000016442630ad00000000000000000000000000000000000000000000000000000016ef4f0b7c",
          "blockHash": "0xf71b0f39133698da2042eb834204b9da9feb3db4dadf191ec5e19b398d39addd",
          "blockNumber": "0x185bfdf1",
          "blockTimestamp": "0x69379394",
          "transactionHash": "0x263d5232850582e69d79345e55bfeff082409c67e9f7f48af5b88794379b1f20",
          "transactionIndex": "0x9",
          "logIndex": "0x14",
          "removed": false
        },
        {
          "address": "0x1a44076050125825900e736c501f859c50fe728c",
          "topics": ["0x1ab700d4ced0c005b164c0f789fd09fcbb0156d4c2041b8a3bfbcd961cd1567f"],
          "data": "0x00000000000000000000000000000000000000000000000000000000000000600000000000000000000000000000000000000000000000000000000000000260000000000000000000000000975bcd720be66659e3eb3c0e4f1866a3020e493a00000000000000000000000000000000000000000000000000000000000001d90100000000000063bb0000759e00000000000000000000000014e4a1b13bf7f943c8ff7c51fb60fa964a298d920000769f000000000000000000000000904861a24f30ec96ea7cfc3be9ea4b476d237e9877f114ce321d222ee9230e9c1b96110731f6549a400ce11f5863ecb4d2b6fd39000000000000000000000000c8786d517b4e224bb43985a38dbef8588d7354cd0000000000a7ec480000000000000000000000002ac5ee3796e027da274fbde84c82173a65868940000000000000000000000000000000000000000000000000000000006937938d000000000000000000000000000000000000000000000000000000006937a19d000000000000000000000000000000000000000000000000000000000000000000000000000000000000000000000000000000000000000000000000000000c80000000000000000000000009a8f92a830a5cb89a3816e3d267cb7791c16b04d000000000000000000000000b88339cb7199b77e23db6e890353e22632ba630f000000000000000000000000000000000000000000000000000000000000000000000000000000000000000000000000000000000000000000000000000001000000000000000000000000000000000000000000000000000000000000000000000000000000000000000000000000000000000000000000000000000000000000000000000056000301001101000000000000000000000000000186a0010013030000000000000000000000000000000186a00100110100000000000000000000000000030d40010013030000000000000000000000000000000493e000000000000000000000",
          "blockHash": "0xf71b0f39133698da2042eb834204b9da9feb3db4dadf191ec5e19b398d39addd",
          "blockNumber": "0x185bfdf1",
          "blockTimestamp": "0x69379394",
          "transactionHash": "0x263d5232850582e69d79345e55bfeff082409c67e9f7f48af5b88794379b1f20",
          "transactionIndex": "0x9",
          "logIndex": "0x15",
          "removed": false
        },
        {
          "address": "0x14e4a1b13bf7f943c8ff7c51fb60fa964a298d92",
          "topics": [
            "0x85496b760a4b7f8d66384b9df21b381f5d1b1e79f229a47aaf4c232edc2fe59a",
            "0x77f114ce321d222ee9230e9c1b96110731f6549a400ce11f5863ecb4d2b6fd39",
            "0x0000000000000000000000002ac5ee3796e027da274fbde84c82173a65868940"
          ],
          "data": "0x000000000000000000000000000000000000000000000000000000000000769f0000000000000000000000000000000000000000000000000000000000a7ec480000000000000000000000000000000000000000000000000000000000a7ec48",
          "blockHash": "0xf71b0f39133698da2042eb834204b9da9feb3db4dadf191ec5e19b398d39addd",
          "blockNumber": "0x185bfdf1",
          "blockTimestamp": "0x69379394",
          "transactionHash": "0x263d5232850582e69d79345e55bfeff082409c67e9f7f48af5b88794379b1f20",
          "transactionIndex": "0x9",
          "logIndex": "0x16",
          "removed": false
        },
        {
          "address": "0x2ac5ee3796e027da274fbde84c82173a65868940",
          "topics": [
            "0x8fb515a2e89f5acfca1124e69e331c2cded0ca216b578ba531720f6841139dbf",
            "0x000000000000000000000000000000000000000000000000000000006937938d",
            "0x0000000000000000000000009a8f92a830a5cb89a3816e3d267cb7791c16b04d",
            "0x0000000000000000000000009a8f92a830a5cb89a3816e3d267cb7791c16b04d"
          ],
          "data": "0x000000000000000000000000c8786d517b4e224bb43985a38dbef8588d7354cd000000000000000000000000000000000000000000000000000000006937a19d000000000000000000000000000000000000000000000000000000000000000000000000000000000000000000000000000000000000000000000000000000c8000000000000000000000000b88339cb7199b77e23db6e890353e22632ba630f00000000000000000000000000000000000000000000000000000000000000c00000000000000000000000000000000000000000000000000000000000000041f12effc6fb6b75d9118ef48e1d55c970c66420acde80689ae87e2c1e3c630a5a7b8aa6823890f2452fd81797695570618b19fc966b77452aeb918359a651a4211c00000000000000000000000000000000000000000000000000000000000000",
          "blockHash": "0xf71b0f39133698da2042eb834204b9da9feb3db4dadf191ec5e19b398d39addd",
          "blockNumber": "0x185bfdf1",
          "blockTimestamp": "0x69379394",
          "transactionHash": "0x263d5232850582e69d79345e55bfeff082409c67e9f7f48af5b88794379b1f20",
          "transactionIndex": "0x9",
          "logIndex": "0x17",
          "removed": false
        }
      ],
      "logsBloom": "0x00000000000000000000000000000400008000000000801000000000001000000000000000000000000000004200000000000000000440000000000000200400000012000000100000000018004000000000000000000000000040000000000000000000020800008000800000000800082000000010000000000010040000000000000000000000000000080000000000000000000000000000000000200000020000008000000000140000000000020000000000400000400440000000008000008002000000800000040080000000000000000000000000000000000020000011040000000000000000400000002010000000018000000080000080000000",
      "type": "0x2",
      "transactionHash": "0x263d5232850582e69d79345e55bfeff082409c67e9f7f48af5b88794379b1f20",
      "transactionIndex": "0x9",
      "blockHash": "0xf71b0f39133698da2042eb834204b9da9feb3db4dadf191ec5e19b398d39addd",
      "blockNumber": "0x185bfdf1",
      "gasUsed": "0x6e557",
      "effectiveGasPrice": "0x989680",
      "from": "0x9a8f92a830a5cb89a3816e3d267cb7791c16b04d",
      "to": "0x2ac5ee3796e027da274fbde84c82173a65868940",
      "contractAddress": null,
      "gasUsedForL1": "0x0",
      "l1BlockNumber": "0x16dca72",
      "timeboosted": false
    }
  ],
  "libraries": [],
  "pending": [],
  "returns": {},
  "timestamp": 1765249940276,
  "chain": 42161,
  "commit": "c507c9ea"
}
