{
  "transactions": [
    {
      "hash": "0x8f0898d8742017e5ff3c9314aa32753702cfad8fb4dcb3ed5905edf64f494cb9",
      "transactionType": "CALL",
      "contractName": null,
      "contractAddress": "0xfd086bc7cd5c481dcc9c85ebe478a1c0b69fcbb9",
      "function": "approve(address,uint256)",
      "arguments": ["0x12954e33EaE4f5797e4736d8c2aDA4bD70Cd9826", "100000"],
      "transaction": {
        "from": "0x9a8f92a830a5cb89a3816e3d267cb7791c16b04d",
        "to": "0xfd086bc7cd5c481dcc9c85ebe478a1c0b69fcbb9",
        "gas": "0x13d4a",
        "value": "0x0",
        "input": "0x095ea7b300000000000000000000000012954e33eae4f5797e4736d8c2ada4bd70cd982600000000000000000000000000000000000000000000000000000000000186a0",
        "nonce": "0x20d5",
        "chainId": "0xa4b1"
      },
      "additionalContracts": [],
      "isFixedGasLimit": false
    },
    {
      "hash": "0xd23f79d9cc194ead58bea55005cbb47869c790c5dd48a8f181549caf0bcff1f8",
      "transactionType": "CALL",
      "contractName": "SponsoredOFTSrcPeriphery",
      "contractAddress": "0x12954e33eae4f5797e4736d8c2ada4bd70cd9826",
      "function": "deposit(((uint32,uint32,bytes32,uint256,bytes32,uint256,uint256,uint256,bytes32,bytes32,uint32,uint256,uint256,uint256,uint8,uint8,bytes),(address)),bytes)",
      "arguments": [
        "((30110, 30367, 0x0000000000000000000000001fe11b217cd3e268d45e402ff7a74d789d6038e5, 100000, 0x000000000000000000000000000000000000000000000000000000006a2045cd, 1780503517, 100, 200, 0x0000000000000000000000009a8f92a830a5cb89a3816e3d267cb7791c16b04d, 0x000000000000000000000000b8ce59fc3717ada4c02eadf9682a9e934f625ebb, 4294967295, 200000, 300000, 0, 0, 0, 0x), (0x9A8f92a830A5cB89a3816e3D267CB7791c16b04D))",
        "0x80aef3605edd5b3757af82f26f6ebbc7694be585ab09eaf60b9ad0a7b681769151eeae100b681a8f785b2f8d658314549315d1772ab03ef9151b72b4f3442fef1c"
      ],
      "transaction": {
        "from": "0x9a8f92a830a5cb89a3816e3d267cb7791c16b04d",
        "to": "0x12954e33eae4f5797e4736d8c2ada4bd70cd9826",
        "gas": "0xb2d12",
        "value": "0x13f99fef726d",
        "input": "0x4982e57b000000000000000000000000000000000000000000000000000000000000004000000000000000000000000000000000000000000000000000000000000002c000000000000000000000000000000000000000000000000000000000000000400000000000000000000000009a8f92a830a5cb89a3816e3d267cb7791c16b04d000000000000000000000000000000000000000000000000000000000000759e000000000000000000000000000000000000000000000000000000000000769f0000000000000000000000001fe11b217cd3e268d45e402ff7a74d789d6038e500000000000000000000000000000000000000000000000000000000000186a0000000000000000000000000000000000000000000000000000000006a2045cd000000000000000000000000000000000000000000000000000000006a2053dd000000000000000000000000000000000000000000000000000000000000006400000000000000000000000000000000000000000000000000000000000000c80000000000000000000000009a8f92a830a5cb89a3816e3d267cb7791c16b04d000000000000000000000000b8ce59fc3717ada4c02eadf9682a9e934f625ebb00000000000000000000000000000000000000000000000000000000ffffffff0000000000000000000000000000000000000000000000000000000000030d4000000000000000000000000000000000000000000000000000000000000493e000000000000000000000000000000000000000000000000000000000000000000000000000000000000000000000000000000000000000000000000000000000000000000000000000000000000000000000000000000000000000000000000000000000000000000000000000000000000000000000000000000000000002200000000000000000000000000000000000000000000000000000000000000000000000000000000000000000000000000000000000000000000000000000004180aef3605edd5b3757af82f26f6ebbc7694be585ab09eaf60b9ad0a7b681769151eeae100b681a8f785b2f8d658314549315d1772ab03ef9151b72b4f3442fef1c00000000000000000000000000000000000000000000000000000000000000",
        "nonce": "0x20d6",
        "chainId": "0xa4b1"
      },
      "additionalContracts": [],
      "isFixedGasLimit": false
    }
  ],
  "receipts": [
    {
      "status": "0x1",
      "cumulativeGasUsed": "0x983c3",
      "logs": [
        {
          "address": "0xfd086bc7cd5c481dcc9c85ebe478a1c0b69fcbb9",
          "topics": [
            "0x8c5be1e5ebec7d5bd14f71427d1e84f3dd0314c0f7b2291e5b200ac8c7c3b925",
            "0x0000000000000000000000009a8f92a830a5cb89a3816e3d267cb7791c16b04d",
            "0x00000000000000000000000012954e33eae4f5797e4736d8c2ada4bd70cd9826"
          ],
          "data": "0x00000000000000000000000000000000000000000000000000000000000186a0",
          "blockHash": "0xb58e6ed356534fe4d68f230a45fbbf128d5ddc4387c05b758feed108b5044d86",
          "blockNumber": "0x1bfe6d97",
          "blockTimestamp": "0x6a2045ed",
          "transactionHash": "0x8f0898d8742017e5ff3c9314aa32753702cfad8fb4dcb3ed5905edf64f494cb9",
          "transactionIndex": "0x6",
          "logIndex": "0x8",
          "removed": false
        }
      ],
      "logsBloom": "0x00000000000000000000000000000000000000000000000020000000000000000000000000000000000010000000000000000000000010000000000000200000000010000000000000000000000000000000000000000000000000000000000000000000000000000000000000000000000000000000000000000000040000000000000000000000000000000000000000000000000000000000000000000000020000000000000000000000000000000000000000000000000000000000000000008000000000800000000000000000000000000000000000000000000000000011000000000000000000000000000010000000000000000000000000000000",
      "type": "0x2",
      "transactionHash": "0x8f0898d8742017e5ff3c9314aa32753702cfad8fb4dcb3ed5905edf64f494cb9",
      "transactionIndex": "0x6",
      "blockHash": "0xb58e6ed356534fe4d68f230a45fbbf128d5ddc4387c05b758feed108b5044d86",
      "blockNumber": "0x1bfe6d97",
      "gasUsed": "0xea91",
      "effectiveGasPrice": "0x13207c0",
      "from": "0x9a8f92a830a5cb89a3816e3d267cb7791c16b04d",
      "to": "0xfd086bc7cd5c481dcc9c85ebe478a1c0b69fcbb9",
      "contractAddress": null,
      "gasUsedForL1": "0x194f",
      "l1BlockNumber": "0x18118d0",
      "timeboosted": false
    },
    {
      "status": "0x1",
      "cumulativeGasUsed": "0x86754",
      "logs": [
        {
          "address": "0xfd086bc7cd5c481dcc9c85ebe478a1c0b69fcbb9",
          "topics": [
            "0xddf252ad1be2c89b69c2b068fc378daa952ba7f163c4a11628f55a4df523b3ef",
            "0x0000000000000000000000009a8f92a830a5cb89a3816e3d267cb7791c16b04d",
            "0x00000000000000000000000012954e33eae4f5797e4736d8c2ada4bd70cd9826"
          ],
          "data": "0x00000000000000000000000000000000000000000000000000000000000186a0",
          "blockHash": "0x5abed63e296f7c9401f361338738a914471357323e608a45e4debb7e7474dd93",
          "blockNumber": "0x1bfe6d9a",
          "blockTimestamp": "0x6a2045ed",
          "transactionHash": "0xd23f79d9cc194ead58bea55005cbb47869c790c5dd48a8f181549caf0bcff1f8",
          "transactionIndex": "0x2",
          "logIndex": "0x0",
          "removed": false
        },
        {
          "address": "0xfd086bc7cd5c481dcc9c85ebe478a1c0b69fcbb9",
          "topics": [
            "0x8c5be1e5ebec7d5bd14f71427d1e84f3dd0314c0f7b2291e5b200ac8c7c3b925",
            "0x0000000000000000000000009a8f92a830a5cb89a3816e3d267cb7791c16b04d",
            "0x00000000000000000000000012954e33eae4f5797e4736d8c2ada4bd70cd9826"
          ],
          "data": "0x0000000000000000000000000000000000000000000000000000000000000000",
          "blockHash": "0x5abed63e296f7c9401f361338738a914471357323e608a45e4debb7e7474dd93",
          "blockNumber": "0x1bfe6d9a",
          "blockTimestamp": "0x6a2045ed",
          "transactionHash": "0xd23f79d9cc194ead58bea55005cbb47869c790c5dd48a8f181549caf0bcff1f8",
          "transactionIndex": "0x2",
          "logIndex": "0x1",
          "removed": false
        },
        {
          "address": "0xfd086bc7cd5c481dcc9c85ebe478a1c0b69fcbb9",
          "topics": [
            "0x8c5be1e5ebec7d5bd14f71427d1e84f3dd0314c0f7b2291e5b200ac8c7c3b925",
            "0x00000000000000000000000012954e33eae4f5797e4736d8c2ada4bd70cd9826",
            "0x00000000000000000000000014e4a1b13bf7f943c8ff7c51fb60fa964a298d92"
          ],
          "data": "0x00000000000000000000000000000000000000000000000000000000000186a0",
          "blockHash": "0x5abed63e296f7c9401f361338738a914471357323e608a45e4debb7e7474dd93",
          "blockNumber": "0x1bfe6d9a",
          "blockTimestamp": "0x6a2045ed",
          "transactionHash": "0xd23f79d9cc194ead58bea55005cbb47869c790c5dd48a8f181549caf0bcff1f8",
          "transactionIndex": "0x2",
          "logIndex": "0x2",
          "removed": false
        },
        {
          "address": "0xfd086bc7cd5c481dcc9c85ebe478a1c0b69fcbb9",
          "topics": [
            "0xddf252ad1be2c89b69c2b068fc378daa952ba7f163c4a11628f55a4df523b3ef",
            "0x00000000000000000000000012954e33eae4f5797e4736d8c2ada4bd70cd9826",
            "0x0000000000000000000000000000000000000000000000000000000000000000"
          ],
          "data": "0x00000000000000000000000000000000000000000000000000000000000186a0",
          "blockHash": "0x5abed63e296f7c9401f361338738a914471357323e608a45e4debb7e7474dd93",
          "blockNumber": "0x1bfe6d9a",
          "blockTimestamp": "0x6a2045ed",
          "transactionHash": "0xd23f79d9cc194ead58bea55005cbb47869c790c5dd48a8f181549caf0bcff1f8",
          "transactionIndex": "0x2",
          "logIndex": "0x3",
          "removed": false
        },
        {
          "address": "0xfd086bc7cd5c481dcc9c85ebe478a1c0b69fcbb9",
          "topics": [
            "0xcc16f5dbb4873280815c1ee09dbd06736cffcc184412cf7a71a0fdb75d397ca5",
            "0x00000000000000000000000012954e33eae4f5797e4736d8c2ada4bd70cd9826"
          ],
          "data": "0x00000000000000000000000000000000000000000000000000000000000186a0",
          "blockHash": "0x5abed63e296f7c9401f361338738a914471357323e608a45e4debb7e7474dd93",
          "blockNumber": "0x1bfe6d9a",
          "blockTimestamp": "0x6a2045ed",
          "transactionHash": "0xd23f79d9cc194ead58bea55005cbb47869c790c5dd48a8f181549caf0bcff1f8",
          "transactionIndex": "0x2",
          "logIndex": "0x4",
          "removed": false
        },
        {
          "address": "0x975bcd720be66659e3eb3c0e4f1866a3020e493a",
          "topics": ["0x61ed099e74a97a1d7f8bb0952a88ca8b7b8ebd00c126ea04671f92a81213318a"],
          "data": "0x00000000000000000000000031cae3b7fb82d847621859fb1585353c5720660d0000000000000000000000000000000000000000000000000000116fd3041585",
          "blockHash": "0x5abed63e296f7c9401f361338738a914471357323e608a45e4debb7e7474dd93",
          "blockNumber": "0x1bfe6d9a",
          "blockTimestamp": "0x6a2045ed",
          "transactionHash": "0xd23f79d9cc194ead58bea55005cbb47869c790c5dd48a8f181549caf0bcff1f8",
          "transactionIndex": "0x2",
          "logIndex": "0x5",
          "removed": false
        },
        {
          "address": "0x975bcd720be66659e3eb3c0e4f1866a3020e493a",
          "topics": ["0x07ea52d82345d6e838192107d8fd7123d9c2ec8e916cd0aad13fd2b60db24644"],
          "data": "0x000000000000000000000000000000000000000000000000000000000000006000000000000000000000000000000000000000000000000000000000000000e0000000000000000000000000000000000000000000000000000000000000010000000000000000000000000000000000000000000000000000000000000000030000000000000000000000002f55c492897526677c5b68fb199ea31e2c126416000000000000000000000000a8b8575fa41c305953f519c7d288cd7741727c7b000000000000000000000000f2e380c90e6c09721297526dbc74f870e114dfcb00000000000000000000000000000000000000000000000000000000000000000000000000000000000000000000000000000000000000000000000000000003000000000000000000000000000000000000000000000000000000d4596cd348000000000000000000000000000000000000000000000000000000dab9bf44d0000000000000000000000000000000000000000000000000000000dab9bf44d0",
          "blockHash": "0x5abed63e296f7c9401f361338738a914471357323e608a45e4debb7e7474dd93",
          "blockNumber": "0x1bfe6d9a",
          "blockTimestamp": "0x6a2045ed",
          "transactionHash": "0xd23f79d9cc194ead58bea55005cbb47869c790c5dd48a8f181549caf0bcff1f8",
          "transactionIndex": "0x2",
          "logIndex": "0x6",
          "removed": false
        },
        {
          "address": "0x1a44076050125825900e736c501f859c50fe728c",
          "topics": ["0x1ab700d4ced0c005b164c0f789fd09fcbb0156d4c2041b8a3bfbcd961cd1567f"],
          "data": "0x000000000000000000000000000000000000000000000000000000000000006000000000000000000000000000000000000000000000000000000000000002a0000000000000000000000000975bcd720be66659e3eb3c0e4f1866a3020e493a000000000000000000000000000000000000000000000000000000000000021901000000000000a8250000759e00000000000000000000000014e4a1b13bf7f943c8ff7c51fb60fa964a298d920000769f000000000000000000000000904861a24f30ec96ea7cfc3be9ea4b476d237e9811d3d395ed1acb2eb27b29724bf9f44b479a8f7efe8290e8785df3981aff2a460000000000000000000000001fe11b217cd3e268d45e402ff7a74d789d6038e500000000000186a000000000000000000000000012954e33eae4f5797e4736d8c2ada4bd70cd9826000000000000000000000000000000000000000000000000000000006a2045cd00000000000000000000000000000000000000000000000000000000000186a0000000000000000000000000000000000000000000000000000000000000006400000000000000000000000000000000000000000000000000000000000000c80000000000000000000000009a8f92a830a5cb89a3816e3d267cb7791c16b04d000000000000000000000000b8ce59fc3717ada4c02eadf9682a9e934f625ebb00000000000000000000000000000000000000000000000000000000ffffffff0000000000000000000000000000000000000000000000000000000000000000000000000000000000000000000000000000000000000000000000000000000000000000000000000000000000000000000000000000000000000000000001400000000000000000000000000000000000000000000000000000000000000000000000000000000000000000000000000000000000000000000000000000000000000000000056000301001101000000000000000000000000000186a0010013030000000000000000000000000000000186a00100110100000000000000000000000000030d40010013030000000000000000000000000000000493e000000000000000000000",
          "blockHash": "0x5abed63e296f7c9401f361338738a914471357323e608a45e4debb7e7474dd93",
          "blockNumber": "0x1bfe6d9a",
          "blockTimestamp": "0x6a2045ed",
          "transactionHash": "0xd23f79d9cc194ead58bea55005cbb47869c790c5dd48a8f181549caf0bcff1f8",
          "transactionIndex": "0x2",
          "logIndex": "0x7",
          "removed": false
        },
        {
          "address": "0x14e4a1b13bf7f943c8ff7c51fb60fa964a298d92",
          "topics": [
            "0x85496b760a4b7f8d66384b9df21b381f5d1b1e79f229a47aaf4c232edc2fe59a",
            "0x11d3d395ed1acb2eb27b29724bf9f44b479a8f7efe8290e8785df3981aff2a46",
            "0x00000000000000000000000012954e33eae4f5797e4736d8c2ada4bd70cd9826"
          ],
          "data": "0x000000000000000000000000000000000000000000000000000000000000769f00000000000000000000000000000000000000000000000000000000000186a000000000000000000000000000000000000000000000000000000000000186a0",
          "blockHash": "0x5abed63e296f7c9401f361338738a914471357323e608a45e4debb7e7474dd93",
          "blockNumber": "0x1bfe6d9a",
          "blockTimestamp": "0x6a2045ed",
          "transactionHash": "0xd23f79d9cc194ead58bea55005cbb47869c790c5dd48a8f181549caf0bcff1f8",
          "transactionIndex": "0x2",
          "logIndex": "0x8",
          "removed": false
        },
        {
          "address": "0x12954e33eae4f5797e4736d8c2ada4bd70cd9826",
          "topics": [
            "0x8fb515a2e89f5acfca1124e69e331c2cded0ca216b578ba531720f6841139dbf",
            "0x000000000000000000000000000000000000000000000000000000006a2045cd",
            "0x0000000000000000000000009a8f92a830a5cb89a3816e3d267cb7791c16b04d",
            "0x0000000000000000000000009a8f92a830a5cb89a3816e3d267cb7791c16b04d"
          ],
          "data": "0x0000000000000000000000001fe11b217cd3e268d45e402ff7a74d789d6038e5000000000000000000000000000000000000000000000000000000006a2053dd000000000000000000000000000000000000000000000000000000000000006400000000000000000000000000000000000000000000000000000000000000c8000000000000000000000000b8ce59fc3717ada4c02eadf9682a9e934f625ebb00000000000000000000000000000000000000000000000000000000000000c0000000000000000000000000000000000000000000000000000000000000004180aef3605edd5b3757af82f26f6ebbc7694be585ab09eaf60b9ad0a7b681769151eeae100b681a8f785b2f8d658314549315d1772ab03ef9151b72b4f3442fef1c00000000000000000000000000000000000000000000000000000000000000",
          "blockHash": "0x5abed63e296f7c9401f361338738a914471357323e608a45e4debb7e7474dd93",
          "blockNumber": "0x1bfe6d9a",
          "blockTimestamp": "0x6a2045ed",
          "transactionHash": "0xd23f79d9cc194ead58bea55005cbb47869c790c5dd48a8f181549caf0bcff1f8",
          "transactionIndex": "0x2",
          "logIndex": "0x9",
          "removed": false
        }
      ],
      "logsBloom": "0x0000000000000000000000000000000800800000000000102000000000100000000000000000000000001000020000000000000000045000000000000020040000001200000010000000001800000000000000000000000200000000000000000000000012080000800000000000080008000000001000000000081004002000000000000000000000000008000000000000000000000000000000000020000402000000800000000010000000000002000000000040000040044000000000800000800200000080000000008000000000000000000008000000000000002000001104000000000000400000000000a010000000018000000000000080000000",
      "type": "0x2",
      "transactionHash": "0xd23f79d9cc194ead58bea55005cbb47869c790c5dd48a8f181549caf0bcff1f8",
      "transactionIndex": "0x2",
      "blockHash": "0x5abed63e296f7c9401f361338738a914471357323e608a45e4debb7e7474dd93",
      "blockNumber": "0x1bfe6d9a",
      "gasUsed": "0x7e490",
      "effectiveGasPrice": "0x132dab0",
      "from": "0x9a8f92a830a5cb89a3816e3d267cb7791c16b04d",
      "to": "0x12954e33eae4f5797e4736d8c2ada4bd70cd9826",
      "contractAddress": null,
      "gasUsedForL1": "0x4046",
      "l1BlockNumber": "0x18118d0",
      "timeboosted": false
    }
  ],
  "libraries": [],
  "pending": [],
  "returns": {},
  "timestamp": 1780499950177,
  "chain": 42161,
  "commit": "80917af1"
}
