{
  "transactions": [
    {
      "hash": "0xeb48a16fbdf5c5b7738a23eedc5f0c93ce2bac2dad91b0d2e23308f30d05ee14",
      "transactionType": "CALL",
      "contractName": null,
      "contractAddress": "0xfd086bc7cd5c481dcc9c85ebe478a1c0b69fcbb9",
      "function": "approve(address,uint256)",
      "arguments": ["0x39E4a5a7dED068831ea8D1c1012CEa07a811F624", "1000000"],
      "transaction": {
        "from": "0x9a8f92a830a5cb89a3816e3d267cb7791c16b04d",
        "to": "0xfd086bc7cd5c481dcc9c85ebe478a1c0b69fcbb9",
        "gas": "0x11484",
        "value": "0x0",
        "input": "0x095ea7b300000000000000000000000039e4a5a7ded068831ea8d1c1012cea07a811f62400000000000000000000000000000000000000000000000000000000000f4240",
        "nonce": "0x19a7",
        "chainId": "0xa4b1"
      },
      "additionalContracts": [],
      "isFixedGasLimit": false
    },
    {
      "hash": "0x3ecc89158d8fb762917136876cac37f27654d88d803cb34fad42f3d692e053df",
      "transactionType": "CALL",
      "contractName": "SponsoredOFTSrcPeriphery",
      "contractAddress": "0x39e4a5a7ded068831ea8d1c1012cea07a811f624",
      "function": "deposit(((uint32,uint32,bytes32,uint256,bytes32,uint256,uint256,uint256,bytes32,bytes32,uint32,uint256,uint256,uint256,uint8,uint8,bytes),(address)),bytes)",
      "arguments": [
        "((30110, 30367, 0x0000000000000000000000000ca8316a6fcc15c833a220c40d84550b08339438, 1000000, 0x00000000000000000000000000000000000000000000000000000000698fddad, 1771039677, 100, 200, 0x0000000000000000000000009a8f92a830a5cb89a3816e3d267cb7791c16b04d, 0x000000000000000000000000b8ce59fc3717ada4c02eadf9682a9e934f625ebb, 4294967295, 200000, 300000, 0, 0, 0, 0x), (0x9A8f92a830A5cB89a3816e3D267CB7791c16b04D))",
        "0x44edc0c1ec32dc3075898709d7b2666cae8991928708caf298f67e6f2e5145457227ccd92b0ef2aa7ca0e08d6adc1ff78c8210f4f9942a6ab54179670e53926b1c"
      ],
      "transaction": {
        "from": "0x9a8f92a830a5cb89a3816e3d267cb7791c16b04d",
        "to": "0x39e4a5a7ded068831ea8d1c1012cea07a811f624",
        "gas": "0xa8557",
        "value": "0xbd85dd897ed",
        "input": "0x4982e57b000000000000000000000000000000000000000000000000000000000000004000000000000000000000000000000000000000000000000000000000000002c000000000000000000000000000000000000000000000000000000000000000400000000000000000000000009a8f92a830a5cb89a3816e3d267cb7791c16b04d000000000000000000000000000000000000000000000000000000000000759e000000000000000000000000000000000000000000000000000000000000769f0000000000000000000000000ca8316a6fcc15c833a220c40d84550b0833943800000000000000000000000000000000000000000000000000000000000f424000000000000000000000000000000000000000000000000000000000698fddad00000000000000000000000000000000000000000000000000000000698febbd000000000000000000000000000000000000000000000000000000000000006400000000000000000000000000000000000000000000000000000000000000c80000000000000000000000009a8f92a830a5cb89a3816e3d267cb7791c16b04d000000000000000000000000b8ce59fc3717ada4c02eadf9682a9e934f625ebb00000000000000000000000000000000000000000000000000000000ffffffff0000000000000000000000000000000000000000000000000000000000030d4000000000000000000000000000000000000000000000000000000000000493e000000000000000000000000000000000000000000000000000000000000000000000000000000000000000000000000000000000000000000000000000000000000000000000000000000000000000000000000000000000000000000000000000000000000000000000000000000000000000000000000000000000000002200000000000000000000000000000000000000000000000000000000000000000000000000000000000000000000000000000000000000000000000000000004144edc0c1ec32dc3075898709d7b2666cae8991928708caf298f67e6f2e5145457227ccd92b0ef2aa7ca0e08d6adc1ff78c8210f4f9942a6ab54179670e53926b1c00000000000000000000000000000000000000000000000000000000000000",
        "nonce": "0x19a8",
        "chainId": "0xa4b1"
      },
      "additionalContracts": [],
      "isFixedGasLimit": false
    }
  ],
  "receipts": [
    {
      "status": "0x1",
      "cumulativeGasUsed": "0x1ac5f",
      "logs": [
        {
          "address": "0xfd086bc7cd5c481dcc9c85ebe478a1c0b69fcbb9",
          "topics": [
            "0x8c5be1e5ebec7d5bd14f71427d1e84f3dd0314c0f7b2291e5b200ac8c7c3b925",
            "0x0000000000000000000000009a8f92a830a5cb89a3816e3d267cb7791c16b04d",
            "0x00000000000000000000000039e4a5a7ded068831ea8d1c1012cea07a811f624"
          ],
          "data": "0x00000000000000000000000000000000000000000000000000000000000f4240",
          "blockHash": "0xe625289bfe1bac1cf8e6201c4f47c44764ed61fd6a6b26ab76f10ab47084b8d5",
          "blockNumber": "0x19bdb2fe",
          "blockTimestamp": "0x698fddb8",
          "transactionHash": "0xeb48a16fbdf5c5b7738a23eedc5f0c93ce2bac2dad91b0d2e23308f30d05ee14",
          "transactionIndex": "0x2",
          "logIndex": "0x0",
          "removed": false
        }
      ],
      "logsBloom": "0x00000000000000000000000000000000000000000000000000000000000000000000000000000000000000000000000000000000000000004000000000200000000010000000000000000000000000000000000000000000000000000000000000000000000000000000000000000000000000000000000000000000040000000000000000000000000000000000000000000000000000000000000000000000020000000000000000000000000000000000000000000000000000000000000000008000000000800000000000000000000000000000000000000000000000000011000000000000000010000800000010000000000000000000000000000000",
      "type": "0x2",
      "transactionHash": "0xeb48a16fbdf5c5b7738a23eedc5f0c93ce2bac2dad91b0d2e23308f30d05ee14",
      "transactionIndex": "0x2",
      "blockHash": "0xe625289bfe1bac1cf8e6201c4f47c44764ed61fd6a6b26ab76f10ab47084b8d5",
      "blockNumber": "0x19bdb2fe",
      "gasUsed": "0xd188",
      "effectiveGasPrice": "0x1319290",
      "from": "0x9a8f92a830a5cb89a3816e3d267cb7791c16b04d",
      "to": "0xfd086bc7cd5c481dcc9c85ebe478a1c0b69fcbb9",
      "contractAddress": null,
      "gasUsedForL1": "0x46",
      "l1BlockNumber": "0x1751bc5",
      "timeboosted": false
    },
    {
      "status": "0x1",
      "cumulativeGasUsed": "0xf184f",
      "logs": [
        {
          "address": "0xfd086bc7cd5c481dcc9c85ebe478a1c0b69fcbb9",
          "topics": [
            "0xddf252ad1be2c89b69c2b068fc378daa952ba7f163c4a11628f55a4df523b3ef",
            "0x0000000000000000000000009a8f92a830a5cb89a3816e3d267cb7791c16b04d",
            "0x00000000000000000000000039e4a5a7ded068831ea8d1c1012cea07a811f624"
          ],
          "data": "0x00000000000000000000000000000000000000000000000000000000000f4240",
          "blockHash": "0x3af2e9363480c16b29adf8893a6d769549c59efa82454976ae411137d718c21f",
          "blockNumber": "0x19bdb300",
          "blockTimestamp": "0x698fddb9",
          "transactionHash": "0x3ecc89158d8fb762917136876cac37f27654d88d803cb34fad42f3d692e053df",
          "transactionIndex": "0xc",
          "logIndex": "0x5",
          "removed": false
        },
        {
          "address": "0xfd086bc7cd5c481dcc9c85ebe478a1c0b69fcbb9",
          "topics": [
            "0x8c5be1e5ebec7d5bd14f71427d1e84f3dd0314c0f7b2291e5b200ac8c7c3b925",
            "0x0000000000000000000000009a8f92a830a5cb89a3816e3d267cb7791c16b04d",
            "0x00000000000000000000000039e4a5a7ded068831ea8d1c1012cea07a811f624"
          ],
          "data": "0x0000000000000000000000000000000000000000000000000000000000000000",
          "blockHash": "0x3af2e9363480c16b29adf8893a6d769549c59efa82454976ae411137d718c21f",
          "blockNumber": "0x19bdb300",
          "blockTimestamp": "0x698fddb9",
          "transactionHash": "0x3ecc89158d8fb762917136876cac37f27654d88d803cb34fad42f3d692e053df",
          "transactionIndex": "0xc",
          "logIndex": "0x6",
          "removed": false
        },
        {
          "address": "0xfd086bc7cd5c481dcc9c85ebe478a1c0b69fcbb9",
          "topics": [
            "0x8c5be1e5ebec7d5bd14f71427d1e84f3dd0314c0f7b2291e5b200ac8c7c3b925",
            "0x00000000000000000000000039e4a5a7ded068831ea8d1c1012cea07a811f624",
            "0x00000000000000000000000014e4a1b13bf7f943c8ff7c51fb60fa964a298d92"
          ],
          "data": "0x00000000000000000000000000000000000000000000000000000000000f4240",
          "blockHash": "0x3af2e9363480c16b29adf8893a6d769549c59efa82454976ae411137d718c21f",
          "blockNumber": "0x19bdb300",
          "blockTimestamp": "0x698fddb9",
          "transactionHash": "0x3ecc89158d8fb762917136876cac37f27654d88d803cb34fad42f3d692e053df",
          "transactionIndex": "0xc",
          "logIndex": "0x7",
          "removed": false
        },
        {
          "address": "0xfd086bc7cd5c481dcc9c85ebe478a1c0b69fcbb9",
          "topics": [
            "0xddf252ad1be2c89b69c2b068fc378daa952ba7f163c4a11628f55a4df523b3ef",
            "0x00000000000000000000000039e4a5a7ded068831ea8d1c1012cea07a811f624",
            "0x0000000000000000000000000000000000000000000000000000000000000000"
          ],
          "data": "0x00000000000000000000000000000000000000000000000000000000000f4240",
          "blockHash": "0x3af2e9363480c16b29adf8893a6d769549c59efa82454976ae411137d718c21f",
          "blockNumber": "0x19bdb300",
          "blockTimestamp": "0x698fddb9",
          "transactionHash": "0x3ecc89158d8fb762917136876cac37f27654d88d803cb34fad42f3d692e053df",
          "transactionIndex": "0xc",
          "logIndex": "0x8",
          "removed": false
        },
        {
          "address": "0xfd086bc7cd5c481dcc9c85ebe478a1c0b69fcbb9",
          "topics": [
            "0xcc16f5dbb4873280815c1ee09dbd06736cffcc184412cf7a71a0fdb75d397ca5",
            "0x00000000000000000000000039e4a5a7ded068831ea8d1c1012cea07a811f624"
          ],
          "data": "0x00000000000000000000000000000000000000000000000000000000000f4240",
          "blockHash": "0x3af2e9363480c16b29adf8893a6d769549c59efa82454976ae411137d718c21f",
          "blockNumber": "0x19bdb300",
          "blockTimestamp": "0x698fddb9",
          "transactionHash": "0x3ecc89158d8fb762917136876cac37f27654d88d803cb34fad42f3d692e053df",
          "transactionIndex": "0xc",
          "logIndex": "0x9",
          "removed": false
        },
        {
          "address": "0x975bcd720be66659e3eb3c0e4f1866a3020e493a",
          "topics": ["0x61ed099e74a97a1d7f8bb0952a88ca8b7b8ebd00c126ea04671f92a81213318a"],
          "data": "0x00000000000000000000000031cae3b7fb82d847621859fb1585353c5720660d00000000000000000000000000000000000000000000000000000b658a56719f",
          "blockHash": "0x3af2e9363480c16b29adf8893a6d769549c59efa82454976ae411137d718c21f",
          "blockNumber": "0x19bdb300",
          "blockTimestamp": "0x698fddb9",
          "transactionHash": "0x3ecc89158d8fb762917136876cac37f27654d88d803cb34fad42f3d692e053df",
          "transactionIndex": "0xc",
          "logIndex": "0xa",
          "removed": false
        },
        {
          "address": "0x975bcd720be66659e3eb3c0e4f1866a3020e493a",
          "topics": ["0x07ea52d82345d6e838192107d8fd7123d9c2ec8e916cd0aad13fd2b60db24644"],
          "data": "0x000000000000000000000000000000000000000000000000000000000000006000000000000000000000000000000000000000000000000000000000000000c000000000000000000000000000000000000000000000000000000000000000e000000000000000000000000000000000000000000000000000000000000000020000000000000000000000002f55c492897526677c5b68fb199ea31e2c126416000000000000000000000000a8b8575fa41c305953f519c7d288cd7741727c7b0000000000000000000000000000000000000000000000000000000000000000000000000000000000000000000000000000000000000000000000000000000200000000000000000000000000000000000000000000000000000038905a16100000000000000000000000000000000000000000000000000000003a4328103e",
          "blockHash": "0x3af2e9363480c16b29adf8893a6d769549c59efa82454976ae411137d718c21f",
          "blockNumber": "0x19bdb300",
          "blockTimestamp": "0x698fddb9",
          "transactionHash": "0x3ecc89158d8fb762917136876cac37f27654d88d803cb34fad42f3d692e053df",
          "transactionIndex": "0xc",
          "logIndex": "0xb",
          "removed": false
        },
        {
          "address": "0x1a44076050125825900e736c501f859c50fe728c",
          "topics": ["0x1ab700d4ced0c005b164c0f789fd09fcbb0156d4c2041b8a3bfbcd961cd1567f"],
          "data": "0x000000000000000000000000000000000000000000000000000000000000006000000000000000000000000000000000000000000000000000000000000002a0000000000000000000000000975bcd720be66659e3eb3c0e4f1866a3020e493a0000000000000000000000000000000000000000000000000000000000000219010000000000006e070000759e00000000000000000000000014e4a1b13bf7f943c8ff7c51fb60fa964a298d920000769f000000000000000000000000904861a24f30ec96ea7cfc3be9ea4b476d237e986e601735198f0b9fde7addc4ca536c26efb8b00a159babdee75430fa61869fc90000000000000000000000000ca8316a6fcc15c833a220c40d84550b0833943800000000000f424000000000000000000000000039e4a5a7ded068831ea8d1c1012cea07a811f62400000000000000000000000000000000000000000000000000000000698fddad00000000000000000000000000000000000000000000000000000000000f4240000000000000000000000000000000000000000000000000000000000000006400000000000000000000000000000000000000000000000000000000000000c80000000000000000000000009a8f92a830a5cb89a3816e3d267cb7791c16b04d000000000000000000000000b8ce59fc3717ada4c02eadf9682a9e934f625ebb00000000000000000000000000000000000000000000000000000000ffffffff0000000000000000000000000000000000000000000000000000000000000000000000000000000000000000000000000000000000000000000000000000000000000000000000000000000000000000000000000000000000000000000001400000000000000000000000000000000000000000000000000000000000000000000000000000000000000000000000000000000000000000000000000000000000000000000056000301001101000000000000000000000000000186a0010013030000000000000000000000000000000186a00100110100000000000000000000000000030d40010013030000000000000000000000000000000493e000000000000000000000",
          "blockHash": "0x3af2e9363480c16b29adf8893a6d769549c59efa82454976ae411137d718c21f",
          "blockNumber": "0x19bdb300",
          "blockTimestamp": "0x698fddb9",
          "transactionHash": "0x3ecc89158d8fb762917136876cac37f27654d88d803cb34fad42f3d692e053df",
          "transactionIndex": "0xc",
          "logIndex": "0xc",
          "removed": false
        },
        {
          "address": "0x14e4a1b13bf7f943c8ff7c51fb60fa964a298d92",
          "topics": [
            "0x85496b760a4b7f8d66384b9df21b381f5d1b1e79f229a47aaf4c232edc2fe59a",
            "0x6e601735198f0b9fde7addc4ca536c26efb8b00a159babdee75430fa61869fc9",
            "0x00000000000000000000000039e4a5a7ded068831ea8d1c1012cea07a811f624"
          ],
          "data": "0x000000000000000000000000000000000000000000000000000000000000769f00000000000000000000000000000000000000000000000000000000000f424000000000000000000000000000000000000000000000000000000000000f4240",
          "blockHash": "0x3af2e9363480c16b29adf8893a6d769549c59efa82454976ae411137d718c21f",
          "blockNumber": "0x19bdb300",
          "blockTimestamp": "0x698fddb9",
          "transactionHash": "0x3ecc89158d8fb762917136876cac37f27654d88d803cb34fad42f3d692e053df",
          "transactionIndex": "0xc",
          "logIndex": "0xd",
          "removed": false
        },
        {
          "address": "0x39e4a5a7ded068831ea8d1c1012cea07a811f624",
          "topics": [
            "0x8fb515a2e89f5acfca1124e69e331c2cded0ca216b578ba531720f6841139dbf",
            "0x00000000000000000000000000000000000000000000000000000000698fddad",
            "0x0000000000000000000000009a8f92a830a5cb89a3816e3d267cb7791c16b04d",
            "0x0000000000000000000000009a8f92a830a5cb89a3816e3d267cb7791c16b04d"
          ],
          "data": "0x0000000000000000000000000ca8316a6fcc15c833a220c40d84550b0833943800000000000000000000000000000000000000000000000000000000698febbd000000000000000000000000000000000000000000000000000000000000006400000000000000000000000000000000000000000000000000000000000000c8000000000000000000000000b8ce59fc3717ada4c02eadf9682a9e934f625ebb00000000000000000000000000000000000000000000000000000000000000c0000000000000000000000000000000000000000000000000000000000000004144edc0c1ec32dc3075898709d7b2666cae8991928708caf298f67e6f2e5145457227ccd92b0ef2aa7ca0e08d6adc1ff78c8210f4f9942a6ab54179670e53926b1c00000000000000000000000000000000000000000000000000000000000000",
          "blockHash": "0x3af2e9363480c16b29adf8893a6d769549c59efa82454976ae411137d718c21f",
          "blockNumber": "0x19bdb300",
          "blockTimestamp": "0x698fddb9",
          "transactionHash": "0x3ecc89158d8fb762917136876cac37f27654d88d803cb34fad42f3d692e053df",
          "transactionIndex": "0xc",
          "logIndex": "0xe",
          "removed": false
        }
      ],
      "logsBloom": "0x00000008000000000000000000000000008000000000001000000020001000000000000000000000000000000200000000000000000440004000000000200400000012000000100000000018000000000000000000000000000000000000000000000000020800008000080000000800080000000010000000000010040000000000000000000000000000080000000000000000000000000000000000200000020000008000000000100000000000020000000000442000400440010000008000108002000000800000000080000000000000000000040000000000000020200011040000000000000010000800002010000000018000000000000080000000",
      "type": "0x2",
      "transactionHash": "0x3ecc89158d8fb762917136876cac37f27654d88d803cb34fad42f3d692e053df",
      "transactionIndex": "0xc",
      "blockHash": "0x3af2e9363480c16b29adf8893a6d769549c59efa82454976ae411137d718c21f",
      "blockNumber": "0x19bdb300",
      "gasUsed": "0x7324b",
      "effectiveGasPrice": "0x132c340",
      "from": "0x9a8f92a830a5cb89a3816e3d267cb7791c16b04d",
      "to": "0x39e4a5a7ded068831ea8d1c1012cea07a811f624",
      "contractAddress": null,
      "gasUsedForL1": "0xb1",
      "l1BlockNumber": "0x1751bc5",
      "timeboosted": false
    }
  ],
  "libraries": [],
  "pending": [],
  "returns": {},
  "timestamp": 1771036089315,
  "chain": 42161,
  "commit": "b67446dd"
}
