{
  "transactions": [
    {
      "hash": "0x8c24388da6fb17be71a11d89a02ac7b7b83644475ea6af8ec18479f0581749c6",
      "transactionType": "CALL",
      "contractName": null,
      "contractAddress": "0xfd086bc7cd5c481dcc9c85ebe478a1c0b69fcbb9",
      "function": "approve(address,uint256)",
      "arguments": ["0xA0C112CEEF3d6322e066F6A64bf7dabaAc31F557", "11002200"],
      "transaction": {
        "from": "0x9a8f92a830a5cb89a3816e3d267cb7791c16b04d",
        "to": "0xfd086bc7cd5c481dcc9c85ebe478a1c0b69fcbb9",
        "gas": "0x11412",
        "value": "0x0",
        "input": "0x095ea7b3000000000000000000000000a0c112ceef3d6322e066f6a64bf7dabaac31f5570000000000000000000000000000000000000000000000000000000000a7e158",
        "nonce": "0x1810",
        "chainId": "0xa4b1"
      },
      "additionalContracts": [],
      "isFixedGasLimit": false
    },
    {
      "hash": "0xb8b9fe7121ff98b7c5e61e2522f4de8a84a21ee9a02f231a77ab44c88c052ac0",
      "transactionType": "CALL",
      "contractName": "SponsoredOFTSrcPeriphery",
      "contractAddress": "0xa0c112ceef3d6322e066f6a64bf7dabaac31f557",
      "function": "deposit(((uint32,uint32,bytes32,uint256,bytes32,uint256,uint256,bytes32,bytes32,uint32,uint256,uint256,uint256,uint8,uint8,bytes),(address,uint256)),bytes)",
      "arguments": [
        "((30110, 30367, 0x000000000000000000000000a738e39d3436e4ea0aecf255bceaa7b70cc0271f, 11002200, 0x000000000000000000000000000000000000000000000000000000006944d98d, 1766123421, 0, 0x000000000000000000000000027cf16f88bf0ea900cf0e3b81e12f89ba3bd73d, 0x000000000000000000000000b88339cb7199b77e23db6e890353e22632ba630f, 4294967295, 200000, 300000, 0, 1, 0, 0x), (0x9A8f92a830A5cB89a3816e3D267CB7791c16b04D, 200))",
        "0x55f27700bfb32d6e2799de25a5960be07401ecbda65b8a4fc5d0123624bbf91d7f8972b4aa7d93589930c88ceff7368e115886bea7310e41511a676251f052b41b"
      ],
      "transaction": {
        "from": "0x9a8f92a830a5cb89a3816e3d267cb7791c16b04d",
        "to": "0xa0c112ceef3d6322e066f6a64bf7dabaac31f557",
        "gas": "0xa2935",
        "value": "0x75164b7b3d9",
        "input": "0x5413843a000000000000000000000000000000000000000000000000000000000000004000000000000000000000000000000000000000000000000000000000000002c000000000000000000000000000000000000000000000000000000000000000600000000000000000000000009a8f92a830a5cb89a3816e3d267cb7791c16b04d00000000000000000000000000000000000000000000000000000000000000c8000000000000000000000000000000000000000000000000000000000000759e000000000000000000000000000000000000000000000000000000000000769f000000000000000000000000a738e39d3436e4ea0aecf255bceaa7b70cc0271f0000000000000000000000000000000000000000000000000000000000a7e158000000000000000000000000000000000000000000000000000000006944d98d000000000000000000000000000000000000000000000000000000006944e79d0000000000000000000000000000000000000000000000000000000000000000000000000000000000000000027cf16f88bf0ea900cf0e3b81e12f89ba3bd73d000000000000000000000000b88339cb7199b77e23db6e890353e22632ba630f00000000000000000000000000000000000000000000000000000000ffffffff0000000000000000000000000000000000000000000000000000000000030d4000000000000000000000000000000000000000000000000000000000000493e000000000000000000000000000000000000000000000000000000000000000000000000000000000000000000000000000000000000000000000000000000001000000000000000000000000000000000000000000000000000000000000000000000000000000000000000000000000000000000000000000000000000002000000000000000000000000000000000000000000000000000000000000000000000000000000000000000000000000000000000000000000000000000000004155f27700bfb32d6e2799de25a5960be07401ecbda65b8a4fc5d0123624bbf91d7f8972b4aa7d93589930c88ceff7368e115886bea7310e41511a676251f052b41b00000000000000000000000000000000000000000000000000000000000000",
        "nonce": "0x1811",
        "chainId": "0xa4b1"
      },
      "additionalContracts": [],
      "isFixedGasLimit": false
    }
  ],
  "receipts": [
    {
      "status": "0x1",
      "cumulativeGasUsed": "0x2f48f",
      "logs": [
        {
          "address": "0xfd086bc7cd5c481dcc9c85ebe478a1c0b69fcbb9",
          "topics": [
            "0x8c5be1e5ebec7d5bd14f71427d1e84f3dd0314c0f7b2291e5b200ac8c7c3b925",
            "0x0000000000000000000000009a8f92a830a5cb89a3816e3d267cb7791c16b04d",
            "0x000000000000000000000000a0c112ceef3d6322e066f6a64bf7dabaac31f557"
          ],
          "data": "0x0000000000000000000000000000000000000000000000000000000000a7e158",
          "blockHash": "0x5b0110a6563f062d9a91f4fc2e8c509b8c1a3a11e81afe13f797dd76b96306a5",
          "blockNumber": "0x18912c02",
          "blockTimestamp": "0x6944d994",
          "transactionHash": "0x8c24388da6fb17be71a11d89a02ac7b7b83644475ea6af8ec18479f0581749c6",
          "transactionIndex": "0x4",
          "logIndex": "0x1",
          "removed": false
        }
      ],
      "logsBloom": "0x00000000000000000000000000000000000000000000000000000000000100000000000000000000000000000000000000000000000000000000000000200000000010000000000000000000000000000000000000000000000000000000000000000000000000000000000000000000000000000000000000000000040000000000000000000000000000000000000000000000000000000000000000000000020000000000000000000000000000000000000000000000000000000000000000008000004000800400000000000000000000000000000000000000000000000011000000000000000000000000000010000000000000000000000000000000",
      "type": "0x2",
      "transactionHash": "0x8c24388da6fb17be71a11d89a02ac7b7b83644475ea6af8ec18479f0581749c6",
      "transactionIndex": "0x4",
      "blockHash": "0x5b0110a6563f062d9a91f4fc2e8c509b8c1a3a11e81afe13f797dd76b96306a5",
      "blockNumber": "0x18912c02",
      "gasUsed": "0xd142",
      "effectiveGasPrice": "0x989680",
      "from": "0x9a8f92a830a5cb89a3816e3d267cb7791c16b04d",
      "to": "0xfd086bc7cd5c481dcc9c85ebe478a1c0b69fcbb9",
      "contractAddress": null,
      "gasUsedForL1": "0x0",
      "l1BlockNumber": "0x16ee34c",
      "timeboosted": false
    },
    {
      "status": "0x1",
      "cumulativeGasUsed": "0xb2438",
      "logs": [
        {
          "address": "0xfd086bc7cd5c481dcc9c85ebe478a1c0b69fcbb9",
          "topics": [
            "0xddf252ad1be2c89b69c2b068fc378daa952ba7f163c4a11628f55a4df523b3ef",
            "0x0000000000000000000000009a8f92a830a5cb89a3816e3d267cb7791c16b04d",
            "0x000000000000000000000000a0c112ceef3d6322e066f6a64bf7dabaac31f557"
          ],
          "data": "0x0000000000000000000000000000000000000000000000000000000000a7e158",
          "blockHash": "0xa9665aacfe98476b2d98394a4d8ccd06ae99a95078965d5087c3efa31af4f3d5",
          "blockNumber": "0x18912c04",
          "blockTimestamp": "0x6944d995",
          "transactionHash": "0xb8b9fe7121ff98b7c5e61e2522f4de8a84a21ee9a02f231a77ab44c88c052ac0",
          "transactionIndex": "0x4",
          "logIndex": "0x5",
          "removed": false
        },
        {
          "address": "0xfd086bc7cd5c481dcc9c85ebe478a1c0b69fcbb9",
          "topics": [
            "0x8c5be1e5ebec7d5bd14f71427d1e84f3dd0314c0f7b2291e5b200ac8c7c3b925",
            "0x0000000000000000000000009a8f92a830a5cb89a3816e3d267cb7791c16b04d",
            "0x000000000000000000000000a0c112ceef3d6322e066f6a64bf7dabaac31f557"
          ],
          "data": "0x0000000000000000000000000000000000000000000000000000000000000000",
          "blockHash": "0xa9665aacfe98476b2d98394a4d8ccd06ae99a95078965d5087c3efa31af4f3d5",
          "blockNumber": "0x18912c04",
          "blockTimestamp": "0x6944d995",
          "transactionHash": "0xb8b9fe7121ff98b7c5e61e2522f4de8a84a21ee9a02f231a77ab44c88c052ac0",
          "transactionIndex": "0x4",
          "logIndex": "0x6",
          "removed": false
        },
        {
          "address": "0xfd086bc7cd5c481dcc9c85ebe478a1c0b69fcbb9",
          "topics": [
            "0x8c5be1e5ebec7d5bd14f71427d1e84f3dd0314c0f7b2291e5b200ac8c7c3b925",
            "0x000000000000000000000000a0c112ceef3d6322e066f6a64bf7dabaac31f557",
            "0x00000000000000000000000014e4a1b13bf7f943c8ff7c51fb60fa964a298d92"
          ],
          "data": "0x0000000000000000000000000000000000000000000000000000000000a7e158",
          "blockHash": "0xa9665aacfe98476b2d98394a4d8ccd06ae99a95078965d5087c3efa31af4f3d5",
          "blockNumber": "0x18912c04",
          "blockTimestamp": "0x6944d995",
          "transactionHash": "0xb8b9fe7121ff98b7c5e61e2522f4de8a84a21ee9a02f231a77ab44c88c052ac0",
          "transactionIndex": "0x4",
          "logIndex": "0x7",
          "removed": false
        },
        {
          "address": "0xfd086bc7cd5c481dcc9c85ebe478a1c0b69fcbb9",
          "topics": [
            "0xddf252ad1be2c89b69c2b068fc378daa952ba7f163c4a11628f55a4df523b3ef",
            "0x000000000000000000000000a0c112ceef3d6322e066f6a64bf7dabaac31f557",
            "0x0000000000000000000000000000000000000000000000000000000000000000"
          ],
          "data": "0x0000000000000000000000000000000000000000000000000000000000a7e158",
          "blockHash": "0xa9665aacfe98476b2d98394a4d8ccd06ae99a95078965d5087c3efa31af4f3d5",
          "blockNumber": "0x18912c04",
          "blockTimestamp": "0x6944d995",
          "transactionHash": "0xb8b9fe7121ff98b7c5e61e2522f4de8a84a21ee9a02f231a77ab44c88c052ac0",
          "transactionIndex": "0x4",
          "logIndex": "0x8",
          "removed": false
        },
        {
          "address": "0xfd086bc7cd5c481dcc9c85ebe478a1c0b69fcbb9",
          "topics": [
            "0xcc16f5dbb4873280815c1ee09dbd06736cffcc184412cf7a71a0fdb75d397ca5",
            "0x000000000000000000000000a0c112ceef3d6322e066f6a64bf7dabaac31f557"
          ],
          "data": "0x0000000000000000000000000000000000000000000000000000000000a7e158",
          "blockHash": "0xa9665aacfe98476b2d98394a4d8ccd06ae99a95078965d5087c3efa31af4f3d5",
          "blockNumber": "0x18912c04",
          "blockTimestamp": "0x6944d995",
          "transactionHash": "0xb8b9fe7121ff98b7c5e61e2522f4de8a84a21ee9a02f231a77ab44c88c052ac0",
          "transactionIndex": "0x4",
          "logIndex": "0x9",
          "removed": false
        },
        {
          "address": "0x975bcd720be66659e3eb3c0e4f1866a3020e493a",
          "topics": ["0x61ed099e74a97a1d7f8bb0952a88ca8b7b8ebd00c126ea04671f92a81213318a"],
          "data": "0x00000000000000000000000031cae3b7fb82d847621859fb1585353c5720660d0000000000000000000000000000000000000000000000000000072ae97a837b",
          "blockHash": "0xa9665aacfe98476b2d98394a4d8ccd06ae99a95078965d5087c3efa31af4f3d5",
          "blockNumber": "0x18912c04",
          "blockTimestamp": "0x6944d995",
          "transactionHash": "0xb8b9fe7121ff98b7c5e61e2522f4de8a84a21ee9a02f231a77ab44c88c052ac0",
          "transactionIndex": "0x4",
          "logIndex": "0xa",
          "removed": false
        },
        {
          "address": "0x975bcd720be66659e3eb3c0e4f1866a3020e493a",
          "topics": ["0x07ea52d82345d6e838192107d8fd7123d9c2ec8e916cd0aad13fd2b60db24644"],
          "data": "0x000000000000000000000000000000000000000000000000000000000000006000000000000000000000000000000000000000000000000000000000000000c000000000000000000000000000000000000000000000000000000000000000e000000000000000000000000000000000000000000000000000000000000000020000000000000000000000002f55c492897526677c5b68fb199ea31e2c126416000000000000000000000000a8b8575fa41c305953f519c7d288cd7741727c7b0000000000000000000000000000000000000000000000000000000000000000000000000000000000000000000000000000000000000000000000000000000200000000000000000000000000000000000000000000000000000012f4c315d400000000000000000000000000000000000000000000000000000013867a1a8a",
          "blockHash": "0xa9665aacfe98476b2d98394a4d8ccd06ae99a95078965d5087c3efa31af4f3d5",
          "blockNumber": "0x18912c04",
          "blockTimestamp": "0x6944d995",
          "transactionHash": "0xb8b9fe7121ff98b7c5e61e2522f4de8a84a21ee9a02f231a77ab44c88c052ac0",
          "transactionIndex": "0x4",
          "logIndex": "0xb",
          "removed": false
        },
        {
          "address": "0x1a44076050125825900e736c501f859c50fe728c",
          "topics": ["0x1ab700d4ced0c005b164c0f789fd09fcbb0156d4c2041b8a3bfbcd961cd1567f"],
          "data": "0x000000000000000000000000000000000000000000000000000000000000006000000000000000000000000000000000000000000000000000000000000002c0000000000000000000000000975bcd720be66659e3eb3c0e4f1866a3020e493a00000000000000000000000000000000000000000000000000000000000002390100000000000065ae0000759e00000000000000000000000014e4a1b13bf7f943c8ff7c51fb60fa964a298d920000769f000000000000000000000000904861a24f30ec96ea7cfc3be9ea4b476d237e98bc172499a96567ab9a5e5998e934fdbeeff6d010f5d3dd54b194c52b3ab219c9000000000000000000000000a738e39d3436e4ea0aecf255bceaa7b70cc0271f0000000000a7e158000000000000000000000000a0c112ceef3d6322e066f6a64bf7dabaac31f557000000000000000000000000000000000000000000000000000000006944d98d0000000000000000000000000000000000000000000000000000000000a7e158000000000000000000000000000000000000000000000000000000006944e79d000000000000000000000000000000000000000000000000000000000000000000000000000000000000000000000000000000000000000000000000000000c8000000000000000000000000027cf16f88bf0ea900cf0e3b81e12f89ba3bd73d000000000000000000000000b88339cb7199b77e23db6e890353e22632ba630f00000000000000000000000000000000000000000000000000000000ffffffff0000000000000000000000000000000000000000000000000000000000000001000000000000000000000000000000000000000000000000000000000000000000000000000000000000000000000000000000000000000000000000000001600000000000000000000000000000000000000000000000000000000000000000000000000000000000000000000000000000000000000000000000000000000000000000000056000301001101000000000000000000000000000186a0010013030000000000000000000000000000000186a00100110100000000000000000000000000030d40010013030000000000000000000000000000000493e000000000000000000000",
          "blockHash": "0xa9665aacfe98476b2d98394a4d8ccd06ae99a95078965d5087c3efa31af4f3d5",
          "blockNumber": "0x18912c04",
          "blockTimestamp": "0x6944d995",
          "transactionHash": "0xb8b9fe7121ff98b7c5e61e2522f4de8a84a21ee9a02f231a77ab44c88c052ac0",
          "transactionIndex": "0x4",
          "logIndex": "0xc",
          "removed": false
        },
        {
          "address": "0x14e4a1b13bf7f943c8ff7c51fb60fa964a298d92",
          "topics": [
            "0x85496b760a4b7f8d66384b9df21b381f5d1b1e79f229a47aaf4c232edc2fe59a",
            "0xbc172499a96567ab9a5e5998e934fdbeeff6d010f5d3dd54b194c52b3ab219c9",
            "0x000000000000000000000000a0c112ceef3d6322e066f6a64bf7dabaac31f557"
          ],
          "data": "0x000000000000000000000000000000000000000000000000000000000000769f0000000000000000000000000000000000000000000000000000000000a7e1580000000000000000000000000000000000000000000000000000000000a7e158",
          "blockHash": "0xa9665aacfe98476b2d98394a4d8ccd06ae99a95078965d5087c3efa31af4f3d5",
          "blockNumber": "0x18912c04",
          "blockTimestamp": "0x6944d995",
          "transactionHash": "0xb8b9fe7121ff98b7c5e61e2522f4de8a84a21ee9a02f231a77ab44c88c052ac0",
          "transactionIndex": "0x4",
          "logIndex": "0xd",
          "removed": false
        },
        {
          "address": "0xa0c112ceef3d6322e066f6a64bf7dabaac31f557",
          "topics": [
            "0x8fb515a2e89f5acfca1124e69e331c2cded0ca216b578ba531720f6841139dbf",
            "0x000000000000000000000000000000000000000000000000000000006944d98d",
            "0x0000000000000000000000009a8f92a830a5cb89a3816e3d267cb7791c16b04d",
            "0x000000000000000000000000027cf16f88bf0ea900cf0e3b81e12f89ba3bd73d"
          ],
          "data": "0x000000000000000000000000a738e39d3436e4ea0aecf255bceaa7b70cc0271f000000000000000000000000000000000000000000000000000000006944e79d000000000000000000000000000000000000000000000000000000000000000000000000000000000000000000000000000000000000000000000000000000c8000000000000000000000000b88339cb7199b77e23db6e890353e22632ba630f00000000000000000000000000000000000000000000000000000000000000c0000000000000000000000000000000000000000000000000000000000000004155f27700bfb32d6e2799de25a5960be07401ecbda65b8a4fc5d0123624bbf91d7f8972b4aa7d93589930c88ceff7368e115886bea7310e41511a676251f052b41b00000000000000000000000000000000000000000000000000000000000000",
          "blockHash": "0xa9665aacfe98476b2d98394a4d8ccd06ae99a95078965d5087c3efa31af4f3d5",
          "blockNumber": "0x18912c04",
          "blockTimestamp": "0x6944d995",
          "transactionHash": "0xb8b9fe7121ff98b7c5e61e2522f4de8a84a21ee9a02f231a77ab44c88c052ac0",
          "transactionIndex": "0x4",
          "logIndex": "0xe",
          "removed": false
        }
      ],
      "logsBloom": "0x00000000000000000000000000000000008000000000001000000000001100000040000000000000000000000200000000000000000440000000000000200400000012000000300000000018000000000000000000000000000000000000000000000000020800008000000000000800080000000010000000000010440000000000000000000000000000180000000000000000000000000000001000200000020000008000000000100000000000060000000000400000400440000000008000008002004000800400000080000000000000000020000000000000000020000013040000008000000000800000002010000000018000000000000080000000",
      "type": "0x2",
      "transactionHash": "0xb8b9fe7121ff98b7c5e61e2522f4de8a84a21ee9a02f231a77ab44c88c052ac0",
      "transactionIndex": "0x4",
      "blockHash": "0xa9665aacfe98476b2d98394a4d8ccd06ae99a95078965d5087c3efa31af4f3d5",
      "blockNumber": "0x18912c04",
      "gasUsed": "0x6f29b",
      "effectiveGasPrice": "0x989680",
      "from": "0x9a8f92a830a5cb89a3816e3d267cb7791c16b04d",
      "to": "0xa0c112ceef3d6322e066f6a64bf7dabaac31f557",
      "contractAddress": null,
      "gasUsedForL1": "0x0",
      "l1BlockNumber": "0x16ee34c",
      "timeboosted": false
    }
  ],
  "libraries": [],
  "pending": [],
  "returns": {},
  "timestamp": 1766119829403,
  "chain": 42161,
  "commit": "451f6e22"
}
