{
  "transactions": [
    {
      "hash": "0xafa1f3e46091ecf01fc11fb012fb9ee94ee2e6fc3aa8fa30252ef9dddfda527e",
      "transactionType": "CALL",
      "contractName": null,
      "contractAddress": "0xfd086bc7cd5c481dcc9c85ebe478a1c0b69fcbb9",
      "function": "approve(address,uint256)",
      "arguments": ["0xA0C112CEEF3d6322e066F6A64bf7dabaAc31F557", "11020000"],
      "transaction": {
        "from": "0x9a8f92a830a5cb89a3816e3d267cb7791c16b04d",
        "to": "0xfd086bc7cd5c481dcc9c85ebe478a1c0b69fcbb9",
        "gas": "0x11412",
        "value": "0x0",
        "input": "0x095ea7b3000000000000000000000000a0c112ceef3d6322e066f6a64bf7dabaac31f5570000000000000000000000000000000000000000000000000000000000a826e0",
        "nonce": "0x180e",
        "chainId": "0xa4b1"
      },
      "additionalContracts": [],
      "isFixedGasLimit": false
    },
    {
      "hash": "0x0b3b5eaf0e3ba428691e599bae18aea0ba3e6529eed72f31be08f7ee4a563b87",
      "transactionType": "CALL",
      "contractName": "SponsoredOFTSrcPeriphery",
      "contractAddress": "0xa0c112ceef3d6322e066f6a64bf7dabaac31f557",
      "function": "deposit(((uint32,uint32,bytes32,uint256,bytes32,uint256,uint256,bytes32,bytes32,uint32,uint256,uint256,uint256,uint8,uint8,bytes),(address,uint256)),bytes)",
      "arguments": [
        "((30110, 30367, 0x00000000000000000000000052a0c0d440bae2e9e5603c752a886f6622513769, 11020000, 0x000000000000000000000000000000000000000000000000000000006944cf40, 1766120784, 100, 0x000000000000000000000000e5e0099fd26100950a568a8542c6ae0a27ea5635, 0x000000000000000000000000b88339cb7199b77e23db6e890353e22632ba630f, 4294967295, 200000, 300000, 0, 1, 0, 0x), (0x9A8f92a830A5cB89a3816e3D267CB7791c16b04D, 200))",
        "0x9d0cbd581172aec25698ef0f0a8af173c4093b869e8a3b0e210bfcefcbf66b3564be3174818815ad58cd2c34347729bc1b9761c037a56d0c95355cb7288abf7f1b"
      ],
      "transaction": {
        "from": "0x9a8f92a830a5cb89a3816e3d267cb7791c16b04d",
        "to": "0xa0c112ceef3d6322e066f6a64bf7dabaac31f557",
        "gas": "0xa2958",
        "value": "0x83da5bb25a5",
        "input": "0x5413843a000000000000000000000000000000000000000000000000000000000000004000000000000000000000000000000000000000000000000000000000000002c000000000000000000000000000000000000000000000000000000000000000600000000000000000000000009a8f92a830a5cb89a3816e3d267cb7791c16b04d00000000000000000000000000000000000000000000000000000000000000c8000000000000000000000000000000000000000000000000000000000000759e000000000000000000000000000000000000000000000000000000000000769f00000000000000000000000052a0c0d440bae2e9e5603c752a886f66225137690000000000000000000000000000000000000000000000000000000000a826e0000000000000000000000000000000000000000000000000000000006944cf40000000000000000000000000000000000000000000000000000000006944dd500000000000000000000000000000000000000000000000000000000000000064000000000000000000000000e5e0099fd26100950a568a8542c6ae0a27ea5635000000000000000000000000b88339cb7199b77e23db6e890353e22632ba630f00000000000000000000000000000000000000000000000000000000ffffffff0000000000000000000000000000000000000000000000000000000000030d4000000000000000000000000000000000000000000000000000000000000493e00000000000000000000000000000000000000000000000000000000000000000000000000000000000000000000000000000000000000000000000000000000100000000000000000000000000000000000000000000000000000000000000000000000000000000000000000000000000000000000000000000000000000200000000000000000000000000000000000000000000000000000000000000000000000000000000000000000000000000000000000000000000000000000000419d0cbd581172aec25698ef0f0a8af173c4093b869e8a3b0e210bfcefcbf66b3564be3174818815ad58cd2c34347729bc1b9761c037a56d0c95355cb7288abf7f1b00000000000000000000000000000000000000000000000000000000000000",
        "nonce": "0x180f",
        "chainId": "0xa4b1"
      },
      "additionalContracts": [],
      "isFixedGasLimit": false
    }
  ],
  "receipts": [
    {
      "status": "0x1",
      "cumulativeGasUsed": "0x5e4ed",
      "logs": [
        {
          "address": "0xfd086bc7cd5c481dcc9c85ebe478a1c0b69fcbb9",
          "topics": [
            "0x8c5be1e5ebec7d5bd14f71427d1e84f3dd0314c0f7b2291e5b200ac8c7c3b925",
            "0x0000000000000000000000009a8f92a830a5cb89a3816e3d267cb7791c16b04d",
            "0x000000000000000000000000a0c112ceef3d6322e066f6a64bf7dabaac31f557"
          ],
          "data": "0x0000000000000000000000000000000000000000000000000000000000a826e0",
          "blockHash": "0xda2dc2c3f09be84f2dd6a84c4005a4e4f631f80139cf7d58068c3a3cf74fbb8b",
          "blockNumber": "0x189102bb",
          "blockTimestamp": "0x6944cf48",
          "transactionHash": "0xafa1f3e46091ecf01fc11fb012fb9ee94ee2e6fc3aa8fa30252ef9dddfda527e",
          "transactionIndex": "0x7",
          "logIndex": "0x2",
          "removed": false
        }
      ],
      "logsBloom": "0x00000000000000000000000000000000000000000000000000000000000100000000000000000000000000000000000000000000000000000000000000200000000010000000000000000000000000000000000000000000000000000000000000000000000000000000000000000000000000000000000000000000040000000000000000000000000000000000000000000000000000000000000000000000020000000000000000000000000000000000000000000000000000000000000000008000004000800400000000000000000000000000000000000000000000000011000000000000000000000000000010000000000000000000000000000000",
      "type": "0x2",
      "transactionHash": "0xafa1f3e46091ecf01fc11fb012fb9ee94ee2e6fc3aa8fa30252ef9dddfda527e",
      "transactionIndex": "0x7",
      "blockHash": "0xda2dc2c3f09be84f2dd6a84c4005a4e4f631f80139cf7d58068c3a3cf74fbb8b",
      "blockNumber": "0x189102bb",
      "gasUsed": "0xd142",
      "effectiveGasPrice": "0x989680",
      "from": "0x9a8f92a830a5cb89a3816e3d267cb7791c16b04d",
      "to": "0xfd086bc7cd5c481dcc9c85ebe478a1c0b69fcbb9",
      "contractAddress": null,
      "gasUsedForL1": "0x0",
      "l1BlockNumber": "0x16ee277",
      "timeboosted": false
    },
    {
      "status": "0x1",
      "cumulativeGasUsed": "0x11bb6c",
      "logs": [
        {
          "address": "0xfd086bc7cd5c481dcc9c85ebe478a1c0b69fcbb9",
          "topics": [
            "0xddf252ad1be2c89b69c2b068fc378daa952ba7f163c4a11628f55a4df523b3ef",
            "0x0000000000000000000000009a8f92a830a5cb89a3816e3d267cb7791c16b04d",
            "0x000000000000000000000000a0c112ceef3d6322e066f6a64bf7dabaac31f557"
          ],
          "data": "0x0000000000000000000000000000000000000000000000000000000000a826e0",
          "blockHash": "0x85aaf275bcd621b06a883a87b5011f2290a8d6890930f66cb2f9ba9b68b3ebe0",
          "blockNumber": "0x189102bd",
          "blockTimestamp": "0x6944cf49",
          "transactionHash": "0x0b3b5eaf0e3ba428691e599bae18aea0ba3e6529eed72f31be08f7ee4a563b87",
          "transactionIndex": "0x6",
          "logIndex": "0xb",
          "removed": false
        },
        {
          "address": "0xfd086bc7cd5c481dcc9c85ebe478a1c0b69fcbb9",
          "topics": [
            "0x8c5be1e5ebec7d5bd14f71427d1e84f3dd0314c0f7b2291e5b200ac8c7c3b925",
            "0x0000000000000000000000009a8f92a830a5cb89a3816e3d267cb7791c16b04d",
            "0x000000000000000000000000a0c112ceef3d6322e066f6a64bf7dabaac31f557"
          ],
          "data": "0x0000000000000000000000000000000000000000000000000000000000000000",
          "blockHash": "0x85aaf275bcd621b06a883a87b5011f2290a8d6890930f66cb2f9ba9b68b3ebe0",
          "blockNumber": "0x189102bd",
          "blockTimestamp": "0x6944cf49",
          "transactionHash": "0x0b3b5eaf0e3ba428691e599bae18aea0ba3e6529eed72f31be08f7ee4a563b87",
          "transactionIndex": "0x6",
          "logIndex": "0xc",
          "removed": false
        },
        {
          "address": "0xfd086bc7cd5c481dcc9c85ebe478a1c0b69fcbb9",
          "topics": [
            "0x8c5be1e5ebec7d5bd14f71427d1e84f3dd0314c0f7b2291e5b200ac8c7c3b925",
            "0x000000000000000000000000a0c112ceef3d6322e066f6a64bf7dabaac31f557",
            "0x00000000000000000000000014e4a1b13bf7f943c8ff7c51fb60fa964a298d92"
          ],
          "data": "0x0000000000000000000000000000000000000000000000000000000000a826e0",
          "blockHash": "0x85aaf275bcd621b06a883a87b5011f2290a8d6890930f66cb2f9ba9b68b3ebe0",
          "blockNumber": "0x189102bd",
          "blockTimestamp": "0x6944cf49",
          "transactionHash": "0x0b3b5eaf0e3ba428691e599bae18aea0ba3e6529eed72f31be08f7ee4a563b87",
          "transactionIndex": "0x6",
          "logIndex": "0xd",
          "removed": false
        },
        {
          "address": "0xfd086bc7cd5c481dcc9c85ebe478a1c0b69fcbb9",
          "topics": [
            "0xddf252ad1be2c89b69c2b068fc378daa952ba7f163c4a11628f55a4df523b3ef",
            "0x000000000000000000000000a0c112ceef3d6322e066f6a64bf7dabaac31f557",
            "0x0000000000000000000000000000000000000000000000000000000000000000"
          ],
          "data": "0x0000000000000000000000000000000000000000000000000000000000a826e0",
          "blockHash": "0x85aaf275bcd621b06a883a87b5011f2290a8d6890930f66cb2f9ba9b68b3ebe0",
          "blockNumber": "0x189102bd",
          "blockTimestamp": "0x6944cf49",
          "transactionHash": "0x0b3b5eaf0e3ba428691e599bae18aea0ba3e6529eed72f31be08f7ee4a563b87",
          "transactionIndex": "0x6",
          "logIndex": "0xe",
          "removed": false
        },
        {
          "address": "0xfd086bc7cd5c481dcc9c85ebe478a1c0b69fcbb9",
          "topics": [
            "0xcc16f5dbb4873280815c1ee09dbd06736cffcc184412cf7a71a0fdb75d397ca5",
            "0x000000000000000000000000a0c112ceef3d6322e066f6a64bf7dabaac31f557"
          ],
          "data": "0x0000000000000000000000000000000000000000000000000000000000a826e0",
          "blockHash": "0x85aaf275bcd621b06a883a87b5011f2290a8d6890930f66cb2f9ba9b68b3ebe0",
          "blockNumber": "0x189102bd",
          "blockTimestamp": "0x6944cf49",
          "transactionHash": "0x0b3b5eaf0e3ba428691e599bae18aea0ba3e6529eed72f31be08f7ee4a563b87",
          "transactionIndex": "0x6",
          "logIndex": "0xf",
          "removed": false
        },
        {
          "address": "0x975bcd720be66659e3eb3c0e4f1866a3020e493a",
          "topics": ["0x61ed099e74a97a1d7f8bb0952a88ca8b7b8ebd00c126ea04671f92a81213318a"],
          "data": "0x00000000000000000000000031cae3b7fb82d847621859fb1585353c5720660d000000000000000000000000000000000000000000000000000007ed3a5c804c",
          "blockHash": "0x85aaf275bcd621b06a883a87b5011f2290a8d6890930f66cb2f9ba9b68b3ebe0",
          "blockNumber": "0x189102bd",
          "blockTimestamp": "0x6944cf49",
          "transactionHash": "0x0b3b5eaf0e3ba428691e599bae18aea0ba3e6529eed72f31be08f7ee4a563b87",
          "transactionIndex": "0x6",
          "logIndex": "0x10",
          "removed": false
        },
        {
          "address": "0x975bcd720be66659e3eb3c0e4f1866a3020e493a",
          "topics": ["0x07ea52d82345d6e838192107d8fd7123d9c2ec8e916cd0aad13fd2b60db24644"],
          "data": "0x000000000000000000000000000000000000000000000000000000000000006000000000000000000000000000000000000000000000000000000000000000c000000000000000000000000000000000000000000000000000000000000000e000000000000000000000000000000000000000000000000000000000000000020000000000000000000000002f55c492897526677c5b68fb199ea31e2c126416000000000000000000000000a8b8575fa41c305953f519c7d288cd7741727c7b00000000000000000000000000000000000000000000000000000000000000000000000000000000000000000000000000000000000000000000000000000002000000000000000000000000000000000000000000000000000000279d6cecc600000000000000000000000000000000000000000000000000000028cdf1b893",
          "blockHash": "0x85aaf275bcd621b06a883a87b5011f2290a8d6890930f66cb2f9ba9b68b3ebe0",
          "blockNumber": "0x189102bd",
          "blockTimestamp": "0x6944cf49",
          "transactionHash": "0x0b3b5eaf0e3ba428691e599bae18aea0ba3e6529eed72f31be08f7ee4a563b87",
          "transactionIndex": "0x6",
          "logIndex": "0x11",
          "removed": false
        },
        {
          "address": "0x1a44076050125825900e736c501f859c50fe728c",
          "topics": ["0x1ab700d4ced0c005b164c0f789fd09fcbb0156d4c2041b8a3bfbcd961cd1567f"],
          "data": "0x000000000000000000000000000000000000000000000000000000000000006000000000000000000000000000000000000000000000000000000000000002c0000000000000000000000000975bcd720be66659e3eb3c0e4f1866a3020e493a00000000000000000000000000000000000000000000000000000000000002390100000000000065ad0000759e00000000000000000000000014e4a1b13bf7f943c8ff7c51fb60fa964a298d920000769f000000000000000000000000904861a24f30ec96ea7cfc3be9ea4b476d237e98078014ee6e4215942a4b4e03cfe83109701053e859c47977f69949b7f9b5ce4200000000000000000000000052a0c0d440bae2e9e5603c752a886f66225137690000000000a826e0000000000000000000000000a0c112ceef3d6322e066f6a64bf7dabaac31f557000000000000000000000000000000000000000000000000000000006944cf400000000000000000000000000000000000000000000000000000000000a826e0000000000000000000000000000000000000000000000000000000006944dd50000000000000000000000000000000000000000000000000000000000000006400000000000000000000000000000000000000000000000000000000000000c8000000000000000000000000e5e0099fd26100950a568a8542c6ae0a27ea5635000000000000000000000000b88339cb7199b77e23db6e890353e22632ba630f00000000000000000000000000000000000000000000000000000000ffffffff0000000000000000000000000000000000000000000000000000000000000001000000000000000000000000000000000000000000000000000000000000000000000000000000000000000000000000000000000000000000000000000001600000000000000000000000000000000000000000000000000000000000000000000000000000000000000000000000000000000000000000000000000000000000000000000056000301001101000000000000000000000000000186a0010013030000000000000000000000000000000186a00100110100000000000000000000000000030d40010013030000000000000000000000000000000493e000000000000000000000",
          "blockHash": "0x85aaf275bcd621b06a883a87b5011f2290a8d6890930f66cb2f9ba9b68b3ebe0",
          "blockNumber": "0x189102bd",
          "blockTimestamp": "0x6944cf49",
          "transactionHash": "0x0b3b5eaf0e3ba428691e599bae18aea0ba3e6529eed72f31be08f7ee4a563b87",
          "transactionIndex": "0x6",
          "logIndex": "0x12",
          "removed": false
        },
        {
          "address": "0x14e4a1b13bf7f943c8ff7c51fb60fa964a298d92",
          "topics": [
            "0x85496b760a4b7f8d66384b9df21b381f5d1b1e79f229a47aaf4c232edc2fe59a",
            "0x078014ee6e4215942a4b4e03cfe83109701053e859c47977f69949b7f9b5ce42",
            "0x000000000000000000000000a0c112ceef3d6322e066f6a64bf7dabaac31f557"
          ],
          "data": "0x000000000000000000000000000000000000000000000000000000000000769f0000000000000000000000000000000000000000000000000000000000a826e00000000000000000000000000000000000000000000000000000000000a826e0",
          "blockHash": "0x85aaf275bcd621b06a883a87b5011f2290a8d6890930f66cb2f9ba9b68b3ebe0",
          "blockNumber": "0x189102bd",
          "blockTimestamp": "0x6944cf49",
          "transactionHash": "0x0b3b5eaf0e3ba428691e599bae18aea0ba3e6529eed72f31be08f7ee4a563b87",
          "transactionIndex": "0x6",
          "logIndex": "0x13",
          "removed": false
        },
        {
          "address": "0xa0c112ceef3d6322e066f6a64bf7dabaac31f557",
          "topics": [
            "0x8fb515a2e89f5acfca1124e69e331c2cded0ca216b578ba531720f6841139dbf",
            "0x000000000000000000000000000000000000000000000000000000006944cf40",
            "0x0000000000000000000000009a8f92a830a5cb89a3816e3d267cb7791c16b04d",
            "0x000000000000000000000000e5e0099fd26100950a568a8542c6ae0a27ea5635"
          ],
          "data": "0x00000000000000000000000052a0c0d440bae2e9e5603c752a886f6622513769000000000000000000000000000000000000000000000000000000006944dd50000000000000000000000000000000000000000000000000000000000000006400000000000000000000000000000000000000000000000000000000000000c8000000000000000000000000b88339cb7199b77e23db6e890353e22632ba630f00000000000000000000000000000000000000000000000000000000000000c000000000000000000000000000000000000000000000000000000000000000419d0cbd581172aec25698ef0f0a8af173c4093b869e8a3b0e210bfcefcbf66b3564be3174818815ad58cd2c34347729bc1b9761c037a56d0c95355cb7288abf7f1b00000000000000000000000000000000000000000000000000000000000000",
          "blockHash": "0x85aaf275bcd621b06a883a87b5011f2290a8d6890930f66cb2f9ba9b68b3ebe0",
          "blockNumber": "0x189102bd",
          "blockTimestamp": "0x6944cf49",
          "transactionHash": "0x0b3b5eaf0e3ba428691e599bae18aea0ba3e6529eed72f31be08f7ee4a563b87",
          "transactionIndex": "0x6",
          "logIndex": "0x14",
          "removed": false
        }
      ],
      "logsBloom": "0x00000000000000000000000000000000008000000000001000000000001100000040000000000000000000000200004000000000000440000000000000200400000012000000100000000018000000000000000002000000000000000000000000000000020800008000000000000800080000000010000800000010040000000000000000000000004000080000000000000000000000000000020000200000020000008000000000100000000000020000000000400a00400440000000008000008002004000800400800080000000000000000024000000000000000020000013040000000000000000000000002010000000018000000000000080000000",
      "type": "0x2",
      "transactionHash": "0x0b3b5eaf0e3ba428691e599bae18aea0ba3e6529eed72f31be08f7ee4a563b87",
      "transactionIndex": "0x6",
      "blockHash": "0x85aaf275bcd621b06a883a87b5011f2290a8d6890930f66cb2f9ba9b68b3ebe0",
      "blockNumber": "0x189102bd",
      "gasUsed": "0x6f2b3",
      "effectiveGasPrice": "0x989680",
      "from": "0x9a8f92a830a5cb89a3816e3d267cb7791c16b04d",
      "to": "0xa0c112ceef3d6322e066f6a64bf7dabaac31f557",
      "contractAddress": null,
      "gasUsedForL1": "0x0",
      "l1BlockNumber": "0x16ee277",
      "timeboosted": false
    }
  ],
  "libraries": [],
  "pending": [],
  "returns": {},
  "timestamp": 1766117193422,
  "chain": 42161,
  "commit": "2f992827"
}
