{
  "transactions": [
    {
      "hash": "0x815a5029781f33e0b67e696298f91320f6148a40ff785f7dd29b6ac5e0fc3e05",
      "transactionType": "CALL",
      "contractName": null,
      "contractAddress": "0xfd086bc7cd5c481dcc9c85ebe478a1c0b69fcbb9",
      "function": "approve(address,uint256)",
      "arguments": ["0x1235Ac1010FeeC8ae22744f323416cBBE37feDbE", "1005456"],
      "transaction": {
        "from": "0x9a8f92a830a5cb89a3816e3d267cb7791c16b04d",
        "to": "0xfd086bc7cd5c481dcc9c85ebe478a1c0b69fcbb9",
        "gas": "0x116ae",
        "value": "0x0",
        "input": "0x095ea7b30000000000000000000000001235ac1010feec8ae22744f323416cbbe37fedbe00000000000000000000000000000000000000000000000000000000000f5790",
        "nonce": "0x1175",
        "chainId": "0xa4b1"
      },
      "additionalContracts": [],
      "isFixedGasLimit": false
    },
    {
      "hash": "0x2bc0a3844389de155fac8a91cae44a01379ab9b13aa135cb69f368985b0ae85a",
      "transactionType": "CALL",
      "contractName": "SponsoredOFTSrcPeriphery",
      "contractAddress": "0x1235ac1010feec8ae22744f323416cbbe37fedbe",
      "function": "deposit(((uint32,uint32,bytes32,uint256,bytes32,uint256,uint256,bytes32,bytes32,uint256,uint256,uint8,bytes),(address,uint256)),bytes)",
      "arguments": [
        "((30110, 30367, 0x0000000000000000000000001425e20d2ecb0bbdeed8fe1f8252724ed084c1a0, 1005456, 0x0000000000000000000000000000000000000000000000000000000000003041, 1761713510, 100, 0x0000000000000000000000009a8f92a830a5cb89a3816e3d267cb7791c16b04d, 0x000000000000000000000000b8ce59fc3717ada4c02eadf9682a9e934f625ebb, 200000, 300000, 0, 0x), (0x9A8f92a830A5cB89a3816e3D267CB7791c16b04D, 50))",
        "0xefec25f89f8cc9179ee03b13d39a616de5ea03cd3766afbad6729e9f44363170372b2a8ed405542d9ee82ee5e20fd125b0c6c0c04b73cd2b5c5837d98362137d1c"
      ],
      "transaction": {
        "from": "0x9a8f92a830a5cb89a3816e3d267cb7791c16b04d",
        "to": "0x1235ac1010feec8ae22744f323416cbbe37fedbe",
        "gas": "0xa76e4",
        "value": "0x5aadf790e09",
        "input": "0xfcc5b1e30000000000000000000000000000000000000000000000000000000000000040000000000000000000000000000000000000000000000000000000000000026000000000000000000000000000000000000000000000000000000000000000600000000000000000000000009a8f92a830a5cb89a3816e3d267cb7791c16b04d0000000000000000000000000000000000000000000000000000000000000032000000000000000000000000000000000000000000000000000000000000759e000000000000000000000000000000000000000000000000000000000000769f0000000000000000000000001425e20d2ecb0bbdeed8fe1f8252724ed084c1a000000000000000000000000000000000000000000000000000000000000f579000000000000000000000000000000000000000000000000000000000000030410000000000000000000000000000000000000000000000000000000069019d6600000000000000000000000000000000000000000000000000000000000000640000000000000000000000009a8f92a830a5cb89a3816e3d267cb7791c16b04d000000000000000000000000b8ce59fc3717ada4c02eadf9682a9e934f625ebb0000000000000000000000000000000000000000000000000000000000030d4000000000000000000000000000000000000000000000000000000000000493e0000000000000000000000000000000000000000000000000000000000000000000000000000000000000000000000000000000000000000000000000000001a000000000000000000000000000000000000000000000000000000000000000000000000000000000000000000000000000000000000000000000000000000041efec25f89f8cc9179ee03b13d39a616de5ea03cd3766afbad6729e9f44363170372b2a8ed405542d9ee82ee5e20fd125b0c6c0c04b73cd2b5c5837d98362137d1c00000000000000000000000000000000000000000000000000000000000000",
        "nonce": "0x1176",
        "chainId": "0xa4b1"
      },
      "additionalContracts": [],
      "isFixedGasLimit": false
    }
  ],
  "receipts": [
    {
      "status": "0x1",
      "cumulativeGasUsed": "0x1729c",
      "logs": [
        {
          "address": "0xfd086bc7cd5c481dcc9c85ebe478a1c0b69fcbb9",
          "topics": [
            "0x8c5be1e5ebec7d5bd14f71427d1e84f3dd0314c0f7b2291e5b200ac8c7c3b925",
            "0x0000000000000000000000009a8f92a830a5cb89a3816e3d267cb7791c16b04d",
            "0x0000000000000000000000001235ac1010feec8ae22744f323416cbbe37fedbe"
          ],
          "data": "0x00000000000000000000000000000000000000000000000000000000000f5790",
          "blockHash": "0xd3a881c015e9b7c97bf051890857164ef61ecc9ce9ed97ba9736c9109612a54b",
          "blockNumber": "0x1783ad73",
          "transactionHash": "0x815a5029781f33e0b67e696298f91320f6148a40ff785f7dd29b6ac5e0fc3e05",
          "transactionIndex": "0x2",
          "logIndex": "0x0",
          "removed": false
        }
      ],
      "logsBloom": "0x00000000000000000000000000000000000000000000000000000000000000000000000000000000000000000000000000000000000000000000000000210000000010000000000000000000000000000000000000000000000000000000000000000000000000000000000000000000000000000000000000000000040000000000000000000000000000000000000000000000000000800000000000002000020000000000000000000000000000000000000000000000000000000000000000008000000000800000000000000000000000000000000000000000000000000011000000000000000000000000000010000000000000000000000000000000",
      "type": "0x2",
      "transactionHash": "0x815a5029781f33e0b67e696298f91320f6148a40ff785f7dd29b6ac5e0fc3e05",
      "transactionIndex": "0x2",
      "blockHash": "0xd3a881c015e9b7c97bf051890857164ef61ecc9ce9ed97ba9736c9109612a54b",
      "blockNumber": "0x1783ad73",
      "gasUsed": "0xd2dd",
      "effectiveGasPrice": "0x989680",
      "from": "0x9a8f92a830a5cb89a3816e3d267cb7791c16b04d",
      "to": "0xfd086bc7cd5c481dcc9c85ebe478a1c0b69fcbb9",
      "contractAddress": null,
      "gasUsedForL1": "0x19b",
      "l1BlockNumber": "0x16955e9",
      "timeboosted": false
    },
    {
      "status": "0x1",
      "cumulativeGasUsed": "0x122090",
      "logs": [
        {
          "address": "0xfd086bc7cd5c481dcc9c85ebe478a1c0b69fcbb9",
          "topics": [
            "0xddf252ad1be2c89b69c2b068fc378daa952ba7f163c4a11628f55a4df523b3ef",
            "0x0000000000000000000000009a8f92a830a5cb89a3816e3d267cb7791c16b04d",
            "0x0000000000000000000000001235ac1010feec8ae22744f323416cbbe37fedbe"
          ],
          "data": "0x00000000000000000000000000000000000000000000000000000000000f5790",
          "blockHash": "0x7a7906747d79fb42d7cab06b2bc28159af2fd6e482e8e5c464acb926748b7d36",
          "blockNumber": "0x1783ad76",
          "transactionHash": "0x2bc0a3844389de155fac8a91cae44a01379ab9b13aa135cb69f368985b0ae85a",
          "transactionIndex": "0xa",
          "logIndex": "0xe",
          "removed": false
        },
        {
          "address": "0xfd086bc7cd5c481dcc9c85ebe478a1c0b69fcbb9",
          "topics": [
            "0x8c5be1e5ebec7d5bd14f71427d1e84f3dd0314c0f7b2291e5b200ac8c7c3b925",
            "0x0000000000000000000000009a8f92a830a5cb89a3816e3d267cb7791c16b04d",
            "0x0000000000000000000000001235ac1010feec8ae22744f323416cbbe37fedbe"
          ],
          "data": "0x0000000000000000000000000000000000000000000000000000000000000000",
          "blockHash": "0x7a7906747d79fb42d7cab06b2bc28159af2fd6e482e8e5c464acb926748b7d36",
          "blockNumber": "0x1783ad76",
          "transactionHash": "0x2bc0a3844389de155fac8a91cae44a01379ab9b13aa135cb69f368985b0ae85a",
          "transactionIndex": "0xa",
          "logIndex": "0xf",
          "removed": false
        },
        {
          "address": "0xfd086bc7cd5c481dcc9c85ebe478a1c0b69fcbb9",
          "topics": [
            "0x8c5be1e5ebec7d5bd14f71427d1e84f3dd0314c0f7b2291e5b200ac8c7c3b925",
            "0x0000000000000000000000001235ac1010feec8ae22744f323416cbbe37fedbe",
            "0x00000000000000000000000014e4a1b13bf7f943c8ff7c51fb60fa964a298d92"
          ],
          "data": "0x00000000000000000000000000000000000000000000000000000000000f5790",
          "blockHash": "0x7a7906747d79fb42d7cab06b2bc28159af2fd6e482e8e5c464acb926748b7d36",
          "blockNumber": "0x1783ad76",
          "transactionHash": "0x2bc0a3844389de155fac8a91cae44a01379ab9b13aa135cb69f368985b0ae85a",
          "transactionIndex": "0xa",
          "logIndex": "0x10",
          "removed": false
        },
        {
          "address": "0xfd086bc7cd5c481dcc9c85ebe478a1c0b69fcbb9",
          "topics": [
            "0xddf252ad1be2c89b69c2b068fc378daa952ba7f163c4a11628f55a4df523b3ef",
            "0x0000000000000000000000001235ac1010feec8ae22744f323416cbbe37fedbe",
            "0x0000000000000000000000000000000000000000000000000000000000000000"
          ],
          "data": "0x00000000000000000000000000000000000000000000000000000000000f5790",
          "blockHash": "0x7a7906747d79fb42d7cab06b2bc28159af2fd6e482e8e5c464acb926748b7d36",
          "blockNumber": "0x1783ad76",
          "transactionHash": "0x2bc0a3844389de155fac8a91cae44a01379ab9b13aa135cb69f368985b0ae85a",
          "transactionIndex": "0xa",
          "logIndex": "0x11",
          "removed": false
        },
        {
          "address": "0xfd086bc7cd5c481dcc9c85ebe478a1c0b69fcbb9",
          "topics": [
            "0xcc16f5dbb4873280815c1ee09dbd06736cffcc184412cf7a71a0fdb75d397ca5",
            "0x0000000000000000000000001235ac1010feec8ae22744f323416cbbe37fedbe"
          ],
          "data": "0x00000000000000000000000000000000000000000000000000000000000f5790",
          "blockHash": "0x7a7906747d79fb42d7cab06b2bc28159af2fd6e482e8e5c464acb926748b7d36",
          "blockNumber": "0x1783ad76",
          "transactionHash": "0x2bc0a3844389de155fac8a91cae44a01379ab9b13aa135cb69f368985b0ae85a",
          "transactionIndex": "0xa",
          "logIndex": "0x12",
          "removed": false
        },
        {
          "address": "0x975bcd720be66659e3eb3c0e4f1866a3020e493a",
          "topics": ["0x61ed099e74a97a1d7f8bb0952a88ca8b7b8ebd00c126ea04671f92a81213318a"],
          "data": "0x00000000000000000000000031cae3b7fb82d847621859fb1585353c5720660d0000000000000000000000000000000000000000000000000000056f49784a17",
          "blockHash": "0x7a7906747d79fb42d7cab06b2bc28159af2fd6e482e8e5c464acb926748b7d36",
          "blockNumber": "0x1783ad76",
          "transactionHash": "0x2bc0a3844389de155fac8a91cae44a01379ab9b13aa135cb69f368985b0ae85a",
          "transactionIndex": "0xa",
          "logIndex": "0x13",
          "removed": false
        },
        {
          "address": "0x975bcd720be66659e3eb3c0e4f1866a3020e493a",
          "topics": ["0x07ea52d82345d6e838192107d8fd7123d9c2ec8e916cd0aad13fd2b60db24644"],
          "data": "0x000000000000000000000000000000000000000000000000000000000000006000000000000000000000000000000000000000000000000000000000000000c000000000000000000000000000000000000000000000000000000000000000e000000000000000000000000000000000000000000000000000000000000000020000000000000000000000002f55c492897526677c5b68fb199ea31e2c126416000000000000000000000000a8b8575fa41c305953f519c7d288cd7741727c7b000000000000000000000000000000000000000000000000000000000000000000000000000000000000000000000000000000000000000000000000000000020000000000000000000000000000000000000000000000000000001d5a2fbbce0000000000000000000000000000000000000000000000000000001e3bd10824",
          "blockHash": "0x7a7906747d79fb42d7cab06b2bc28159af2fd6e482e8e5c464acb926748b7d36",
          "blockNumber": "0x1783ad76",
          "transactionHash": "0x2bc0a3844389de155fac8a91cae44a01379ab9b13aa135cb69f368985b0ae85a",
          "transactionIndex": "0xa",
          "logIndex": "0x14",
          "removed": false
        },
        {
          "address": "0x1a44076050125825900e736c501f859c50fe728c",
          "topics": ["0x1ab700d4ced0c005b164c0f789fd09fcbb0156d4c2041b8a3bfbcd961cd1567f"],
          "data": "0x00000000000000000000000000000000000000000000000000000000000000600000000000000000000000000000000000000000000000000000000000000260000000000000000000000000975bcd720be66659e3eb3c0e4f1866a3020e493a00000000000000000000000000000000000000000000000000000000000001d90100000000000057c40000759e00000000000000000000000014e4a1b13bf7f943c8ff7c51fb60fa964a298d920000769f000000000000000000000000904861a24f30ec96ea7cfc3be9ea4b476d237e98ac5ec6b7518c3310898283866ece47ffdc60f5c891d9b7ad3ec1c8d4d4a9a9830000000000000000000000001425e20d2ecb0bbdeed8fe1f8252724ed084c1a000000000000f57900000000000000000000000001235ac1010feec8ae22744f323416cbbe37fedbe00000000000000000000000000000000000000000000000000000000000030410000000000000000000000000000000000000000000000000000000069019d66000000000000000000000000000000000000000000000000000000000000006400000000000000000000000000000000000000000000000000000000000000320000000000000000000000009a8f92a830a5cb89a3816e3d267cb7791c16b04d000000000000000000000000b8ce59fc3717ada4c02eadf9682a9e934f625ebb000000000000000000000000000000000000000000000000000000000000000000000000000000000000000000000000000000000000000000000000000001000000000000000000000000000000000000000000000000000000000000000000000000000000000000000000000000000000000000000000000000000000000000000000000056000301001101000000000000000000000000000186a0010013030000000000000000000000000000000186a00100110100000000000000000000000000030d40010013030000000000000000000000000000000493e000000000000000000000",
          "blockHash": "0x7a7906747d79fb42d7cab06b2bc28159af2fd6e482e8e5c464acb926748b7d36",
          "blockNumber": "0x1783ad76",
          "transactionHash": "0x2bc0a3844389de155fac8a91cae44a01379ab9b13aa135cb69f368985b0ae85a",
          "transactionIndex": "0xa",
          "logIndex": "0x15",
          "removed": false
        },
        {
          "address": "0x14e4a1b13bf7f943c8ff7c51fb60fa964a298d92",
          "topics": [
            "0x85496b760a4b7f8d66384b9df21b381f5d1b1e79f229a47aaf4c232edc2fe59a",
            "0xac5ec6b7518c3310898283866ece47ffdc60f5c891d9b7ad3ec1c8d4d4a9a983",
            "0x0000000000000000000000001235ac1010feec8ae22744f323416cbbe37fedbe"
          ],
          "data": "0x000000000000000000000000000000000000000000000000000000000000769f00000000000000000000000000000000000000000000000000000000000f579000000000000000000000000000000000000000000000000000000000000f5790",
          "blockHash": "0x7a7906747d79fb42d7cab06b2bc28159af2fd6e482e8e5c464acb926748b7d36",
          "blockNumber": "0x1783ad76",
          "transactionHash": "0x2bc0a3844389de155fac8a91cae44a01379ab9b13aa135cb69f368985b0ae85a",
          "transactionIndex": "0xa",
          "logIndex": "0x16",
          "removed": false
        },
        {
          "address": "0x1235ac1010feec8ae22744f323416cbbe37fedbe",
          "topics": [
            "0x8fb515a2e89f5acfca1124e69e331c2cded0ca216b578ba531720f6841139dbf",
            "0x0000000000000000000000000000000000000000000000000000000000003041",
            "0x0000000000000000000000009a8f92a830a5cb89a3816e3d267cb7791c16b04d",
            "0x0000000000000000000000009a8f92a830a5cb89a3816e3d267cb7791c16b04d"
          ],
          "data": "0x0000000000000000000000001425e20d2ecb0bbdeed8fe1f8252724ed084c1a00000000000000000000000000000000000000000000000000000000069019d6600000000000000000000000000000000000000000000000000000000000000640000000000000000000000000000000000000000000000000000000000000032000000000000000000000000b8ce59fc3717ada4c02eadf9682a9e934f625ebb00000000000000000000000000000000000000000000000000000000000000c00000000000000000000000000000000000000000000000000000000000000041efec25f89f8cc9179ee03b13d39a616de5ea03cd3766afbad6729e9f44363170372b2a8ed405542d9ee82ee5e20fd125b0c6c0c04b73cd2b5c5837d98362137d1c00000000000000000000000000000000000000000000000000000000000000",
          "blockHash": "0x7a7906747d79fb42d7cab06b2bc28159af2fd6e482e8e5c464acb926748b7d36",
          "blockNumber": "0x1783ad76",
          "transactionHash": "0x2bc0a3844389de155fac8a91cae44a01379ab9b13aa135cb69f368985b0ae85a",
          "transactionIndex": "0xa",
          "logIndex": "0x17",
          "removed": false
        }
      ],
      "logsBloom": "0x000000000000000000000000000000000080000000000010000000000010400000000000000000000000000002000000000000000004400000000000002104000000120000001000000000180008400000000000000000000000000000000000000000000208100080000000000008000800000000100000000008900400000000000000000000000000000800000000000000000000008000000000002020000a0000008000000000100000000000020000000000400000400440000000008000008002000000800000000080000000000000000000000000002000000020000011040000000000000000000000002010000000018000000000020080000000",
      "type": "0x2",
      "transactionHash": "0x2bc0a3844389de155fac8a91cae44a01379ab9b13aa135cb69f368985b0ae85a",
      "transactionIndex": "0xa",
      "blockHash": "0x7a7906747d79fb42d7cab06b2bc28159af2fd6e482e8e5c464acb926748b7d36",
      "blockNumber": "0x1783ad76",
      "gasUsed": "0x72baa",
      "effectiveGasPrice": "0x989680",
      "from": "0x9a8f92a830a5cb89a3816e3d267cb7791c16b04d",
      "to": "0x1235ac1010feec8ae22744f323416cbbe37fedbe",
      "contractAddress": null,
      "gasUsedForL1": "0x3f1",
      "l1BlockNumber": "0x16955e9",
      "timeboosted": false
    }
  ],
  "libraries": [],
  "pending": [],
  "returns": {},
  "timestamp": 1761709920921,
  "chain": 42161,
  "commit": "facdaffe"
}
