{
  "transactions": [
    {
      "hash": "0xa3168f9c0bbce9797f8daffb28fd6200d16d65fd9fa05c1b42b73344afa5a8c0",
      "transactionType": "CALL",
      "contractName": null,
      "contractAddress": "0xdd52f8134f85f3979fba24387ce0cec05937259e",
      "function": "handleV3AcrossMessage(address,uint256,address,bytes)",
      "arguments": [
        "0xA0b86991c6218b36c1d19D4a2e9Eb0cE3606eB48",
        "0",
        "0x0000000000000000000000000000000000000000",
        "0x00000000000000000000000000000000000000000000000000000000000000200000000000000000000000000000000000000000000000000000000000000040000000000000000000000000000000000000000000000000000000000000000000000000000000000000000000000000000000000000000000000000000000010000000000000000000000000000000000000000000000000000000000000020000000000000000000000000a0b86991c6218b36c1d19d4a2e9eb0ce3606eb48000000000000000000000000000000000000000000000000000000000000006000000000000000000000000000000000000000000000000000000000000000000000000000000000000000000000000000000000000000000000000000000044095ea7b30000000000000000000000003b4d794a66304f130a4db8f2551b0070dfcf5ca7ffffffffffffffffffffffffffffffffffffffffffffffffffffffffffffffff00000000000000000000000000000000000000000000000000000000"
      ],
      "transaction": {
        "from": "0x9a8f92a830a5cb89a3816e3d267cb7791c16b04d",
        "to": "0xdd52f8134f85f3979fba24387ce0cec05937259e",
        "gas": "0x17e82",
        "value": "0x0",
        "input": "0x3a5be8cb000000000000000000000000a0b86991c6218b36c1d19d4a2e9eb0ce3606eb48000000000000000000000000000000000000000000000000000000000000000000000000000000000000000000000000000000000000000000000000000000000000000000000000000000000000000000000000000000000000000000000080000000000000000000000000000000000000000000000000000000000000018000000000000000000000000000000000000000000000000000000000000000200000000000000000000000000000000000000000000000000000000000000040000000000000000000000000000000000000000000000000000000000000000000000000000000000000000000000000000000000000000000000000000000010000000000000000000000000000000000000000000000000000000000000020000000000000000000000000a0b86991c6218b36c1d19d4a2e9eb0ce3606eb48000000000000000000000000000000000000000000000000000000000000006000000000000000000000000000000000000000000000000000000000000000000000000000000000000000000000000000000000000000000000000000000044095ea7b30000000000000000000000003b4d794a66304f130a4db8f2551b0070dfcf5ca7ffffffffffffffffffffffffffffffffffffffffffffffffffffffffffffffff00000000000000000000000000000000000000000000000000000000",
        "nonce": "0x33a5",
        "chainId": "0x1"
      },
      "additionalContracts": [],
      "isFixedGasLimit": false
    }
  ],
  "receipts": [
    {
      "status": "0x1",
      "cumulativeGasUsed": "0x1adc7e5",
      "logs": [
        {
          "address": "0xa0b86991c6218b36c1d19d4a2e9eb0ce3606eb48",
          "topics": [
            "0x8c5be1e5ebec7d5bd14f71427d1e84f3dd0314c0f7b2291e5b200ac8c7c3b925",
            "0x000000000000000000000000dd52f8134f85f3979fba24387ce0cec05937259e",
            "0x0000000000000000000000003b4d794a66304f130a4db8f2551b0070dfcf5ca7"
          ],
          "data": "0xffffffffffffffffffffffffffffffffffffffffffffffffffffffffffffffff",
          "blockHash": "0x6c75bb34c70598d820a4998edc4732425cae0b593a76b6bcdfd42c6b9ee25f7a",
          "blockNumber": "0x17e3fb0",
          "blockTimestamp": "0x69fdf877",
          "transactionHash": "0xa3168f9c0bbce9797f8daffb28fd6200d16d65fd9fa05c1b42b73344afa5a8c0",
          "transactionIndex": "0xce",
          "logIndex": "0x285",
          "removed": false
        }
      ],
      "logsBloom": "0x00000000000000000000000000000000000000000004000000000000000000000000000000800000000000000000000000000000000000000000000000a00000000000000000000008000000000000000000000000000000000000000000000000000000000000000000000000000000000000000000000000000000000001000000000000000000000000000000000000000000010000000000000000000000020000000000200000000000000000000000000000000000000000000000000000000000000000000000000000000000000000000000000000400000000000000010000000100000000000000000000000000000000000000000000000000000",
      "type": "0x2",
      "transactionHash": "0xa3168f9c0bbce9797f8daffb28fd6200d16d65fd9fa05c1b42b73344afa5a8c0",
      "transactionIndex": "0xce",
      "blockHash": "0x6c75bb34c70598d820a4998edc4732425cae0b593a76b6bcdfd42c6b9ee25f7a",
      "blockNumber": "0x17e3fb0",
      "gasUsed": "0x114ef",
      "effectiveGasPrice": "0x512c52f8",
      "from": "0x9a8f92a830a5cb89a3816e3d267cb7791c16b04d",
      "to": "0xdd52f8134f85f3979fba24387ce0cec05937259e",
      "contractAddress": null
    }
  ],
  "libraries": [],
  "pending": [],
  "returns": {},
  "timestamp": 1778251897494,
  "chain": 1,
  "commit": "9197cb76"
}
