{
  "transactions": [
    {
      "hash": "0xbac8dd3640248bc4913060efd06c494f437c5b7abda7b6b8aa6911880fa554c1",
      "transactionType": "CALL",
      "contractName": null,
      "contractAddress": "0x2c18ef9b95dcab53a8b0863062a7dd15bcae5dbd",
      "function": "handleV3AcrossMessage(address,uint256,address,bytes)",
      "arguments": [
        "0xA0b86991c6218b36c1d19D4a2e9Eb0cE3606eB48",
        "0",
        "0x0000000000000000000000000000000000000000",
        "0x00000000000000000000000000000000000000000000000000000000000000200000000000000000000000000000000000000000000000000000000000000040000000000000000000000000000000000000000000000000000000000000000000000000000000000000000000000000000000000000000000000000000000010000000000000000000000000000000000000000000000000000000000000020000000000000000000000000a0b86991c6218b36c1d19d4a2e9eb0ce3606eb48000000000000000000000000000000000000000000000000000000000000006000000000000000000000000000000000000000000000000000000000000000000000000000000000000000000000000000000000000000000000000000000044095ea7b30000000000000000000000003b4d794a66304f130a4db8f2551b0070dfcf5ca7ffffffffffffffffffffffffffffffffffffffffffffffffffffffffffffffff00000000000000000000000000000000000000000000000000000000"
      ],
      "transaction": {
        "from": "0x9a8f92a830a5cb89a3816e3d267cb7791c16b04d",
        "to": "0x2c18ef9b95dcab53a8b0863062a7dd15bcae5dbd",
        "gas": "0x17e82",
        "value": "0x0",
        "input": "0x3a5be8cb000000000000000000000000a0b86991c6218b36c1d19d4a2e9eb0ce3606eb48000000000000000000000000000000000000000000000000000000000000000000000000000000000000000000000000000000000000000000000000000000000000000000000000000000000000000000000000000000000000000000000080000000000000000000000000000000000000000000000000000000000000018000000000000000000000000000000000000000000000000000000000000000200000000000000000000000000000000000000000000000000000000000000040000000000000000000000000000000000000000000000000000000000000000000000000000000000000000000000000000000000000000000000000000000010000000000000000000000000000000000000000000000000000000000000020000000000000000000000000a0b86991c6218b36c1d19d4a2e9eb0ce3606eb48000000000000000000000000000000000000000000000000000000000000006000000000000000000000000000000000000000000000000000000000000000000000000000000000000000000000000000000000000000000000000000000044095ea7b30000000000000000000000003b4d794a66304f130a4db8f2551b0070dfcf5ca7ffffffffffffffffffffffffffffffffffffffffffffffffffffffffffffffff00000000000000000000000000000000000000000000000000000000",
        "nonce": "0x3408",
        "chainId": "0x1"
      },
      "additionalContracts": [],
      "isFixedGasLimit": false
    }
  ],
  "receipts": [
    {
      "status": "0x1",
      "cumulativeGasUsed": "0x1a1febe",
      "logs": [
        {
          "address": "0xa0b86991c6218b36c1d19d4a2e9eb0ce3606eb48",
          "topics": [
            "0x8c5be1e5ebec7d5bd14f71427d1e84f3dd0314c0f7b2291e5b200ac8c7c3b925",
            "0x0000000000000000000000002c18ef9b95dcab53a8b0863062a7dd15bcae5dbd",
            "0x0000000000000000000000003b4d794a66304f130a4db8f2551b0070dfcf5ca7"
          ],
          "data": "0xffffffffffffffffffffffffffffffffffffffffffffffffffffffffffffffff",
          "blockHash": "0x518d3db0a73065741d81339d43ecaafb1cdf53f98979ff51adedf66fd54f107b",
          "blockNumber": "0x18020f2",
          "blockTimestamp": "0x6a149bab",
          "transactionHash": "0xbac8dd3640248bc4913060efd06c494f437c5b7abda7b6b8aa6911880fa554c1",
          "transactionIndex": "0xf0",
          "logIndex": "0x39b",
          "removed": false
        }
      ],
      "logsBloom": "0x00000000000000000000000000000000000000000000000000000000000000000000000000800000000000000000000000000000000000000000000000200000000000000000000008000000000000000000000000000000000000000000000000000000000000000000000000000000000000000000000000000000000000000000000000000000000000000000000000000000010000000000000000000000020000000000200800000000000000000000000000000000000000000000000000000000000000000000000000040000000200000000000000400000000000000010000000100000000000000000000000000000000000000000000000000000",
      "type": "0x2",
      "transactionHash": "0xbac8dd3640248bc4913060efd06c494f437c5b7abda7b6b8aa6911880fa554c1",
      "transactionIndex": "0xf0",
      "blockHash": "0x518d3db0a73065741d81339d43ecaafb1cdf53f98979ff51adedf66fd54f107b",
      "blockNumber": "0x18020f2",
      "gasUsed": "0x114ef",
      "effectiveGasPrice": "0x5ef913b",
      "from": "0x9a8f92a830a5cb89a3816e3d267cb7791c16b04d",
      "to": "0x2c18ef9b95dcab53a8b0863062a7dd15bcae5dbd",
      "contractAddress": null
    }
  ],
  "libraries": [],
  "pending": [],
  "returns": {},
  "timestamp": 1779735470756,
  "chain": 1,
  "commit": "c5aa03fe"
}
