{
  "transactions": [
    {
      "hash": "0x3ecebb7e1a113d6e14844a96f5a6d2dc8dc0e2b9d7b2e459611def5b9129c37a",
      "transactionType": "CALL",
      "contractName": null,
      "contractAddress": "0x64a43393866dba0044879979faa7ad3d000622e9",
      "function": "handleV3AcrossMessage(address,uint256,address,bytes)",
      "arguments": [
        "0xA0b86991c6218b36c1d19D4a2e9Eb0cE3606eB48",
        "0",
        "0x0000000000000000000000000000000000000000",
        "0x00000000000000000000000000000000000000000000000000000000000000200000000000000000000000000000000000000000000000000000000000000040000000000000000000000000000000000000000000000000000000000000000000000000000000000000000000000000000000000000000000000000000000010000000000000000000000000000000000000000000000000000000000000020000000000000000000000000a0b86991c6218b36c1d19d4a2e9eb0ce3606eb48000000000000000000000000000000000000000000000000000000000000006000000000000000000000000000000000000000000000000000000000000000000000000000000000000000000000000000000000000000000000000000000044095ea7b30000000000000000000000003b4d794a66304f130a4db8f2551b0070dfcf5ca7ffffffffffffffffffffffffffffffffffffffffffffffffffffffffffffffff00000000000000000000000000000000000000000000000000000000"
      ],
      "transaction": {
        "from": "0x9a8f92a830a5cb89a3816e3d267cb7791c16b04d",
        "to": "0x64a43393866dba0044879979faa7ad3d000622e9",
        "gas": "0x17e82",
        "value": "0x0",
        "input": "0x3a5be8cb000000000000000000000000a0b86991c6218b36c1d19d4a2e9eb0ce3606eb48000000000000000000000000000000000000000000000000000000000000000000000000000000000000000000000000000000000000000000000000000000000000000000000000000000000000000000000000000000000000000000000080000000000000000000000000000000000000000000000000000000000000018000000000000000000000000000000000000000000000000000000000000000200000000000000000000000000000000000000000000000000000000000000040000000000000000000000000000000000000000000000000000000000000000000000000000000000000000000000000000000000000000000000000000000010000000000000000000000000000000000000000000000000000000000000020000000000000000000000000a0b86991c6218b36c1d19d4a2e9eb0ce3606eb48000000000000000000000000000000000000000000000000000000000000006000000000000000000000000000000000000000000000000000000000000000000000000000000000000000000000000000000000000000000000000000000044095ea7b30000000000000000000000003b4d794a66304f130a4db8f2551b0070dfcf5ca7ffffffffffffffffffffffffffffffffffffffffffffffffffffffffffffffff00000000000000000000000000000000000000000000000000000000",
        "nonce": "0x2d85",
        "chainId": "0x1"
      },
      "additionalContracts": [],
      "isFixedGasLimit": false
    }
  ],
  "receipts": [
    {
      "status": "0x1",
      "cumulativeGasUsed": "0xf2b2ec",
      "logs": [
        {
          "address": "0xa0b86991c6218b36c1d19d4a2e9eb0ce3606eb48",
          "topics": [
            "0x8c5be1e5ebec7d5bd14f71427d1e84f3dd0314c0f7b2291e5b200ac8c7c3b925",
            "0x00000000000000000000000064a43393866dba0044879979faa7ad3d000622e9",
            "0x0000000000000000000000003b4d794a66304f130a4db8f2551b0070dfcf5ca7"
          ],
          "data": "0xffffffffffffffffffffffffffffffffffffffffffffffffffffffffffffffff",
          "blockHash": "0xbfe6bc969bca7c2e416ffdfc9f917fbb18d9afe5b81cd171c3dd255c0129e2d6",
          "blockNumber": "0x16e8a22",
          "blockTimestamp": "0x6940a573",
          "transactionHash": "0x3ecebb7e1a113d6e14844a96f5a6d2dc8dc0e2b9d7b2e459611def5b9129c37a",
          "transactionIndex": "0x76",
          "logIndex": "0x163",
          "removed": false
        }
      ],
      "logsBloom": "0x00000000000000000000000000000000000000000000000000000000000000000000000000800000000000000000000000000000000000000000000000200000040000000000000008000000000000000000000000000000000000000000000000000000000000000000000000000000000000000000000000000000000000000000000000000000000000000000000000000000010000000000000000000000020000000000200000000000000000000000000000000000000000000000000000000000000000000000000000000000000000000000000000400000000000000010000000100000000000000000000000000000000001000000000000001000",
      "type": "0x2",
      "transactionHash": "0x3ecebb7e1a113d6e14844a96f5a6d2dc8dc0e2b9d7b2e459611def5b9129c37a",
      "transactionIndex": "0x76",
      "blockHash": "0xbfe6bc969bca7c2e416ffdfc9f917fbb18d9afe5b81cd171c3dd255c0129e2d6",
      "blockNumber": "0x16e8a22",
      "gasUsed": "0x114ef",
      "effectiveGasPrice": "0x28490a5",
      "from": "0x9a8f92a830a5cb89a3816e3d267cb7791c16b04d",
      "to": "0x64a43393866dba0044879979faa7ad3d000622e9",
      "contractAddress": null
    }
  ],
  "libraries": [],
  "pending": [],
  "returns": {},
  "timestamp": 1765844341231,
  "chain": 1,
  "commit": "78dad2ea"
}
