{
  "transactions": [
    {
      "hash": "0xad1f22fd9e3cec893ebf186688666aeeda5e7eaf0196a589ca95d22de61e8680",
      "transactionType": "CALL",
      "contractName": null,
      "contractAddress": "0xdac17f958d2ee523a2206206994597c13d831ec7",
      "function": "approve(address,uint256)",
      "arguments": ["0xE35d1205a523B699785967FFfe99b72059B46707", "1000000"],
      "transaction": {
        "from": "0x9a8f92a830a5cb89a3816e3d267cb7791c16b04d",
        "to": "0xdac17f958d2ee523a2206206994597c13d831ec7",
        "gas": "0x105f1",
        "value": "0x0",
        "input": "0x095ea7b3000000000000000000000000e35d1205a523b699785967fffe99b72059b4670700000000000000000000000000000000000000000000000000000000000f4240",
        "nonce": "0x2633",
        "chainId": "0x1"
      },
      "additionalContracts": [],
      "isFixedGasLimit": false
    },
    {
      "hash": "0x50fb703efb0080e0cceaeda0e57c859005f8842eb89d8e4a52e98c9ecfba80b0",
      "transactionType": "CALL",
      "contractName": null,
      "contractAddress": "0xe35d1205a523b699785967fffe99b72059b46707",
      "function": "deposit(((uint32,uint32,bytes32,uint256,bytes32,uint256,uint256,bytes32,bytes32,uint256,uint256,uint8,bytes),(address,uint256)),bytes)",
      "arguments": [
        "((30101, 30367, 0x000000000000000000000000d9f40794367a2ecb0b409ca8dbc55345c0db6e9f, 1000000, 0x00000000000000000000000000000000000000000000000000000000690d4543, 1762480979, 100, 0x0000000000000000000000009a8f92a830a5cb89a3816e3d267cb7791c16b04d, 0x000000000000000000000000b8ce59fc3717ada4c02eadf9682a9e934f625ebb, 200000, 300000, 0, 0x), (0x9A8f92a830A5cB89a3816e3D267CB7791c16b04D, 200))",
        "0x012c2ad356c9063c93c00f6b9d2a68be9b88dbd21ff07f4354026a5e9eb576da07ec271d526830b21ab33d20c070958e0acfb192e02ea816e0e9e1e13a74ac771c"
      ],
      "transaction": {
        "from": "0x9a8f92a830a5cb89a3816e3d267cb7791c16b04d",
        "to": "0xe35d1205a523b699785967fffe99b72059b46707",
        "gas": "0x96208",
        "value": "0xc35dde03454",
        "input": "0xfcc5b1e30000000000000000000000000000000000000000000000000000000000000040000000000000000000000000000000000000000000000000000000000000026000000000000000000000000000000000000000000000000000000000000000600000000000000000000000009a8f92a830a5cb89a3816e3d267cb7791c16b04d00000000000000000000000000000000000000000000000000000000000000c80000000000000000000000000000000000000000000000000000000000007595000000000000000000000000000000000000000000000000000000000000769f000000000000000000000000d9f40794367a2ecb0b409ca8dbc55345c0db6e9f00000000000000000000000000000000000000000000000000000000000f424000000000000000000000000000000000000000000000000000000000690d454300000000000000000000000000000000000000000000000000000000690d535300000000000000000000000000000000000000000000000000000000000000640000000000000000000000009a8f92a830a5cb89a3816e3d267cb7791c16b04d000000000000000000000000b8ce59fc3717ada4c02eadf9682a9e934f625ebb0000000000000000000000000000000000000000000000000000000000030d4000000000000000000000000000000000000000000000000000000000000493e0000000000000000000000000000000000000000000000000000000000000000000000000000000000000000000000000000000000000000000000000000001a000000000000000000000000000000000000000000000000000000000000000000000000000000000000000000000000000000000000000000000000000000041012c2ad356c9063c93c00f6b9d2a68be9b88dbd21ff07f4354026a5e9eb576da07ec271d526830b21ab33d20c070958e0acfb192e02ea816e0e9e1e13a74ac771c00000000000000000000000000000000000000000000000000000000000000",
        "nonce": "0x2634",
        "chainId": "0x1"
      },
      "additionalContracts": [],
      "isFixedGasLimit": false
    }
  ],
  "receipts": [
    {
      "status": "0x1",
      "cumulativeGasUsed": "0x121af85",
      "logs": [
        {
          "address": "0xdac17f958d2ee523a2206206994597c13d831ec7",
          "topics": [
            "0x8c5be1e5ebec7d5bd14f71427d1e84f3dd0314c0f7b2291e5b200ac8c7c3b925",
            "0x0000000000000000000000009a8f92a830a5cb89a3816e3d267cb7791c16b04d",
            "0x000000000000000000000000e35d1205a523b699785967fffe99b72059b46707"
          ],
          "data": "0x00000000000000000000000000000000000000000000000000000000000f4240",
          "blockHash": "0x360d2478a6a3441da84a94ce952c72a9dce4679c14acafe3e57e3a1eb727dd29",
          "blockNumber": "0x16a4dfa",
          "blockTimestamp": "0x690d455b",
          "transactionHash": "0xad1f22fd9e3cec893ebf186688666aeeda5e7eaf0196a589ca95d22de61e8680",
          "transactionIndex": "0x8e",
          "logIndex": "0x247",
          "removed": false
        }
      ],
      "logsBloom": "0x00000000000000000000000000000000000000000000000000000000000000000000000000000000000000000000010000000000000000000000000000200000000000000000000000000000000000000000000000004000000000000000000000000000000000000000000000000000008000000000000000000000040000000000000000000000000000000000000000000000000000000000000000100000020000000000000000000080000000000000000000100000000000000000000000000000000000800000000000000000000000000000000000000000000000000011000000000000000000000000000000000000000000000000000000000000",
      "type": "0x2",
      "transactionHash": "0xad1f22fd9e3cec893ebf186688666aeeda5e7eaf0196a589ca95d22de61e8680",
      "transactionIndex": "0x8e",
      "blockHash": "0x360d2478a6a3441da84a94ce952c72a9dce4679c14acafe3e57e3a1eb727dd29",
      "blockNumber": "0x16a4dfa",
      "gasUsed": "0xbda5",
      "effectiveGasPrice": "0xc9a69b7",
      "from": "0x9a8f92a830a5cb89a3816e3d267cb7791c16b04d",
      "to": "0xdac17f958d2ee523a2206206994597c13d831ec7",
      "contractAddress": null
    },
    {
      "status": "0x1",
      "cumulativeGasUsed": "0x1287a8d",
      "logs": [
        {
          "address": "0xdac17f958d2ee523a2206206994597c13d831ec7",
          "topics": [
            "0xddf252ad1be2c89b69c2b068fc378daa952ba7f163c4a11628f55a4df523b3ef",
            "0x0000000000000000000000009a8f92a830a5cb89a3816e3d267cb7791c16b04d",
            "0x000000000000000000000000e35d1205a523b699785967fffe99b72059b46707"
          ],
          "data": "0x00000000000000000000000000000000000000000000000000000000000f4240",
          "blockHash": "0x360d2478a6a3441da84a94ce952c72a9dce4679c14acafe3e57e3a1eb727dd29",
          "blockNumber": "0x16a4dfa",
          "blockTimestamp": "0x690d455b",
          "transactionHash": "0x50fb703efb0080e0cceaeda0e57c859005f8842eb89d8e4a52e98c9ecfba80b0",
          "transactionIndex": "0x8f",
          "logIndex": "0x248",
          "removed": false
        },
        {
          "address": "0xdac17f958d2ee523a2206206994597c13d831ec7",
          "topics": [
            "0x8c5be1e5ebec7d5bd14f71427d1e84f3dd0314c0f7b2291e5b200ac8c7c3b925",
            "0x000000000000000000000000e35d1205a523b699785967fffe99b72059b46707",
            "0x0000000000000000000000006c96de32cea08842dcc4058c14d3aaad7fa41dee"
          ],
          "data": "0x00000000000000000000000000000000000000000000000000000000000f4240",
          "blockHash": "0x360d2478a6a3441da84a94ce952c72a9dce4679c14acafe3e57e3a1eb727dd29",
          "blockNumber": "0x16a4dfa",
          "blockTimestamp": "0x690d455b",
          "transactionHash": "0x50fb703efb0080e0cceaeda0e57c859005f8842eb89d8e4a52e98c9ecfba80b0",
          "transactionIndex": "0x8f",
          "logIndex": "0x249",
          "removed": false
        },
        {
          "address": "0xdac17f958d2ee523a2206206994597c13d831ec7",
          "topics": [
            "0xddf252ad1be2c89b69c2b068fc378daa952ba7f163c4a11628f55a4df523b3ef",
            "0x000000000000000000000000e35d1205a523b699785967fffe99b72059b46707",
            "0x0000000000000000000000006c96de32cea08842dcc4058c14d3aaad7fa41dee"
          ],
          "data": "0x00000000000000000000000000000000000000000000000000000000000f4240",
          "blockHash": "0x360d2478a6a3441da84a94ce952c72a9dce4679c14acafe3e57e3a1eb727dd29",
          "blockNumber": "0x16a4dfa",
          "blockTimestamp": "0x690d455b",
          "transactionHash": "0x50fb703efb0080e0cceaeda0e57c859005f8842eb89d8e4a52e98c9ecfba80b0",
          "transactionIndex": "0x8f",
          "logIndex": "0x24a",
          "removed": false
        },
        {
          "address": "0xbb2ea70c9e858123480642cf96acbcce1372dce1",
          "topics": ["0x61ed099e74a97a1d7f8bb0952a88ca8b7b8ebd00c126ea04671f92a81213318a"],
          "data": "0x000000000000000000000000173272739bd7aa6e4e214714048a9fe69945305900000000000000000000000000000000000000000000000000000b05faae930f",
          "blockHash": "0x360d2478a6a3441da84a94ce952c72a9dce4679c14acafe3e57e3a1eb727dd29",
          "blockNumber": "0x16a4dfa",
          "blockTimestamp": "0x690d455b",
          "transactionHash": "0x50fb703efb0080e0cceaeda0e57c859005f8842eb89d8e4a52e98c9ecfba80b0",
          "transactionIndex": "0x8f",
          "logIndex": "0x24b",
          "removed": false
        },
        {
          "address": "0xbb2ea70c9e858123480642cf96acbcce1372dce1",
          "topics": ["0x07ea52d82345d6e838192107d8fd7123d9c2ec8e916cd0aad13fd2b60db24644"],
          "data": "0x000000000000000000000000000000000000000000000000000000000000006000000000000000000000000000000000000000000000000000000000000000c000000000000000000000000000000000000000000000000000000000000000e000000000000000000000000000000000000000000000000000000000000000020000000000000000000000003b0531eb02ab4ad72e7a531180beef9493a00dd2000000000000000000000000589dedbd617e0cbcb916a9223f4d1300c294236b000000000000000000000000000000000000000000000000000000000000000000000000000000000000000000000000000000000000000000000000000000020000000000000000000000000000000000000000000000000000009a30f3b4ca00000000000000000000000000000000000000000000000000000095b23dec7b",
          "blockHash": "0x360d2478a6a3441da84a94ce952c72a9dce4679c14acafe3e57e3a1eb727dd29",
          "blockNumber": "0x16a4dfa",
          "blockTimestamp": "0x690d455b",
          "transactionHash": "0x50fb703efb0080e0cceaeda0e57c859005f8842eb89d8e4a52e98c9ecfba80b0",
          "transactionIndex": "0x8f",
          "logIndex": "0x24c",
          "removed": false
        },
        {
          "address": "0x1a44076050125825900e736c501f859c50fe728c",
          "topics": ["0x1ab700d4ced0c005b164c0f789fd09fcbb0156d4c2041b8a3bfbcd961cd1567f"],
          "data": "0x00000000000000000000000000000000000000000000000000000000000000600000000000000000000000000000000000000000000000000000000000000260000000000000000000000000bb2ea70c9e858123480642cf96acbcce1372dce100000000000000000000000000000000000000000000000000000000000001d9010000000000001931000075950000000000000000000000006c96de32cea08842dcc4058c14d3aaad7fa41dee0000769f000000000000000000000000904861a24f30ec96ea7cfc3be9ea4b476d237e988776497f38712e1cf03b1a456ad0e75f00ddea17b867fc23745e1e212ab5395c000000000000000000000000d9f40794367a2ecb0b409ca8dbc55345c0db6e9f00000000000f4240000000000000000000000000e35d1205a523b699785967fffe99b72059b4670700000000000000000000000000000000000000000000000000000000690d454300000000000000000000000000000000000000000000000000000000690d5353000000000000000000000000000000000000000000000000000000000000006400000000000000000000000000000000000000000000000000000000000000c80000000000000000000000009a8f92a830a5cb89a3816e3d267cb7791c16b04d000000000000000000000000b8ce59fc3717ada4c02eadf9682a9e934f625ebb000000000000000000000000000000000000000000000000000000000000000000000000000000000000000000000000000000000000000000000000000001000000000000000000000000000000000000000000000000000000000000000000000000000000000000000000000000000000000000000000000000000000000000000000000056000301001101000000000000000000000000000186a0010013030000000000000000000000000000000186a00100110100000000000000000000000000030d40010013030000000000000000000000000000000493e000000000000000000000",
          "blockHash": "0x360d2478a6a3441da84a94ce952c72a9dce4679c14acafe3e57e3a1eb727dd29",
          "blockNumber": "0x16a4dfa",
          "blockTimestamp": "0x690d455b",
          "transactionHash": "0x50fb703efb0080e0cceaeda0e57c859005f8842eb89d8e4a52e98c9ecfba80b0",
          "transactionIndex": "0x8f",
          "logIndex": "0x24d",
          "removed": false
        },
        {
          "address": "0x6c96de32cea08842dcc4058c14d3aaad7fa41dee",
          "topics": [
            "0x85496b760a4b7f8d66384b9df21b381f5d1b1e79f229a47aaf4c232edc2fe59a",
            "0x8776497f38712e1cf03b1a456ad0e75f00ddea17b867fc23745e1e212ab5395c",
            "0x000000000000000000000000e35d1205a523b699785967fffe99b72059b46707"
          ],
          "data": "0x000000000000000000000000000000000000000000000000000000000000769f00000000000000000000000000000000000000000000000000000000000f424000000000000000000000000000000000000000000000000000000000000f4240",
          "blockHash": "0x360d2478a6a3441da84a94ce952c72a9dce4679c14acafe3e57e3a1eb727dd29",
          "blockNumber": "0x16a4dfa",
          "blockTimestamp": "0x690d455b",
          "transactionHash": "0x50fb703efb0080e0cceaeda0e57c859005f8842eb89d8e4a52e98c9ecfba80b0",
          "transactionIndex": "0x8f",
          "logIndex": "0x24e",
          "removed": false
        },
        {
          "address": "0xe35d1205a523b699785967fffe99b72059b46707",
          "topics": [
            "0x8fb515a2e89f5acfca1124e69e331c2cded0ca216b578ba531720f6841139dbf",
            "0x00000000000000000000000000000000000000000000000000000000690d4543",
            "0x0000000000000000000000009a8f92a830a5cb89a3816e3d267cb7791c16b04d",
            "0x0000000000000000000000009a8f92a830a5cb89a3816e3d267cb7791c16b04d"
          ],
          "data": "0x000000000000000000000000d9f40794367a2ecb0b409ca8dbc55345c0db6e9f00000000000000000000000000000000000000000000000000000000690d5353000000000000000000000000000000000000000000000000000000000000006400000000000000000000000000000000000000000000000000000000000000c8000000000000000000000000b8ce59fc3717ada4c02eadf9682a9e934f625ebb00000000000000000000000000000000000000000000000000000000000000c00000000000000000000000000000000000000000000000000000000000000041012c2ad356c9063c93c00f6b9d2a68be9b88dbd21ff07f4354026a5e9eb576da07ec271d526830b21ab33d20c070958e0acfb192e02ea816e0e9e1e13a74ac771c00000000000000000000000000000000000000000000000000000000000000",
          "blockHash": "0x360d2478a6a3441da84a94ce952c72a9dce4679c14acafe3e57e3a1eb727dd29",
          "blockNumber": "0x16a4dfa",
          "blockTimestamp": "0x690d455b",
          "transactionHash": "0x50fb703efb0080e0cceaeda0e57c859005f8842eb89d8e4a52e98c9ecfba80b0",
          "transactionIndex": "0x8f",
          "logIndex": "0x24f",
          "removed": false
        }
      ],
      "logsBloom": "0x00000000000000000000000000000000000000000000000000000000001000000408000000000000000000000200010000000000000000000100000000200000000202000080100000000018000000004000200000004000000000000000000000000004000000008000000000000000008000000010000000000010040000000000000000008000001000080000400000000000000000000000000000100000020000008000000000100084000400001000000000500000000440000000800000000002000000800000000080000000000000000000001000000000000000000011040000000000000000000000002000000000018000000000020004000000",
      "type": "0x2",
      "transactionHash": "0x50fb703efb0080e0cceaeda0e57c859005f8842eb89d8e4a52e98c9ecfba80b0",
      "transactionIndex": "0x8f",
      "blockHash": "0x360d2478a6a3441da84a94ce952c72a9dce4679c14acafe3e57e3a1eb727dd29",
      "blockNumber": "0x16a4dfa",
      "gasUsed": "0x6cb08",
      "effectiveGasPrice": "0xc9a69b7",
      "from": "0x9a8f92a830a5cb89a3816e3d267cb7791c16b04d",
      "to": "0xe35d1205a523b699785967fffe99b72059b46707",
      "contractAddress": null
    }
  ],
  "libraries": [],
  "pending": [],
  "returns": {},
  "timestamp": 1762477406440,
  "chain": 1,
  "commit": "d93c7b1f"
}
