{
  "transactions": [
    {
      "hash": "0x43298575d1ad3aff1d82a9081668280fefac4cba74f8910550c939e2561feedf",
      "transactionType": "CALL",
      "contractName": null,
      "contractAddress": "0x4e1dcf7ad4e460cfd30791ccc4f9c8a4f820ec67",
      "function": "createProxyWithNonce(address,bytes,uint256)",
      "arguments": [
        "0x41675C099F32341bf84BFc5382aF534df5C7461a",
        "0xb63e800d00000000000000000000000000000000000000000000000000000000000001000000000000000000000000000000000000000000000000000000000000000003000000000000000000000000bd89a1ce4dde368ffab0ec35506eece0b1ffdc5400000000000000000000000000000000000000000000000000000000000001c0000000000000000000000000fd0732dc9e303f09fcef3a7388ad10a83459ec99000000000000000000000000000000000000000000000000000000000000000000000000000000000000000000000000000000000000000000000000000000000000000000000000000000005afe7a11e70000000000000000000000000000000000000000000000000000000000000000000000000000000000000000000005000000000000000000000000837219d7a9c666f5542c4559bf17d7b804e5c5fe0000000000000000000000002b9cac7a18c70cbb6f6639571785b70a41b8ae03000000000000000000000000996267d7d1b7f5046543fede2c2db473ed4f65e90000000000000000000000004851ec4e5a5b392328b825ecd94af1ca93fd609e000000000000000000000000e767c1fcbec2f9b3a229b82bbc8aa21bac09bdb40000000000000000000000000000000000000000000000000000000000000024fe51f64300000000000000000000000029fcb43b46531bca003ddc8fcb67ffe91900c76200000000000000000000000000000000000000000000000000000000",
        "0"
      ],
      "transaction": {
        "from": "0x9a8f92a830a5cb89a3816e3d267cb7791c16b04d",
        "to": "0x4e1dcf7ad4e460cfd30791ccc4f9c8a4f820ec67",
        "gas": "0x7a704",
        "value": "0x0",
        "input": "0x1688f0b900000000000000000000000041675c099f32341bf84bfc5382af534df5c7461a000000000000000000000000000000000000000000000000000000000000006000000000000000000000000000000000000000000000000000000000000000000000000000000000000000000000000000000000000000000000000000000224b63e800d00000000000000000000000000000000000000000000000000000000000001000000000000000000000000000000000000000000000000000000000000000003000000000000000000000000bd89a1ce4dde368ffab0ec35506eece0b1ffdc5400000000000000000000000000000000000000000000000000000000000001c0000000000000000000000000fd0732dc9e303f09fcef3a7388ad10a83459ec99000000000000000000000000000000000000000000000000000000000000000000000000000000000000000000000000000000000000000000000000000000000000000000000000000000005afe7a11e70000000000000000000000000000000000000000000000000000000000000000000000000000000000000000000005000000000000000000000000837219d7a9c666f5542c4559bf17d7b804e5c5fe0000000000000000000000002b9cac7a18c70cbb6f6639571785b70a41b8ae03000000000000000000000000996267d7d1b7f5046543fede2c2db473ed4f65e90000000000000000000000004851ec4e5a5b392328b825ecd94af1ca93fd609e000000000000000000000000e767c1fcbec2f9b3a229b82bbc8aa21bac09bdb40000000000000000000000000000000000000000000000000000000000000024fe51f64300000000000000000000000029fcb43b46531bca003ddc8fcb67ffe91900c7620000000000000000000000000000000000000000000000000000000000000000000000000000000000000000000000000000000000000000",
        "nonce": "0x234",
        "chainId": "0x13e31"
      },
      "additionalContracts": [
        {
          "transactionType": "CREATE2",
          "contractName": null,
          "address": "0xfcb629ef1f72be199ba2f933f0637ab20befff0f",
          "initCode": "0x608060405234801561001057600080fd5b506040516101e63803806101e68339818101604052602081101561003357600080fd5b8101908080519060200190929190505050600073ffffffffffffffffffffffffffffffffffffffff168173ffffffffffffffffffffffffffffffffffffffff1614156100ca576040517f08c379a00000000000000000000000000000000000000000000000000000000081526004018080602001828103825260228152602001806101c46022913960400191505060405180910390fd5b806000806101000a81548173ffffffffffffffffffffffffffffffffffffffff021916908373ffffffffffffffffffffffffffffffffffffffff1602179055505060ab806101196000396000f3fe608060405273ffffffffffffffffffffffffffffffffffffffff600054167fa619486e0000000000000000000000000000000000000000000000000000000060003514156050578060005260206000f35b3660008037600080366000845af43d6000803e60008114156070573d6000fd5b3d6000f3fea264697066735822122003d1488ee65e08fa41e58e888a9865554c535f2c77126a82cb4c0f917f31441364736f6c63430007060033496e76616c69642073696e676c65746f6e20616464726573732070726f766964656400000000000000000000000041675c099f32341bf84bfc5382af534df5c7461a"
        }
      ],
      "isFixedGasLimit": false
    }
  ],
  "receipts": [
    {
      "status": "0x1",
      "cumulativeGasUsed": "0x66176",
      "logs": [
        {
          "address": "0xfcb629ef1f72be199ba2f933f0637ab20befff0f",
          "topics": ["0x75e41bc35ff1bf14d81d1d2f649c0084a0f974f9289c803ec9898eeec4c8d0b8"],
          "data": "0x00000000000000000000000029fcb43b46531bca003ddc8fcb67ffe91900c762",
          "blockHash": "0x61f8c2632142fd0db7b5e4f147de48efc8754dbfc94ed4f942985c4da5b319a8",
          "blockNumber": "0x1ff7b44",
          "transactionHash": "0x43298575d1ad3aff1d82a9081668280fefac4cba74f8910550c939e2561feedf",
          "transactionIndex": "0x1",
          "logIndex": "0x0",
          "removed": false
        },
        {
          "address": "0xfcb629ef1f72be199ba2f933f0637ab20befff0f",
          "topics": [
            "0x141df868a6331af528e38c83b7aa03edc19be66e37ae67f9285bf4f8e3c6a1a8",
            "0x0000000000000000000000004e1dcf7ad4e460cfd30791ccc4f9c8a4f820ec67"
          ],
          "data": "0x00000000000000000000000000000000000000000000000000000000000000800000000000000000000000000000000000000000000000000000000000000003000000000000000000000000bd89a1ce4dde368ffab0ec35506eece0b1ffdc54000000000000000000000000fd0732dc9e303f09fcef3a7388ad10a83459ec990000000000000000000000000000000000000000000000000000000000000005000000000000000000000000837219d7a9c666f5542c4559bf17d7b804e5c5fe0000000000000000000000002b9cac7a18c70cbb6f6639571785b70a41b8ae03000000000000000000000000996267d7d1b7f5046543fede2c2db473ed4f65e90000000000000000000000004851ec4e5a5b392328b825ecd94af1ca93fd609e000000000000000000000000e767c1fcbec2f9b3a229b82bbc8aa21bac09bdb4",
          "blockHash": "0x61f8c2632142fd0db7b5e4f147de48efc8754dbfc94ed4f942985c4da5b319a8",
          "blockNumber": "0x1ff7b44",
          "transactionHash": "0x43298575d1ad3aff1d82a9081668280fefac4cba74f8910550c939e2561feedf",
          "transactionIndex": "0x1",
          "logIndex": "0x1",
          "removed": false
        },
        {
          "address": "0x4e1dcf7ad4e460cfd30791ccc4f9c8a4f820ec67",
          "topics": [
            "0x4f51faf6c4561ff95f067657e43439f0f856d97c04d9ec9070a6199ad418e235",
            "0x000000000000000000000000fcb629ef1f72be199ba2f933f0637ab20befff0f"
          ],
          "data": "0x00000000000000000000000041675c099f32341bf84bfc5382af534df5c7461a",
          "blockHash": "0x61f8c2632142fd0db7b5e4f147de48efc8754dbfc94ed4f942985c4da5b319a8",
          "blockNumber": "0x1ff7b44",
          "transactionHash": "0x43298575d1ad3aff1d82a9081668280fefac4cba74f8910550c939e2561feedf",
          "transactionIndex": "0x1",
          "logIndex": "0x2",
          "removed": false
        }
      ],
      "logsBloom": "0x00000000000000000000000000000000000000000000000000000000000000000000000000000000100000000000000000000000000000000000000080000000000010000000000000000000040000000000000000000008000000000000000000000000000000000500000000000000000000000100000000000000000000000800000000000200000000000000000000000000000000000000000000000800000000000000000000100000001000000000000000000000000000000200000000000000000000000010000000400000000000000000000000000020000000000000080000010000000000000000100020000000000000000000000000000000",
      "type": "0x2",
      "transactionHash": "0x43298575d1ad3aff1d82a9081668280fefac4cba74f8910550c939e2561feedf",
      "transactionIndex": "0x1",
      "blockHash": "0x61f8c2632142fd0db7b5e4f147de48efc8754dbfc94ed4f942985c4da5b319a8",
      "blockNumber": "0x1ff7b44",
      "gasUsed": "0x58a4c",
      "effectiveGasPrice": "0x101",
      "from": "0x9a8f92a830a5cb89a3816e3d267cb7791c16b04d",
      "to": "0x4e1dcf7ad4e460cfd30791ccc4f9c8a4f820ec67",
      "contractAddress": null,
      "l1Fee": "0x1cb95c63",
      "l1GasPrice": "0x3b14198",
      "l1GasUsed": "0x1ba0"
    }
  ],
  "libraries": [],
  "pending": [],
  "returns": {},
  "timestamp": 1775850721048,
  "chain": 81457,
  "commit": "fa18db20"
}
