{
  "transactions": [
    {
      "hash": "0xb906c0b04192ace4889eb7362aa15937e01bfa4f315fa78c82c1698dac9f434e",
      "transactionType": "CALL",
      "contractName": "DstOFTHandler",
      "contractAddress": "0x0ca8316a6fcc15c833a220c40d84550b08339438",
      "function": "setAuthorizedPeriphery(uint32,bytes32)",
      "arguments": ["30101", "0x000000000000000000000000c80b267469d509ae45df65845b291cbbe1945cb9"],
      "transaction": {
        "from": "0x9a8f92a830a5cb89a3816e3d267cb7791c16b04d",
        "to": "0x0ca8316a6fcc15c833a220c40d84550b08339438",
        "gas": "0x10e18",
        "value": "0x0",
        "input": "0x52e12a140000000000000000000000000000000000000000000000000000000000007595000000000000000000000000c80b267469d509ae45df65845b291cbbe1945cb9",
        "nonce": "0x5b0",
        "chainId": "0x3e7"
      },
      "additionalContracts": [],
      "isFixedGasLimit": false
    },
    {
      "hash": "0x41247190910dc7e2f7e3a5aec746ff9af68819312393b8734927d0a8be6a43d8",
      "transactionType": "CALL",
      "contractName": "DstOFTHandler",
      "contractAddress": "0x0ca8316a6fcc15c833a220c40d84550b08339438",
      "function": "setAuthorizedPeriphery(uint32,bytes32)",
      "arguments": ["30110", "0x00000000000000000000000039e4a5a7ded068831ea8d1c1012cea07a811f624"],
      "transaction": {
        "from": "0x9a8f92a830a5cb89a3816e3d267cb7791c16b04d",
        "to": "0x0ca8316a6fcc15c833a220c40d84550b08339438",
        "gas": "0x10e18",
        "value": "0x0",
        "input": "0x52e12a14000000000000000000000000000000000000000000000000000000000000759e00000000000000000000000039e4a5a7ded068831ea8d1c1012cea07a811f624",
        "nonce": "0x5b1",
        "chainId": "0x3e7"
      },
      "additionalContracts": [],
      "isFixedGasLimit": false
    },
    {
      "hash": "0xacadaccf6ee409ad5cc40df6cc3be71ca09ebeb03963af55f540baee9e3fda33",
      "transactionType": "CALL",
      "contractName": "DstOFTHandler",
      "contractAddress": "0x0ca8316a6fcc15c833a220c40d84550b08339438",
      "function": "setAuthorizedPeriphery(uint32,bytes32)",
      "arguments": ["30320", "0x000000000000000000000000c920dabe5f40d0785be9b4acf5b4b8d662a5955a"],
      "transaction": {
        "from": "0x9a8f92a830a5cb89a3816e3d267cb7791c16b04d",
        "to": "0x0ca8316a6fcc15c833a220c40d84550b08339438",
        "gas": "0x10e18",
        "value": "0x0",
        "input": "0x52e12a140000000000000000000000000000000000000000000000000000000000007670000000000000000000000000c920dabe5f40d0785be9b4acf5b4b8d662a5955a",
        "nonce": "0x5b2",
        "chainId": "0x3e7"
      },
      "additionalContracts": [],
      "isFixedGasLimit": false
    },
    {
      "hash": "0x1e564c90fdae15e4feb523e5c51602ea3d070bac956abab37990ed071ac01a70",
      "transactionType": "CALL",
      "contractName": "DstOFTHandler",
      "contractAddress": "0x0ca8316a6fcc15c833a220c40d84550b08339438",
      "function": "setAuthorizedPeriphery(uint32,bytes32)",
      "arguments": ["30109", "0x00000000000000000000000043e15fb40dadda50e1d2ba300416811f6c28540c"],
      "transaction": {
        "from": "0x9a8f92a830a5cb89a3816e3d267cb7791c16b04d",
        "to": "0x0ca8316a6fcc15c833a220c40d84550b08339438",
        "gas": "0x10e18",
        "value": "0x0",
        "input": "0x52e12a14000000000000000000000000000000000000000000000000000000000000759d00000000000000000000000043e15fb40dadda50e1d2ba300416811f6c28540c",
        "nonce": "0x5b3",
        "chainId": "0x3e7"
      },
      "additionalContracts": [],
      "isFixedGasLimit": false
    },
    {
      "hash": "0x8c6094d801d19e771dd60e616fcd4757377b7324054d58405cccbf2ca930f1b2",
      "transactionType": "CALL",
      "contractName": "DstOFTHandler",
      "contractAddress": "0x0ca8316a6fcc15c833a220c40d84550b08339438",
      "function": "setAuthorizedPeriphery(uint32,bytes32)",
      "arguments": ["30390", "0x000000000000000000000000b0c6ed64a77a3d8f61b21922b13f39525fbf5fc0"],
      "transaction": {
        "from": "0x9a8f92a830a5cb89a3816e3d267cb7791c16b04d",
        "to": "0x0ca8316a6fcc15c833a220c40d84550b08339438",
        "gas": "0x10e18",
        "value": "0x0",
        "input": "0x52e12a1400000000000000000000000000000000000000000000000000000000000076b6000000000000000000000000b0c6ed64a77a3d8f61b21922b13f39525fbf5fc0",
        "nonce": "0x5b4",
        "chainId": "0x3e7"
      },
      "additionalContracts": [],
      "isFixedGasLimit": false
    },
    {
      "hash": "0x7a7218c7a280d0d5b1e386cc4ca7e1a4b8aea802cf175d5161fcacaaa31545b6",
      "transactionType": "CALL",
      "contractName": "DstOFTHandler",
      "contractAddress": "0x0ca8316a6fcc15c833a220c40d84550b08339438",
      "function": "setAuthorizedPeriphery(uint32,bytes32)",
      "arguments": ["30398", "0x00000000000000000000000002d65fb01d3d88127df19838902ba42c6239c0fd"],
      "transaction": {
        "from": "0x9a8f92a830a5cb89a3816e3d267cb7791c16b04d",
        "to": "0x0ca8316a6fcc15c833a220c40d84550b08339438",
        "gas": "0x10e18",
        "value": "0x0",
        "input": "0x52e12a1400000000000000000000000000000000000000000000000000000000000076be00000000000000000000000002d65fb01d3d88127df19838902ba42c6239c0fd",
        "nonce": "0x5b5",
        "chainId": "0x3e7"
      },
      "additionalContracts": [],
      "isFixedGasLimit": false
    },
    {
      "hash": "0x759cc5100207fbffcd4912e878f5933ac24abd4a1ca1ac6535e4e1362c57c348",
      "transactionType": "CALL",
      "contractName": "DstOFTHandler",
      "contractAddress": "0x0ca8316a6fcc15c833a220c40d84550b08339438",
      "function": "setAuthorizedPeriphery(uint32,bytes32)",
      "arguments": ["30339", "0x000000000000000000000000fe9d541c92e4e90437c7152a00244886de37a658"],
      "transaction": {
        "from": "0x9a8f92a830a5cb89a3816e3d267cb7791c16b04d",
        "to": "0x0ca8316a6fcc15c833a220c40d84550b08339438",
        "gas": "0x10e08",
        "value": "0x0",
        "input": "0x52e12a140000000000000000000000000000000000000000000000000000000000007683000000000000000000000000fe9d541c92e4e90437c7152a00244886de37a658",
        "nonce": "0x5b6",
        "chainId": "0x3e7"
      },
      "additionalContracts": [],
      "isFixedGasLimit": false
    }
  ],
  "receipts": [
    {
      "status": "0x1",
      "cumulativeGasUsed": "0xc38c",
      "logs": [
        {
          "address": "0x0ca8316a6fcc15c833a220c40d84550b08339438",
          "topics": ["0xf3adc8db618887d7b76838e244efb05fc99475bb5a904a914d939fbdc41b7e8d"],
          "data": "0x0000000000000000000000000000000000000000000000000000000000007595000000000000000000000000c80b267469d509ae45df65845b291cbbe1945cb9",
          "blockHash": "0x519c0838f895e8d25500cd35996d1e3a174815851fe257310f65847f84595bbf",
          "blockNumber": "0x19f745b",
          "blockTimestamp": "0x698fd978",
          "transactionHash": "0xb906c0b04192ace4889eb7362aa15937e01bfa4f315fa78c82c1698dac9f434e",
          "transactionIndex": "0x0",
          "logIndex": "0x0",
          "removed": false
        }
      ],
      "logsBloom": "0x00000000008000000000800000000000000000000000000000000000000000000000000000000000000000000000000000000000000000000000000000000000000000000000000000000000000000000000000000000000000000000000000000000000000000000000000000000000000000000000000000000000001000000000000000000000000000000000000000200000000000000000000000000000000000000000000000000000000000000000000000000000000000000000000000000000000000000000000000000000000000000000000000000000000080000000000000000000000000000000400000000000000000000000000000000000",
      "type": "0x2",
      "transactionHash": "0xb906c0b04192ace4889eb7362aa15937e01bfa4f315fa78c82c1698dac9f434e",
      "transactionIndex": "0x0",
      "blockHash": "0x519c0838f895e8d25500cd35996d1e3a174815851fe257310f65847f84595bbf",
      "blockNumber": "0x19f745b",
      "gasUsed": "0xc38c",
      "effectiveGasPrice": "0x905244c",
      "from": "0x9a8f92a830a5cb89a3816e3d267cb7791c16b04d",
      "to": "0x0ca8316a6fcc15c833a220c40d84550b08339438",
      "contractAddress": null
    },
    {
      "status": "0x1",
      "cumulativeGasUsed": "0x18718",
      "logs": [
        {
          "address": "0x0ca8316a6fcc15c833a220c40d84550b08339438",
          "topics": ["0xf3adc8db618887d7b76838e244efb05fc99475bb5a904a914d939fbdc41b7e8d"],
          "data": "0x000000000000000000000000000000000000000000000000000000000000759e00000000000000000000000039e4a5a7ded068831ea8d1c1012cea07a811f624",
          "blockHash": "0x519c0838f895e8d25500cd35996d1e3a174815851fe257310f65847f84595bbf",
          "blockNumber": "0x19f745b",
          "blockTimestamp": "0x698fd978",
          "transactionHash": "0x41247190910dc7e2f7e3a5aec746ff9af68819312393b8734927d0a8be6a43d8",
          "transactionIndex": "0x1",
          "logIndex": "0x1",
          "removed": false
        }
      ],
      "logsBloom": "0x00000000008000000000800000000000000000000000000000000000000000000000000000000000000000000000000000000000000000000000000000000000000000000000000000000000000000000000000000000000000000000000000000000000000000000000000000000000000000000000000000000000001000000000000000000000000000000000000000200000000000000000000000000000000000000000000000000000000000000000000000000000000000000000000000000000000000000000000000000000000000000000000000000000000080000000000000000000000000000000400000000000000000000000000000000000",
      "type": "0x2",
      "transactionHash": "0x41247190910dc7e2f7e3a5aec746ff9af68819312393b8734927d0a8be6a43d8",
      "transactionIndex": "0x1",
      "blockHash": "0x519c0838f895e8d25500cd35996d1e3a174815851fe257310f65847f84595bbf",
      "blockNumber": "0x19f745b",
      "gasUsed": "0xc38c",
      "effectiveGasPrice": "0x905244c",
      "from": "0x9a8f92a830a5cb89a3816e3d267cb7791c16b04d",
      "to": "0x0ca8316a6fcc15c833a220c40d84550b08339438",
      "contractAddress": null
    },
    {
      "status": "0x1",
      "cumulativeGasUsed": "0x24aa4",
      "logs": [
        {
          "address": "0x0ca8316a6fcc15c833a220c40d84550b08339438",
          "topics": ["0xf3adc8db618887d7b76838e244efb05fc99475bb5a904a914d939fbdc41b7e8d"],
          "data": "0x0000000000000000000000000000000000000000000000000000000000007670000000000000000000000000c920dabe5f40d0785be9b4acf5b4b8d662a5955a",
          "blockHash": "0x519c0838f895e8d25500cd35996d1e3a174815851fe257310f65847f84595bbf",
          "blockNumber": "0x19f745b",
          "blockTimestamp": "0x698fd978",
          "transactionHash": "0xacadaccf6ee409ad5cc40df6cc3be71ca09ebeb03963af55f540baee9e3fda33",
          "transactionIndex": "0x2",
          "logIndex": "0x2",
          "removed": false
        }
      ],
      "logsBloom": "0x00000000008000000000800000000000000000000000000000000000000000000000000000000000000000000000000000000000000000000000000000000000000000000000000000000000000000000000000000000000000000000000000000000000000000000000000000000000000000000000000000000000001000000000000000000000000000000000000000200000000000000000000000000000000000000000000000000000000000000000000000000000000000000000000000000000000000000000000000000000000000000000000000000000000080000000000000000000000000000000400000000000000000000000000000000000",
      "type": "0x2",
      "transactionHash": "0xacadaccf6ee409ad5cc40df6cc3be71ca09ebeb03963af55f540baee9e3fda33",
      "transactionIndex": "0x2",
      "blockHash": "0x519c0838f895e8d25500cd35996d1e3a174815851fe257310f65847f84595bbf",
      "blockNumber": "0x19f745b",
      "gasUsed": "0xc38c",
      "effectiveGasPrice": "0x905244c",
      "from": "0x9a8f92a830a5cb89a3816e3d267cb7791c16b04d",
      "to": "0x0ca8316a6fcc15c833a220c40d84550b08339438",
      "contractAddress": null
    },
    {
      "status": "0x1",
      "cumulativeGasUsed": "0x30e30",
      "logs": [
        {
          "address": "0x0ca8316a6fcc15c833a220c40d84550b08339438",
          "topics": ["0xf3adc8db618887d7b76838e244efb05fc99475bb5a904a914d939fbdc41b7e8d"],
          "data": "0x000000000000000000000000000000000000000000000000000000000000759d00000000000000000000000043e15fb40dadda50e1d2ba300416811f6c28540c",
          "blockHash": "0x519c0838f895e8d25500cd35996d1e3a174815851fe257310f65847f84595bbf",
          "blockNumber": "0x19f745b",
          "blockTimestamp": "0x698fd978",
          "transactionHash": "0x1e564c90fdae15e4feb523e5c51602ea3d070bac956abab37990ed071ac01a70",
          "transactionIndex": "0x3",
          "logIndex": "0x3",
          "removed": false
        }
      ],
      "logsBloom": "0x00000000008000000000800000000000000000000000000000000000000000000000000000000000000000000000000000000000000000000000000000000000000000000000000000000000000000000000000000000000000000000000000000000000000000000000000000000000000000000000000000000000001000000000000000000000000000000000000000200000000000000000000000000000000000000000000000000000000000000000000000000000000000000000000000000000000000000000000000000000000000000000000000000000000080000000000000000000000000000000400000000000000000000000000000000000",
      "type": "0x2",
      "transactionHash": "0x1e564c90fdae15e4feb523e5c51602ea3d070bac956abab37990ed071ac01a70",
      "transactionIndex": "0x3",
      "blockHash": "0x519c0838f895e8d25500cd35996d1e3a174815851fe257310f65847f84595bbf",
      "blockNumber": "0x19f745b",
      "gasUsed": "0xc38c",
      "effectiveGasPrice": "0x905244c",
      "from": "0x9a8f92a830a5cb89a3816e3d267cb7791c16b04d",
      "to": "0x0ca8316a6fcc15c833a220c40d84550b08339438",
      "contractAddress": null
    },
    {
      "status": "0x1",
      "cumulativeGasUsed": "0x3d1bc",
      "logs": [
        {
          "address": "0x0ca8316a6fcc15c833a220c40d84550b08339438",
          "topics": ["0xf3adc8db618887d7b76838e244efb05fc99475bb5a904a914d939fbdc41b7e8d"],
          "data": "0x00000000000000000000000000000000000000000000000000000000000076b6000000000000000000000000b0c6ed64a77a3d8f61b21922b13f39525fbf5fc0",
          "blockHash": "0x519c0838f895e8d25500cd35996d1e3a174815851fe257310f65847f84595bbf",
          "blockNumber": "0x19f745b",
          "blockTimestamp": "0x698fd978",
          "transactionHash": "0x8c6094d801d19e771dd60e616fcd4757377b7324054d58405cccbf2ca930f1b2",
          "transactionIndex": "0x4",
          "logIndex": "0x4",
          "removed": false
        }
      ],
      "logsBloom": "0x00000000008000000000800000000000000000000000000000000000000000000000000000000000000000000000000000000000000000000000000000000000000000000000000000000000000000000000000000000000000000000000000000000000000000000000000000000000000000000000000000000000001000000000000000000000000000000000000000200000000000000000000000000000000000000000000000000000000000000000000000000000000000000000000000000000000000000000000000000000000000000000000000000000000080000000000000000000000000000000400000000000000000000000000000000000",
      "type": "0x2",
      "transactionHash": "0x8c6094d801d19e771dd60e616fcd4757377b7324054d58405cccbf2ca930f1b2",
      "transactionIndex": "0x4",
      "blockHash": "0x519c0838f895e8d25500cd35996d1e3a174815851fe257310f65847f84595bbf",
      "blockNumber": "0x19f745b",
      "gasUsed": "0xc38c",
      "effectiveGasPrice": "0x905244c",
      "from": "0x9a8f92a830a5cb89a3816e3d267cb7791c16b04d",
      "to": "0x0ca8316a6fcc15c833a220c40d84550b08339438",
      "contractAddress": null
    },
    {
      "status": "0x1",
      "cumulativeGasUsed": "0x49548",
      "logs": [
        {
          "address": "0x0ca8316a6fcc15c833a220c40d84550b08339438",
          "topics": ["0xf3adc8db618887d7b76838e244efb05fc99475bb5a904a914d939fbdc41b7e8d"],
          "data": "0x00000000000000000000000000000000000000000000000000000000000076be00000000000000000000000002d65fb01d3d88127df19838902ba42c6239c0fd",
          "blockHash": "0x519c0838f895e8d25500cd35996d1e3a174815851fe257310f65847f84595bbf",
          "blockNumber": "0x19f745b",
          "blockTimestamp": "0x698fd978",
          "transactionHash": "0x7a7218c7a280d0d5b1e386cc4ca7e1a4b8aea802cf175d5161fcacaaa31545b6",
          "transactionIndex": "0x5",
          "logIndex": "0x5",
          "removed": false
        }
      ],
      "logsBloom": "0x00000000008000000000800000000000000000000000000000000000000000000000000000000000000000000000000000000000000000000000000000000000000000000000000000000000000000000000000000000000000000000000000000000000000000000000000000000000000000000000000000000000001000000000000000000000000000000000000000200000000000000000000000000000000000000000000000000000000000000000000000000000000000000000000000000000000000000000000000000000000000000000000000000000000080000000000000000000000000000000400000000000000000000000000000000000",
      "type": "0x2",
      "transactionHash": "0x7a7218c7a280d0d5b1e386cc4ca7e1a4b8aea802cf175d5161fcacaaa31545b6",
      "transactionIndex": "0x5",
      "blockHash": "0x519c0838f895e8d25500cd35996d1e3a174815851fe257310f65847f84595bbf",
      "blockNumber": "0x19f745b",
      "gasUsed": "0xc38c",
      "effectiveGasPrice": "0x905244c",
      "from": "0x9a8f92a830a5cb89a3816e3d267cb7791c16b04d",
      "to": "0x0ca8316a6fcc15c833a220c40d84550b08339438",
      "contractAddress": null
    },
    {
      "status": "0x1",
      "cumulativeGasUsed": "0x558c8",
      "logs": [
        {
          "address": "0x0ca8316a6fcc15c833a220c40d84550b08339438",
          "topics": ["0xf3adc8db618887d7b76838e244efb05fc99475bb5a904a914d939fbdc41b7e8d"],
          "data": "0x0000000000000000000000000000000000000000000000000000000000007683000000000000000000000000fe9d541c92e4e90437c7152a00244886de37a658",
          "blockHash": "0x519c0838f895e8d25500cd35996d1e3a174815851fe257310f65847f84595bbf",
          "blockNumber": "0x19f745b",
          "blockTimestamp": "0x698fd978",
          "transactionHash": "0x759cc5100207fbffcd4912e878f5933ac24abd4a1ca1ac6535e4e1362c57c348",
          "transactionIndex": "0x6",
          "logIndex": "0x6",
          "removed": false
        }
      ],
      "logsBloom": "0x00000000008000000000800000000000000000000000000000000000000000000000000000000000000000000000000000000000000000000000000000000000000000000000000000000000000000000000000000000000000000000000000000000000000000000000000000000000000000000000000000000000001000000000000000000000000000000000000000200000000000000000000000000000000000000000000000000000000000000000000000000000000000000000000000000000000000000000000000000000000000000000000000000000000080000000000000000000000000000000400000000000000000000000000000000000",
      "type": "0x2",
      "transactionHash": "0x759cc5100207fbffcd4912e878f5933ac24abd4a1ca1ac6535e4e1362c57c348",
      "transactionIndex": "0x6",
      "blockHash": "0x519c0838f895e8d25500cd35996d1e3a174815851fe257310f65847f84595bbf",
      "blockNumber": "0x19f745b",
      "gasUsed": "0xc380",
      "effectiveGasPrice": "0x905244c",
      "from": "0x9a8f92a830a5cb89a3816e3d267cb7791c16b04d",
      "to": "0x0ca8316a6fcc15c833a220c40d84550b08339438",
      "contractAddress": null
    }
  ],
  "libraries": [],
  "pending": [],
  "returns": {},
  "timestamp": 1771035000949,
  "chain": 999,
  "commit": "dea875aa"
}
